{
  "abi": [
    {
      "inputs": [],
      "stateMutability": "nonpayable",
      "type": "constructor"
    },
    {
      "inputs": [],
      "name": "addrPayContract",
      "outputs": [
        {
          "internalType": "address",
          "name": "",
          "type": "address"
        }
      ],
      "stateMutability": "view",
      "type": "function"
    },
    {
      "inputs": [],
      "name": "addrProjectContract",
      "outputs": [
        {
          "internalType": "address",
          "name": "",
          "type": "address"
        }
      ],
      "stateMutability": "view",
      "type": "function"
    },
    {
      "inputs": [
        {
          "internalType": "uint256",
          "name": "projectNumber",
          "type": "uint256"
        },
        {
          "internalType": "address",
          "name": "author",
          "type": "address"
        },
        {
          "internalType": "uint256",
          "name": "investNumber",
          "type": "uint256"
        }
      ],
      "name": "assignGetMoney",
      "outputs": [],
      "stateMutability": "nonpayable",
      "type": "function"
    },
    {
      "inputs": [
        {
          "internalType": "address",
          "name": "_addrPayContract",
          "type": "address"
        }
      ],
      "name": "changePayContract",
      "outputs": [],
      "stateMutability": "nonpayable",
      "type": "function"
    },
    {
      "inputs": [
        {
          "internalType": "address",
          "name": "_addrProjectContract",
          "type": "address"
        }
      ],
      "name": "changeProjectContract",
      "outputs": [],
      "stateMutability": "nonpayable",
      "type": "function"
    },
    {
      "inputs": [
        {
          "internalType": "address",
          "name": "investor",
          "type": "address"
        }
      ],
      "name": "getAllInvestorInvests",
      "outputs": [
        {
          "components": [
            {
              "components": [
                {
                  "internalType": "uint256",
                  "name": "investNumber",
                  "type": "uint256"
                },
                {
                  "internalType": "uint256",
                  "name": "projectNumber",
                  "type": "uint256"
                },
                {
                  "internalType": "address",
                  "name": "author",
                  "type": "address"
                },
                {
                  "internalType": "address",
                  "name": "investor",
                  "type": "address"
                },
                {
                  "internalType": "uint256",
                  "name": "investAmount",
                  "type": "uint256"
                },
                {
                  "internalType": "bool",
                  "name": "moneyAcceptFlg",
                  "type": "bool"
                }
              ],
              "internalType": "struct InvestContract.Invest",
              "name": "invest",
              "type": "tuple"
            },
            {
              "components": [
                {
                  "internalType": "uint256",
                  "name": "number",
                  "type": "uint256"
                },
                {
                  "internalType": "address",
                  "name": "author",
                  "type": "address"
                },
                {
                  "internalType": "address",
                  "name": "addressGuard",
                  "type": "address"
                },
                {
                  "internalType": "string",
                  "name": "uMoneyAccount",
                  "type": "string"
                },
                {
                  "internalType": "uint8",
                  "name": "status",
                  "type": "uint8"
                },
                {
                  "internalType": "string",
                  "name": "title",
                  "type": "string"
                },
                {
                  "internalType": "string",
                  "name": "url",
                  "type": "string"
                },
                {
                  "internalType": "uint256",
                  "name": "necessaryAmount",
                  "type": "uint256"
                },
                {
                  "internalType": "uint256",
                  "name": "amountInvest",
                  "type": "uint256"
                },
                {
                  "internalType": "uint256",
                  "name": "amountPay",
                  "type": "uint256"
                }
              ],
              "internalType": "struct IProjectContract.Project",
              "name": "project",
              "type": "tuple"
            }
          ],
          "internalType": "struct InvestContract.GetInvest[]",
          "name": "",
          "type": "tuple[]"
        }
      ],
      "stateMutability": "view",
      "type": "function"
    },
    {
      "inputs": [
        {
          "internalType": "uint256",
          "name": "projectNumber",
          "type": "uint256"
        },
        {
          "internalType": "address",
          "name": "author",
          "type": "address"
        }
      ],
      "name": "getAllInvestsIntoProject",
      "outputs": [
        {
          "components": [
            {
              "internalType": "uint256",
              "name": "investNumber",
              "type": "uint256"
            },
            {
              "internalType": "uint256",
              "name": "projectNumber",
              "type": "uint256"
            },
            {
              "internalType": "address",
              "name": "author",
              "type": "address"
            },
            {
              "internalType": "address",
              "name": "investor",
              "type": "address"
            },
            {
              "internalType": "uint256",
              "name": "investAmount",
              "type": "uint256"
            },
            {
              "internalType": "bool",
              "name": "moneyAcceptFlg",
              "type": "bool"
            }
          ],
          "internalType": "struct InvestContract.Invest[]",
          "name": "",
          "type": "tuple[]"
        }
      ],
      "stateMutability": "view",
      "type": "function"
    },
    {
      "inputs": [
        {
          "internalType": "uint256",
          "name": "projectNumber",
          "type": "uint256"
        },
        {
          "internalType": "address",
          "name": "author",
          "type": "address"
        }
      ],
      "name": "getProjectInvestors",
      "outputs": [
        {
          "internalType": "address[]",
          "name": "",
          "type": "address[]"
        }
      ],
      "stateMutability": "view",
      "type": "function"
    },
    {
      "inputs": [
        {
          "internalType": "uint256",
          "name": "projectNumber",
          "type": "uint256"
        },
        {
          "internalType": "address",
          "name": "author",
          "type": "address"
        },
        {
          "internalType": "uint256",
          "name": "investAmount",
          "type": "uint256"
        }
      ],
      "name": "invest",
      "outputs": [],
      "stateMutability": "nonpayable",
      "type": "function"
    },
    {
      "inputs": [
        {
          "internalType": "uint256",
          "name": "projectNumber",
          "type": "uint256"
        },
        {
          "internalType": "address",
          "name": "author",
          "type": "address"
        }
      ],
      "name": "summaryProjectInvestors",
      "outputs": [],
      "stateMutability": "nonpayable",
      "type": "function"
    }
  ],
  "bytecode": "608060405234801561001057600080fd5b50600680546001600160a01b031916331790556117b9806100326000396000f3fe608060405234801561001057600080fd5b506004361061009e5760003560e01c8063aa5a702111610066578063aa5a70211461012e578063c56917ba14610141578063dab0f62314610154578063e20e011214610174578063fecba3a5146101945761009e565b806348228474146100a3578063800fd018146100b85780638b90c42e146100e8578063944274d2146100fb578063a97a3f861461010e575b600080fd5b6100b66100b13660046111f4565b6101a7565b005b6000546100cb906001600160a01b031681565b6040516001600160a01b0390911681526020015b60405180910390f35b6100b66100f636600461137a565b610206565b6100b66101093660046111f4565b610735565b61012161011c36600461134b565b610781565b6040516100df9190611427565b6100b661013c36600461134b565b610800565b6002546100cb906001600160a01b031681565b6101676101623660046111f4565b610a6d565b6040516100df9190611474565b61018761018236600461134b565b610caf565b6040516100df91906115b6565b6100b66101a236600461137a565b610d76565b6006546001600160a01b031633146101da5760405162461bcd60e51b81526004016101d1906115f8565b60405180910390fd5b600080546001600160a01b039092166001600160a01b0319928316811790915560018054909216179055565b6006546001600160a01b031633146102305760405162461bcd60e51b81526004016101d1906115f8565b6001546040516347064ec560e01b8152600481018590526001600160a01b038481166024830152909116906347064ec59060440160206040518083038186803b15801561027c57600080fd5b505afa158015610290573d6000803e3d6000fd5b505050506040513d601f19601f820116820180604052508101906102b49190611217565b15156001146102d55760405162461bcd60e51b81526004016101d190611628565b6001600160a01b0382166000908152600360209081526040808320868452909152902080548290811061031857634e487b7160e01b600052603260045260246000fd5b600091825260209091206005600690920201015460ff16156103b35760405162461bcd60e51b815260206004820152604860248201527fd09fd180d0b8d0b5d0bc20d0b4d0b5d0bdd0b5d0b6d0bdd18bd18520d181d18060448201527fd0b5d0b4d181d182d0b220d183d0b6d0b520d0bfd0bed0b4d182d0b2d0b5d180606482015267d0b6d0b4d0b5d0bd60c01b608482015260a4016101d1565b6001600160a01b03821660009081526003602090815260408083208684529091529020805460019190839081106103fa57634e487b7160e01b600052603260045260246000fd5b60009182526020808320600692909202909101600501805460ff1916931515939093179092556001600160a01b038416815260038252604080822086835290925290812080548390811061045e57634e487b7160e01b600052603260045260246000fd5b60009182526020808320600360069093020191909101546001600160a01b031680835260048252604080842080548251818602810186019093528083529295509092909190849084015b828210156105235760008481526020908190206040805160c08101825260068602909201805483526001808201548486015260028201546001600160a01b039081169385019390935260038201549092166060840152600481015460808401526005015460ff16151560a083015290835290920191016104a8565b50505050905060005b815181101561065b578582828151811061055657634e487b7160e01b600052603260045260246000fd5b6020026020010151602001511480156105ab5750846001600160a01b031682828151811061059457634e487b7160e01b600052603260045260246000fd5b6020026020010151604001516001600160a01b0316145b80156105e15750838282815181106105d357634e487b7160e01b600052603260045260246000fd5b602002602001015160000151145b15610649576001600160a01b03831660009081526004602052604090208054600191908390811061062257634e487b7160e01b600052603260045260246000fd5b60009182526020909120600690910201600501805460ff191691151591909117905561065b565b806106538161172e565b91505061052c565b506001546001600160a01b0385811660009081526003602090815260408083208a84529091529020805491909216916335c70e059188918891889081106106b257634e487b7160e01b600052603260045260246000fd5b9060005260206000209060060201600401546040518463ffffffff1660e01b81526004016106fc939291909283526001600160a01b03919091166020830152604082015260600190565b600060405180830381600087803b15801561071657600080fd5b505af115801561072a573d6000803e3d6000fd5b505050505050505050565b6006546001600160a01b0316331461075f5760405162461bcd60e51b81526004016101d1906115f8565b600280546001600160a01b0319166001600160a01b0392909216919091179055565b6001600160a01b03811660009081526005602090815260408083208584528252918290208054835181840281018401909452808452606093928301828280156107f357602002820191906000526020600020905b81546001600160a01b031681526001909101906020018083116107d5575b5050505050905092915050565b6000546001600160a01b0316331461082a5760405162461bcd60e51b81526004016101d1906115f8565b6001600160a01b0381166000908152600360209081526040808320858452825280832080548251818502810185019093528083529192909190849084015b828210156108e35760008481526020908190206040805160c08101825260068602909201805483526001808201548486015260028201546001600160a01b039081169385019390935260038201549092166060840152600481015460808401526005015460ff16151560a08301529083529092019101610868565b50505050905060005b8151811015610a6757600082828151811061091757634e487b7160e01b600052603260045260246000fd5b602002602001015160600151905082828151811061094557634e487b7160e01b600052603260045260246000fd5b602002602001015160a0015115610a5457600160005b6001600160a01b03861660009081526005602090815260408083208a8452909152902054811015610a04576001600160a01b0386811660009081526005602090815260408083208b84529091529020805491851691839081106109ce57634e487b7160e01b600052603260045260246000fd5b6000918252602090912001546001600160a01b031614156109f25760009150610a04565b806109fc8161172e565b91505061095b565b508015610a52576001600160a01b0385811660009081526005602090815260408083208a845282528220805460018101825590835291200180546001600160a01b0319169184169190911790555b505b5080610a5f8161172e565b9150506108ec565b50505050565b6001600160a01b0381166000908152600460209081526040808320805482518185028101850190935280835260609493849084015b82821015610b1d5760008481526020908190206040805160c08101825260068602909201805483526001808201548486015260028201546001600160a01b039081169385019390935260038201549092166060840152600481015460808401526005015460ff16151560a08301529083529092019101610aa2565b5050505090506000815167ffffffffffffffff811115610b4d57634e487b7160e01b600052604160045260246000fd5b604051908082528060200260200182016040528015610b8657816020015b610b7361109c565b815260200190600190039081610b6b5790505b50905060005b8251811015610ca557610b9d61109c565b838281518110610bbd57634e487b7160e01b600052603260045260246000fd5b602090810291909101810151808352600154918101516040918201519151633595070f60e21b815260048101919091526001600160a01b03918216602482015291169063d6541c3c9060440160006040518083038186803b158015610c2157600080fd5b505afa158015610c35573d6000803e3d6000fd5b505050506040513d6000823e601f3d908101601f19168201604052610c5d9190810190611237565b816020018190525080838381518110610c8657634e487b7160e01b600052603260045260246000fd5b6020026020010181905250508080610c9d9061172e565b915050610b8c565b509150505b919050565b6001600160a01b03811660009081526003602090815260408083208584528252808320805482518185028101850190935280835260609492939192909184015b82821015610d6a5760008481526020908190206040805160c08101825260068602909201805483526001808201548486015260028201546001600160a01b039081169385019390935260038201549092166060840152600481015460808401526005015460ff16151560a08301529083529092019101610cef565b50505050905092915050565b6001546040516347064ec560e01b8152600481018590526001600160a01b038481166024830152909116906347064ec59060440160206040518083038186803b158015610dc257600080fd5b505afa158015610dd6573d6000803e3d6000fd5b505050506040513d601f19601f82011682018060405250810190610dfa9190611217565b1515600114610e1b5760405162461bcd60e51b81526004016101d190611628565b6001600160a01b0382166000908152600360209081526040808320868452909152902054610e47611124565b81816000018181525050848160200181815250508381604001906001600160a01b031690816001600160a01b0316815250503381606001906001600160a01b031690816001600160a01b0316815250508281608001818152505060008160a001901515908115158152505060036000856001600160a01b03166001600160a01b031681526020019081526020016000206000868152602001908152602001600020819080600181540180825580915050600190039060005260206000209060060201600090919091909150600082015181600001556020820151816001015560408201518160020160006101000a8154816001600160a01b0302191690836001600160a01b0316021790555060608201518160030160006101000a8154816001600160a01b0302191690836001600160a01b031602179055506080820151816004015560a08201518160050160006101000a81548160ff021916908315150217905550505060046000336001600160a01b03166001600160a01b03168152602001908152602001600020819080600181540180825580915050600190039060005260206000209060060201600090919091909150600082015181600001556020820151816001015560408201518160020160006101000a8154816001600160a01b0302191690836001600160a01b0316021790555060608201518160030160006101000a8154816001600160a01b0302191690836001600160a01b031602179055506080820151816004015560a08201518160050160006101000a81548160ff02191690831515021790555050505050505050565b60405180604001604052806110af611124565b815260200161111f6040518061014001604052806000815260200160006001600160a01b0316815260200160006001600160a01b0316815260200160608152602001600060ff16815260200160608152602001606081526020016000815260200160008152602001600081525090565b905290565b6040518060c00160405280600081526020016000815260200160006001600160a01b0316815260200160006001600160a01b03168152602001600081526020016000151581525090565b8051610caa8161176b565b600082601f830112611189578081fd5b815167ffffffffffffffff8111156111a3576111a3611755565b6111b6601f8201601f19166020016116d1565b8181528460208386010111156111ca578283fd5b6111db826020830160208701611702565b949350505050565b805160ff81168114610caa57600080fd5b600060208284031215611205578081fd5b81356112108161176b565b9392505050565b600060208284031215611228578081fd5b81518015158114611210578182fd5b600060208284031215611248578081fd5b815167ffffffffffffffff8082111561125f578283fd5b8184019150610140808387031215611275578384fd5b61127e816116d1565b9050825181526112906020840161116e565b60208201526112a16040840161116e565b60408201526060830151828111156112b7578485fd5b6112c387828601611179565b6060830152506112d5608084016111e3565b608082015260a0830151828111156112eb578485fd5b6112f787828601611179565b60a08301525060c08301518281111561130e578485fd5b61131a87828601611179565b60c08301525060e0838101519082015261010080840151908201526101209283015192810192909252509392505050565b6000806040838503121561135d578081fd5b82359150602083013561136f8161176b565b809150509250929050565b60008060006060848603121561138e578081fd5b8335925060208401356113a08161176b565b929592945050506040919091013590565b600081518084526113c9816020860160208601611702565b601f01601f19169290920160200192915050565b8051825260208101516020830152604081015160018060a01b03808216604085015280606084015116606085015250506080810151608083015260a0810151151560a08301525050565b6020808252825182820181905260009190848201906040850190845b818110156114685783516001600160a01b031683529284019291840191600101611443565b50909695505050505050565b60208082528251828201819052600091906040908185019080840286018301878501865b838110156115a857603f19898403018552815160e06114b88583516113dd565b88820151915060c08181870152825182870152898301516101006114e6818901836001600160a01b03169052565b8a8501519150610120611503818a01846001600160a01b03169052565b60608601516101408a810152925061151f6102208a01846113b1565b925060808601516115366101608b018260ff169052565b5060a086015160df19808b8603016101808c015261155485836113b1565b9450858801519550808b8603016101a08c0152505061157383856113b1565b948601516101c08a0152908501516101e089015290930151610200909601959095529588019593505090860190600101611498565b509098975050505050505050565b6020808252825182820181905260009190848201906040850190845b81811015611468576115e58385516113dd565b9284019260c092909201916001016115d2565b602080825260169082015275d09dd0b5d18220d0b4d0bed181d182d183d0bfd0b02160501b604082015260600190565b60208082526078908201527fd09fd180d0bed0b2d0b5d180d18cd182d0b52c20d181d183d189d0b5d181d18260408201527fd0b2d183d0b5d18220d0bbd0b820d0bfd180d0bed0b5d0bad18220d0b820d0be60608201527fd182d0bad180d18bd18220d0bbd0b820d0bed0bd20d0b4d0bbd18f20d0b8d0bd60808201527fd0b2d0b5d181d182d0b8d180d0bed0b2d0b0d0bdd0b8d18f000000000000000060a082015260c00190565b604051601f8201601f1916810167ffffffffffffffff811182821017156116fa576116fa611755565b604052919050565b60005b8381101561171d578181015183820152602001611705565b83811115610a675750506000910152565b600060001982141561174e57634e487b7160e01b81526011600452602481fd5b5060010190565b634e487b7160e01b600052604160045260246000fd5b6001600160a01b038116811461178057600080fd5b5056fea2646970667358221220b9aabd1dc50cc3bfd3d0e87950fe41e555158c769b19e01ebde84c4e7c650baa64736f6c63430008020033",
  "bytecodeSha1": "ae9292b829a325d4e4dbadde20a9eddb170785a8",
  "compiler": {
    "evm_version": "istanbul",
    "optimizer": {
      "enabled": true,
      "runs": 200
    },
    "version": "0.8.2+commit.661d1103"
  },
  "contractName": "InvestContract",
  "language": "Solidity",
  "natspec": {
    "kind": "dev",
    "methods": {},
    "version": 1
  },
  "opcodes": "PUSH1 0x80 PUSH1 0x40 MSTORE CALLVALUE DUP1 ISZERO PUSH2 0x10 JUMPI PUSH1 0x0 DUP1 REVERT JUMPDEST POP PUSH1 0x4 CALLDATASIZE LT PUSH2 0x9E JUMPI PUSH1 0x0 CALLDATALOAD PUSH1 0xE0 SHR DUP1 PUSH4 0xAA5A7021 GT PUSH2 0x66 JUMPI DUP1 PUSH4 0xAA5A7021 EQ PUSH2 0x12E JUMPI DUP1 PUSH4 0xC56917BA EQ PUSH2 0x141 JUMPI DUP1 PUSH4 0xDAB0F623 EQ PUSH2 0x154 JUMPI DUP1 PUSH4 0xE20E0112 EQ PUSH2 0x174 JUMPI DUP1 PUSH4 0xFECBA3A5 EQ PUSH2 0x194 JUMPI PUSH2 0x9E JUMP JUMPDEST DUP1 PUSH4 0x48228474 EQ PUSH2 0xA3 JUMPI DUP1 PUSH4 0x800FD018 EQ PUSH2 0xB8 JUMPI DUP1 PUSH4 0x8B90C42E EQ PUSH2 0xE8 JUMPI DUP1 PUSH4 0x944274D2 EQ PUSH2 0xFB JUMPI DUP1 PUSH4 0xA97A3F86 EQ PUSH2 0x10E JUMPI JUMPDEST PUSH1 0x0 DUP1 REVERT JUMPDEST PUSH2 0xB6 PUSH2 0xB1 CALLDATASIZE PUSH1 0x4 PUSH2 0x11F4 JUMP JUMPDEST PUSH2 0x1A7 JUMP JUMPDEST STOP JUMPDEST PUSH1 0x0 SLOAD PUSH2 0xCB SWAP1 PUSH1 0x1 PUSH1 0x1 PUSH1 0xA0 SHL SUB AND DUP2 JUMP JUMPDEST PUSH1 0x40 MLOAD PUSH1 0x1 PUSH1 0x1 PUSH1 0xA0 SHL SUB SWAP1 SWAP2 AND DUP2 MSTORE PUSH1 0x20 ADD JUMPDEST PUSH1 0x40 MLOAD DUP1 SWAP2 SUB SWAP1 RETURN JUMPDEST PUSH2 0xB6 PUSH2 0xF6 CALLDATASIZE PUSH1 0x4 PUSH2 0x137A JUMP JUMPDEST PUSH2 0x206 JUMP JUMPDEST PUSH2 0xB6 PUSH2 0x109 CALLDATASIZE PUSH1 0x4 PUSH2 0x11F4 JUMP JUMPDEST PUSH2 0x735 JUMP JUMPDEST PUSH2 0x121 PUSH2 0x11C CALLDATASIZE PUSH1 0x4 PUSH2 0x134B JUMP JUMPDEST PUSH2 0x781 JUMP JUMPDEST PUSH1 0x40 MLOAD PUSH2 0xDF SWAP2 SWAP1 PUSH2 0x1427 JUMP JUMPDEST PUSH2 0xB6 PUSH2 0x13C CALLDATASIZE PUSH1 0x4 PUSH2 0x134B JUMP JUMPDEST PUSH2 0x800 JUMP JUMPDEST PUSH1 0x2 SLOAD PUSH2 0xCB SWAP1 PUSH1 0x1 PUSH1 0x1 PUSH1 0xA0 SHL SUB AND DUP2 JUMP JUMPDEST PUSH2 0x167 PUSH2 0x162 CALLDATASIZE PUSH1 0x4 PUSH2 0x11F4 JUMP JUMPDEST PUSH2 0xA6D JUMP JUMPDEST PUSH1 0x40 MLOAD PUSH2 0xDF SWAP2 SWAP1 PUSH2 0x1474 JUMP JUMPDEST PUSH2 0x187 PUSH2 0x182 CALLDATASIZE PUSH1 0x4 PUSH2 0x134B JUMP JUMPDEST PUSH2 0xCAF JUMP JUMPDEST PUSH1 0x40 MLOAD PUSH2 0xDF SWAP2 SWAP1 PUSH2 0x15B6 JUMP JUMPDEST PUSH2 0xB6 PUSH2 0x1A2 CALLDATASIZE PUSH1 0x4 PUSH2 0x137A JUMP JUMPDEST PUSH2 0xD76 JUMP JUMPDEST PUSH1 0x6 SLOAD PUSH1 0x1 PUSH1 0x1 PUSH1 0xA0 SHL SUB AND CALLER EQ PUSH2 0x1DA JUMPI PUSH1 0x40 MLOAD PUSH3 0x461BCD PUSH1 0xE5 SHL DUP2 MSTORE PUSH1 0x4 ADD PUSH2 0x1D1 SWAP1 PUSH2 0x15F8 JUMP JUMPDEST PUSH1 0x40 MLOAD DUP1 SWAP2 SUB SWAP1 REVERT JUMPDEST PUSH1 0x0 DUP1 SLOAD PUSH1 0x1 PUSH1 0x1 PUSH1 0xA0 SHL SUB SWAP1 SWAP3 AND PUSH1 0x1 PUSH1 0x1 PUSH1 0xA0 SHL SUB NOT SWAP3 DUP4 AND DUP2 OR SWAP1 SWAP2 SSTORE PUSH1 0x1 DUP1 SLOAD SWAP1 SWAP3 AND OR SWAP1 SSTORE JUMP JUMPDEST PUSH1 0x6 SLOAD PUSH1 0x1 PUSH1 0x1 PUSH1 0xA0 SHL SUB AND CALLER EQ PUSH2 0x230 JUMPI PUSH1 0x40 MLOAD PUSH3 0x461BCD PUSH1 0xE5 SHL DUP2 MSTORE PUSH1 0x4 ADD PUSH2 0x1D1 SWAP1 PUSH2 0x15F8 JUMP JUMPDEST PUSH1 0x1 SLOAD PUSH1 0x40 MLOAD PUSH4 0x47064EC5 PUSH1 0xE0 SHL DUP2 MSTORE PUSH1 0x4 DUP2 ADD DUP6 SWAP1 MSTORE PUSH1 0x1 PUSH1 0x1 PUSH1 0xA0 SHL SUB DUP5 DUP2 AND PUSH1 0x24 DUP4 ADD MSTORE SWAP1 SWAP2 AND SWAP1 PUSH4 0x47064EC5 SWAP1 PUSH1 0x44 ADD PUSH1 0x20 PUSH1 0x40 MLOAD DUP1 DUP4 SUB DUP2 DUP7 DUP1 EXTCODESIZE ISZERO DUP1 ISZERO PUSH2 0x27C JUMPI PUSH1 0x0 DUP1 REVERT JUMPDEST POP GAS STATICCALL ISZERO DUP1 ISZERO PUSH2 0x290 JUMPI RETURNDATASIZE PUSH1 0x0 DUP1 RETURNDATACOPY RETURNDATASIZE PUSH1 0x0 REVERT JUMPDEST POP POP POP POP PUSH1 0x40 MLOAD RETURNDATASIZE PUSH1 0x1F NOT PUSH1 0x1F DUP3 ADD AND DUP3 ADD DUP1 PUSH1 0x40 MSTORE POP DUP2 ADD SWAP1 PUSH2 0x2B4 SWAP2 SWAP1 PUSH2 0x1217 JUMP JUMPDEST ISZERO ISZERO PUSH1 0x1 EQ PUSH2 0x2D5 JUMPI PUSH1 0x40 MLOAD PUSH3 0x461BCD PUSH1 0xE5 SHL DUP2 MSTORE PUSH1 0x4 ADD PUSH2 0x1D1 SWAP1 PUSH2 0x1628 JUMP JUMPDEST PUSH1 0x1 PUSH1 0x1 PUSH1 0xA0 SHL SUB DUP3 AND PUSH1 0x0 SWAP1 DUP2 MSTORE PUSH1 0x3 PUSH1 0x20 SWAP1 DUP2 MSTORE PUSH1 0x40 DUP1 DUP4 KECCAK256 DUP7 DUP5 MSTORE SWAP1 SWAP2 MSTORE SWAP1 KECCAK256 DUP1 SLOAD DUP3 SWAP1 DUP2 LT PUSH2 0x318 JUMPI PUSH4 0x4E487B71 PUSH1 0xE0 SHL PUSH1 0x0 MSTORE PUSH1 0x32 PUSH1 0x4 MSTORE PUSH1 0x24 PUSH1 0x0 REVERT JUMPDEST PUSH1 0x0 SWAP2 DUP3 MSTORE PUSH1 0x20 SWAP1 SWAP2 KECCAK256 PUSH1 0x5 PUSH1 0x6 SWAP1 SWAP3 MUL ADD ADD SLOAD PUSH1 0xFF AND ISZERO PUSH2 0x3B3 JUMPI PUSH1 0x40 MLOAD PUSH3 0x461BCD PUSH1 0xE5 SHL DUP2 MSTORE PUSH1 0x20 PUSH1 0x4 DUP3 ADD MSTORE PUSH1 0x48 PUSH1 0x24 DUP3 ADD MSTORE PUSH32 0xD09FD180D0B8D0B5D0BC20D0B4D0B5D0BDD0B5D0B6D0BDD18BD18520D181D180 PUSH1 0x44 DUP3 ADD MSTORE PUSH32 0xD0B5D0B4D181D182D0B220D183D0B6D0B520D0BFD0BED0B4D182D0B2D0B5D180 PUSH1 0x64 DUP3 ADD MSTORE PUSH8 0xD0B6D0B4D0B5D0BD PUSH1 0xC0 SHL PUSH1 0x84 DUP3 ADD MSTORE PUSH1 0xA4 ADD PUSH2 0x1D1 JUMP JUMPDEST PUSH1 0x1 PUSH1 0x1 PUSH1 0xA0 SHL SUB DUP3 AND PUSH1 0x0 SWAP1 DUP2 MSTORE PUSH1 0x3 PUSH1 0x20 SWAP1 DUP2 MSTORE PUSH1 0x40 DUP1 DUP4 KECCAK256 DUP7 DUP5 MSTORE SWAP1 SWAP2 MSTORE SWAP1 KECCAK256 DUP1 SLOAD PUSH1 0x1 SWAP2 SWAP1 DUP4 SWAP1 DUP2 LT PUSH2 0x3FA JUMPI PUSH4 0x4E487B71 PUSH1 0xE0 SHL PUSH1 0x0 MSTORE PUSH1 0x32 PUSH1 0x4 MSTORE PUSH1 0x24 PUSH1 0x0 REVERT JUMPDEST PUSH1 0x0 SWAP2 DUP3 MSTORE PUSH1 0x20 DUP1 DUP4 KECCAK256 PUSH1 0x6 SWAP3 SWAP1 SWAP3 MUL SWAP1 SWAP2 ADD PUSH1 0x5 ADD DUP1 SLOAD PUSH1 0xFF NOT AND SWAP4 ISZERO ISZERO SWAP4 SWAP1 SWAP4 OR SWAP1 SWAP3 SSTORE PUSH1 0x1 PUSH1 0x1 PUSH1 0xA0 SHL SUB DUP5 AND DUP2 MSTORE PUSH1 0x3 DUP3 MSTORE PUSH1 0x40 DUP1 DUP3 KECCAK256 DUP7 DUP4 MSTORE SWAP1 SWAP3 MSTORE SWAP1 DUP2 KECCAK256 DUP1 SLOAD DUP4 SWAP1 DUP2 LT PUSH2 0x45E JUMPI PUSH4 0x4E487B71 PUSH1 0xE0 SHL PUSH1 0x0 MSTORE PUSH1 0x32 PUSH1 0x4 MSTORE PUSH1 0x24 PUSH1 0x0 REVERT JUMPDEST PUSH1 0x0 SWAP2 DUP3 MSTORE PUSH1 0x20 DUP1 DUP4 KECCAK256 PUSH1 0x3 PUSH1 0x6 SWAP1 SWAP4 MUL ADD SWAP2 SWAP1 SWAP2 ADD SLOAD PUSH1 0x1 PUSH1 0x1 PUSH1 0xA0 SHL SUB AND DUP1 DUP4 MSTORE PUSH1 0x4 DUP3 MSTORE PUSH1 0x40 DUP1 DUP5 KECCAK256 DUP1 SLOAD DUP3 MLOAD DUP2 DUP7 MUL DUP2 ADD DUP7 ADD SWAP1 SWAP4 MSTORE DUP1 DUP4 MSTORE SWAP3 SWAP6 POP SWAP1 SWAP3 SWAP1 SWAP2 SWAP1 DUP5 SWAP1 DUP5 ADD JUMPDEST DUP3 DUP3 LT ISZERO PUSH2 0x523 JUMPI PUSH1 0x0 DUP5 DUP2 MSTORE PUSH1 0x20 SWAP1 DUP2 SWAP1 KECCAK256 PUSH1 0x40 DUP1 MLOAD PUSH1 0xC0 DUP2 ADD DUP3 MSTORE PUSH1 0x6 DUP7 MUL SWAP1 SWAP3 ADD DUP1 SLOAD DUP4 MSTORE PUSH1 0x1 DUP1 DUP3 ADD SLOAD DUP5 DUP7 ADD MSTORE PUSH1 0x2 DUP3 ADD SLOAD PUSH1 0x1 PUSH1 0x1 PUSH1 0xA0 SHL SUB SWAP1 DUP2 AND SWAP4 DUP6 ADD SWAP4 SWAP1 SWAP4 MSTORE PUSH1 0x3 DUP3 ADD SLOAD SWAP1 SWAP3 AND PUSH1 0x60 DUP5 ADD MSTORE PUSH1 0x4 DUP2 ADD SLOAD PUSH1 0x80 DUP5 ADD MSTORE PUSH1 0x5 ADD SLOAD PUSH1 0xFF AND ISZERO ISZERO PUSH1 0xA0 DUP4 ADD MSTORE SWAP1 DUP4 MSTORE SWAP1 SWAP3 ADD SWAP2 ADD PUSH2 0x4A8 JUMP JUMPDEST POP POP POP POP SWAP1 POP PUSH1 0x0 JUMPDEST DUP2 MLOAD DUP2 LT ISZERO PUSH2 0x65B JUMPI DUP6 DUP3 DUP3 DUP2 MLOAD DUP2 LT PUSH2 0x556 JUMPI PUSH4 0x4E487B71 PUSH1 0xE0 SHL PUSH1 0x0 MSTORE PUSH1 0x32 PUSH1 0x4 MSTORE PUSH1 0x24 PUSH1 0x0 REVERT JUMPDEST PUSH1 0x20 MUL PUSH1 0x20 ADD ADD MLOAD PUSH1 0x20 ADD MLOAD EQ DUP1 ISZERO PUSH2 0x5AB JUMPI POP DUP5 PUSH1 0x1 PUSH1 0x1 PUSH1 0xA0 SHL SUB AND DUP3 DUP3 DUP2 MLOAD DUP2 LT PUSH2 0x594 JUMPI PUSH4 0x4E487B71 PUSH1 0xE0 SHL PUSH1 0x0 MSTORE PUSH1 0x32 PUSH1 0x4 MSTORE PUSH1 0x24 PUSH1 0x0 REVERT JUMPDEST PUSH1 0x20 MUL PUSH1 0x20 ADD ADD MLOAD PUSH1 0x40 ADD MLOAD PUSH1 0x1 PUSH1 0x1 PUSH1 0xA0 SHL SUB AND EQ JUMPDEST DUP1 ISZERO PUSH2 0x5E1 JUMPI POP DUP4 DUP3 DUP3 DUP2 MLOAD DUP2 LT PUSH2 0x5D3 JUMPI PUSH4 0x4E487B71 PUSH1 0xE0 SHL PUSH1 0x0 MSTORE PUSH1 0x32 PUSH1 0x4 MSTORE PUSH1 0x24 PUSH1 0x0 REVERT JUMPDEST PUSH1 0x20 MUL PUSH1 0x20 ADD ADD MLOAD PUSH1 0x0 ADD MLOAD EQ JUMPDEST ISZERO PUSH2 0x649 JUMPI PUSH1 0x1 PUSH1 0x1 PUSH1 0xA0 SHL SUB DUP4 AND PUSH1 0x0 SWAP1 DUP2 MSTORE PUSH1 0x4 PUSH1 0x20 MSTORE PUSH1 0x40 SWAP1 KECCAK256 DUP1 SLOAD PUSH1 0x1 SWAP2 SWAP1 DUP4 SWAP1 DUP2 LT PUSH2 0x622 JUMPI PUSH4 0x4E487B71 PUSH1 0xE0 SHL PUSH1 0x0 MSTORE PUSH1 0x32 PUSH1 0x4 MSTORE PUSH1 0x24 PUSH1 0x0 REVERT JUMPDEST PUSH1 0x0 SWAP2 DUP3 MSTORE PUSH1 0x20 SWAP1 SWAP2 KECCAK256 PUSH1 0x6 SWAP1 SWAP2 MUL ADD PUSH1 0x5 ADD DUP1 SLOAD PUSH1 0xFF NOT AND SWAP2 ISZERO ISZERO SWAP2 SWAP1 SWAP2 OR SWAP1 SSTORE PUSH2 0x65B JUMP JUMPDEST DUP1 PUSH2 0x653 DUP2 PUSH2 0x172E JUMP JUMPDEST SWAP2 POP POP PUSH2 0x52C JUMP JUMPDEST POP PUSH1 0x1 SLOAD PUSH1 0x1 PUSH1 0x1 PUSH1 0xA0 SHL SUB DUP6 DUP2 AND PUSH1 0x0 SWAP1 DUP2 MSTORE PUSH1 0x3 PUSH1 0x20 SWAP1 DUP2 MSTORE PUSH1 0x40 DUP1 DUP4 KECCAK256 DUP11 DUP5 MSTORE SWAP1 SWAP2 MSTORE SWAP1 KECCAK256 DUP1 SLOAD SWAP2 SWAP1 SWAP3 AND SWAP2 PUSH4 0x35C70E05 SWAP2 DUP9 SWAP2 DUP9 SWAP2 DUP9 SWAP1 DUP2 LT PUSH2 0x6B2 JUMPI PUSH4 0x4E487B71 PUSH1 0xE0 SHL PUSH1 0x0 MSTORE PUSH1 0x32 PUSH1 0x4 MSTORE PUSH1 0x24 PUSH1 0x0 REVERT JUMPDEST SWAP1 PUSH1 0x0 MSTORE PUSH1 0x20 PUSH1 0x0 KECCAK256 SWAP1 PUSH1 0x6 MUL ADD PUSH1 0x4 ADD SLOAD PUSH1 0x40 MLOAD DUP5 PUSH4 0xFFFFFFFF AND PUSH1 0xE0 SHL DUP2 MSTORE PUSH1 0x4 ADD PUSH2 0x6FC SWAP4 SWAP3 SWAP2 SWAP1 SWAP3 DUP4 MSTORE PUSH1 0x1 PUSH1 0x1 PUSH1 0xA0 SHL SUB SWAP2 SWAP1 SWAP2 AND PUSH1 0x20 DUP4 ADD MSTORE PUSH1 0x40 DUP3 ADD MSTORE PUSH1 0x60 ADD SWAP1 JUMP JUMPDEST PUSH1 0x0 PUSH1 0x40 MLOAD DUP1 DUP4 SUB DUP2 PUSH1 0x0 DUP8 DUP1 EXTCODESIZE ISZERO DUP1 ISZERO PUSH2 0x716 JUMPI PUSH1 0x0 DUP1 REVERT JUMPDEST POP GAS CALL ISZERO DUP1 ISZERO PUSH2 0x72A JUMPI RETURNDATASIZE PUSH1 0x0 DUP1 RETURNDATACOPY RETURNDATASIZE PUSH1 0x0 REVERT JUMPDEST POP POP POP POP POP POP POP POP POP JUMP JUMPDEST PUSH1 0x6 SLOAD PUSH1 0x1 PUSH1 0x1 PUSH1 0xA0 SHL SUB AND CALLER EQ PUSH2 0x75F JUMPI PUSH1 0x40 MLOAD PUSH3 0x461BCD PUSH1 0xE5 SHL DUP2 MSTORE PUSH1 0x4 ADD PUSH2 0x1D1 SWAP1 PUSH2 0x15F8 JUMP JUMPDEST PUSH1 0x2 DUP1 SLOAD PUSH1 0x1 PUSH1 0x1 PUSH1 0xA0 SHL SUB NOT AND PUSH1 0x1 PUSH1 0x1 PUSH1 0xA0 SHL SUB SWAP3 SWAP1 SWAP3 AND SWAP2 SWAP1 SWAP2 OR SWAP1 SSTORE JUMP JUMPDEST PUSH1 0x1 PUSH1 0x1 PUSH1 0xA0 SHL SUB DUP2 AND PUSH1 0x0 SWAP1 DUP2 MSTORE PUSH1 0x5 PUSH1 0x20 SWAP1 DUP2 MSTORE PUSH1 0x40 DUP1 DUP4 KECCAK256 DUP6 DUP5 MSTORE DUP3 MSTORE SWAP2 DUP3 SWAP1 KECCAK256 DUP1 SLOAD DUP4 MLOAD DUP2 DUP5 MUL DUP2 ADD DUP5 ADD SWAP1 SWAP5 MSTORE DUP1 DUP5 MSTORE PUSH1 0x60 SWAP4 SWAP3 DUP4 ADD DUP3 DUP3 DUP1 ISZERO PUSH2 0x7F3 JUMPI PUSH1 0x20 MUL DUP3 ADD SWAP2 SWAP1 PUSH1 0x0 MSTORE PUSH1 0x20 PUSH1 0x0 KECCAK256 SWAP1 JUMPDEST DUP2 SLOAD PUSH1 0x1 PUSH1 0x1 PUSH1 0xA0 SHL SUB AND DUP2 MSTORE PUSH1 0x1 SWAP1 SWAP2 ADD SWAP1 PUSH1 0x20 ADD DUP1 DUP4 GT PUSH2 0x7D5 JUMPI JUMPDEST POP POP POP POP POP SWAP1 POP SWAP3 SWAP2 POP POP JUMP JUMPDEST PUSH1 0x0 SLOAD PUSH1 0x1 PUSH1 0x1 PUSH1 0xA0 SHL SUB AND CALLER EQ PUSH2 0x82A JUMPI PUSH1 0x40 MLOAD PUSH3 0x461BCD PUSH1 0xE5 SHL DUP2 MSTORE PUSH1 0x4 ADD PUSH2 0x1D1 SWAP1 PUSH2 0x15F8 JUMP JUMPDEST PUSH1 0x1 PUSH1 0x1 PUSH1 0xA0 SHL SUB DUP2 AND PUSH1 0x0 SWAP1 DUP2 MSTORE PUSH1 0x3 PUSH1 0x20 SWAP1 DUP2 MSTORE PUSH1 0x40 DUP1 DUP4 KECCAK256 DUP6 DUP5 MSTORE DUP3 MSTORE DUP1 DUP4 KECCAK256 DUP1 SLOAD DUP3 MLOAD DUP2 DUP6 MUL DUP2 ADD DUP6 ADD SWAP1 SWAP4 MSTORE DUP1 DUP4 MSTORE SWAP2 SWAP3 SWAP1 SWAP2 SWAP1 DUP5 SWAP1 DUP5 ADD JUMPDEST DUP3 DUP3 LT ISZERO PUSH2 0x8E3 JUMPI PUSH1 0x0 DUP5 DUP2 MSTORE PUSH1 0x20 SWAP1 DUP2 SWAP1 KECCAK256 PUSH1 0x40 DUP1 MLOAD PUSH1 0xC0 DUP2 ADD DUP3 MSTORE PUSH1 0x6 DUP7 MUL SWAP1 SWAP3 ADD DUP1 SLOAD DUP4 MSTORE PUSH1 0x1 DUP1 DUP3 ADD SLOAD DUP5 DUP7 ADD MSTORE PUSH1 0x2 DUP3 ADD SLOAD PUSH1 0x1 PUSH1 0x1 PUSH1 0xA0 SHL SUB SWAP1 DUP2 AND SWAP4 DUP6 ADD SWAP4 SWAP1 SWAP4 MSTORE PUSH1 0x3 DUP3 ADD SLOAD SWAP1 SWAP3 AND PUSH1 0x60 DUP5 ADD MSTORE PUSH1 0x4 DUP2 ADD SLOAD PUSH1 0x80 DUP5 ADD MSTORE PUSH1 0x5 ADD SLOAD PUSH1 0xFF AND ISZERO ISZERO PUSH1 0xA0 DUP4 ADD MSTORE SWAP1 DUP4 MSTORE SWAP1 SWAP3 ADD SWAP2 ADD PUSH2 0x868 JUMP JUMPDEST POP POP POP POP SWAP1 POP PUSH1 0x0 JUMPDEST DUP2 MLOAD DUP2 LT ISZERO PUSH2 0xA67 JUMPI PUSH1 0x0 DUP3 DUP3 DUP2 MLOAD DUP2 LT PUSH2 0x917 JUMPI PUSH4 0x4E487B71 PUSH1 0xE0 SHL PUSH1 0x0 MSTORE PUSH1 0x32 PUSH1 0x4 MSTORE PUSH1 0x24 PUSH1 0x0 REVERT JUMPDEST PUSH1 0x20 MUL PUSH1 0x20 ADD ADD MLOAD PUSH1 0x60 ADD MLOAD SWAP1 POP DUP3 DUP3 DUP2 MLOAD DUP2 LT PUSH2 0x945 JUMPI PUSH4 0x4E487B71 PUSH1 0xE0 SHL PUSH1 0x0 MSTORE PUSH1 0x32 PUSH1 0x4 MSTORE PUSH1 0x24 PUSH1 0x0 REVERT JUMPDEST PUSH1 0x20 MUL PUSH1 0x20 ADD ADD MLOAD PUSH1 0xA0 ADD MLOAD ISZERO PUSH2 0xA54 JUMPI PUSH1 0x1 PUSH1 0x0 JUMPDEST PUSH1 0x1 PUSH1 0x1 PUSH1 0xA0 SHL SUB DUP7 AND PUSH1 0x0 SWAP1 DUP2 MSTORE PUSH1 0x5 PUSH1 0x20 SWAP1 DUP2 MSTORE PUSH1 0x40 DUP1 DUP4 KECCAK256 DUP11 DUP5 MSTORE SWAP1 SWAP2 MSTORE SWAP1 KECCAK256 SLOAD DUP2 LT ISZERO PUSH2 0xA04 JUMPI PUSH1 0x1 PUSH1 0x1 PUSH1 0xA0 SHL SUB DUP7 DUP2 AND PUSH1 0x0 SWAP1 DUP2 MSTORE PUSH1 0x5 PUSH1 0x20 SWAP1 DUP2 MSTORE PUSH1 0x40 DUP1 DUP4 KECCAK256 DUP12 DUP5 MSTORE SWAP1 SWAP2 MSTORE SWAP1 KECCAK256 DUP1 SLOAD SWAP2 DUP6 AND SWAP2 DUP4 SWAP1 DUP2 LT PUSH2 0x9CE JUMPI PUSH4 0x4E487B71 PUSH1 0xE0 SHL PUSH1 0x0 MSTORE PUSH1 0x32 PUSH1 0x4 MSTORE PUSH1 0x24 PUSH1 0x0 REVERT JUMPDEST PUSH1 0x0 SWAP2 DUP3 MSTORE PUSH1 0x20 SWAP1 SWAP2 KECCAK256 ADD SLOAD PUSH1 0x1 PUSH1 0x1 PUSH1 0xA0 SHL SUB AND EQ ISZERO PUSH2 0x9F2 JUMPI PUSH1 0x0 SWAP2 POP PUSH2 0xA04 JUMP JUMPDEST DUP1 PUSH2 0x9FC DUP2 PUSH2 0x172E JUMP JUMPDEST SWAP2 POP POP PUSH2 0x95B JUMP JUMPDEST POP DUP1 ISZERO PUSH2 0xA52 JUMPI PUSH1 0x1 PUSH1 0x1 PUSH1 0xA0 SHL SUB DUP6 DUP2 AND PUSH1 0x0 SWAP1 DUP2 MSTORE PUSH1 0x5 PUSH1 0x20 SWAP1 DUP2 MSTORE PUSH1 0x40 DUP1 DUP4 KECCAK256 DUP11 DUP5 MSTORE DUP3 MSTORE DUP3 KECCAK256 DUP1 SLOAD PUSH1 0x1 DUP2 ADD DUP3 SSTORE SWAP1 DUP4 MSTORE SWAP2 KECCAK256 ADD DUP1 SLOAD PUSH1 0x1 PUSH1 0x1 PUSH1 0xA0 SHL SUB NOT AND SWAP2 DUP5 AND SWAP2 SWAP1 SWAP2 OR SWAP1 SSTORE JUMPDEST POP JUMPDEST POP DUP1 PUSH2 0xA5F DUP2 PUSH2 0x172E JUMP JUMPDEST SWAP2 POP POP PUSH2 0x8EC JUMP JUMPDEST POP POP POP POP JUMP JUMPDEST PUSH1 0x1 PUSH1 0x1 PUSH1 0xA0 SHL SUB DUP2 AND PUSH1 0x0 SWAP1 DUP2 MSTORE PUSH1 0x4 PUSH1 0x20 SWAP1 DUP2 MSTORE PUSH1 0x40 DUP1 DUP4 KECCAK256 DUP1 SLOAD DUP3 MLOAD DUP2 DUP6 MUL DUP2 ADD DUP6 ADD SWAP1 SWAP4 MSTORE DUP1 DUP4 MSTORE PUSH1 0x60 SWAP5 SWAP4 DUP5 SWAP1 DUP5 ADD JUMPDEST DUP3 DUP3 LT ISZERO PUSH2 0xB1D JUMPI PUSH1 0x0 DUP5 DUP2 MSTORE PUSH1 0x20 SWAP1 DUP2 SWAP1 KECCAK256 PUSH1 0x40 DUP1 MLOAD PUSH1 0xC0 DUP2 ADD DUP3 MSTORE PUSH1 0x6 DUP7 MUL SWAP1 SWAP3 ADD DUP1 SLOAD DUP4 MSTORE PUSH1 0x1 DUP1 DUP3 ADD SLOAD DUP5 DUP7 ADD MSTORE PUSH1 0x2 DUP3 ADD SLOAD PUSH1 0x1 PUSH1 0x1 PUSH1 0xA0 SHL SUB SWAP1 DUP2 AND SWAP4 DUP6 ADD SWAP4 SWAP1 SWAP4 MSTORE PUSH1 0x3 DUP3 ADD SLOAD SWAP1 SWAP3 AND PUSH1 0x60 DUP5 ADD MSTORE PUSH1 0x4 DUP2 ADD SLOAD PUSH1 0x80 DUP5 ADD MSTORE PUSH1 0x5 ADD SLOAD PUSH1 0xFF AND ISZERO ISZERO PUSH1 0xA0 DUP4 ADD MSTORE SWAP1 DUP4 MSTORE SWAP1 SWAP3 ADD SWAP2 ADD PUSH2 0xAA2 JUMP JUMPDEST POP POP POP POP SWAP1 POP PUSH1 0x0 DUP2 MLOAD PUSH8 0xFFFFFFFFFFFFFFFF DUP2 GT ISZERO PUSH2 0xB4D JUMPI PUSH4 0x4E487B71 PUSH1 0xE0 SHL PUSH1 0x0 MSTORE PUSH1 0x41 PUSH1 0x4 MSTORE PUSH1 0x24 PUSH1 0x0 REVERT JUMPDEST PUSH1 0x40 MLOAD SWAP1 DUP1 DUP3 MSTORE DUP1 PUSH1 0x20 MUL PUSH1 0x20 ADD DUP3 ADD PUSH1 0x40 MSTORE DUP1 ISZERO PUSH2 0xB86 JUMPI DUP2 PUSH1 0x20 ADD JUMPDEST PUSH2 0xB73 PUSH2 0x109C JUMP JUMPDEST DUP2 MSTORE PUSH1 0x20 ADD SWAP1 PUSH1 0x1 SWAP1 SUB SWAP1 DUP2 PUSH2 0xB6B JUMPI SWAP1 POP JUMPDEST POP SWAP1 POP PUSH1 0x0 JUMPDEST DUP3 MLOAD DUP2 LT ISZERO PUSH2 0xCA5 JUMPI PUSH2 0xB9D PUSH2 0x109C JUMP JUMPDEST DUP4 DUP3 DUP2 MLOAD DUP2 LT PUSH2 0xBBD JUMPI PUSH4 0x4E487B71 PUSH1 0xE0 SHL PUSH1 0x0 MSTORE PUSH1 0x32 PUSH1 0x4 MSTORE PUSH1 0x24 PUSH1 0x0 REVERT JUMPDEST PUSH1 0x20 SWAP1 DUP2 MUL SWAP2 SWAP1 SWAP2 ADD DUP2 ADD MLOAD DUP1 DUP4 MSTORE PUSH1 0x1 SLOAD SWAP2 DUP2 ADD MLOAD PUSH1 0x40 SWAP2 DUP3 ADD MLOAD SWAP2 MLOAD PUSH4 0x3595070F PUSH1 0xE2 SHL DUP2 MSTORE PUSH1 0x4 DUP2 ADD SWAP2 SWAP1 SWAP2 MSTORE PUSH1 0x1 PUSH1 0x1 PUSH1 0xA0 SHL SUB SWAP2 DUP3 AND PUSH1 0x24 DUP3 ADD MSTORE SWAP2 AND SWAP1 PUSH4 0xD6541C3C SWAP1 PUSH1 0x44 ADD PUSH1 0x0 PUSH1 0x40 MLOAD DUP1 DUP4 SUB DUP2 DUP7 DUP1 EXTCODESIZE ISZERO DUP1 ISZERO PUSH2 0xC21 JUMPI PUSH1 0x0 DUP1 REVERT JUMPDEST POP GAS STATICCALL ISZERO DUP1 ISZERO PUSH2 0xC35 JUMPI RETURNDATASIZE PUSH1 0x0 DUP1 RETURNDATACOPY RETURNDATASIZE PUSH1 0x0 REVERT JUMPDEST POP POP POP POP PUSH1 0x40 MLOAD RETURNDATASIZE PUSH1 0x0 DUP3 RETURNDATACOPY PUSH1 0x1F RETURNDATASIZE SWAP1 DUP2 ADD PUSH1 0x1F NOT AND DUP3 ADD PUSH1 0x40 MSTORE PUSH2 0xC5D SWAP2 SWAP1 DUP2 ADD SWAP1 PUSH2 0x1237 JUMP JUMPDEST DUP2 PUSH1 0x20 ADD DUP2 SWAP1 MSTORE POP DUP1 DUP4 DUP4 DUP2 MLOAD DUP2 LT PUSH2 0xC86 JUMPI PUSH4 0x4E487B71 PUSH1 0xE0 SHL PUSH1 0x0 MSTORE PUSH1 0x32 PUSH1 0x4 MSTORE PUSH1 0x24 PUSH1 0x0 REVERT JUMPDEST PUSH1 0x20 MUL PUSH1 0x20 ADD ADD DUP2 SWAP1 MSTORE POP POP DUP1 DUP1 PUSH2 0xC9D SWAP1 PUSH2 0x172E JUMP JUMPDEST SWAP2 POP POP PUSH2 0xB8C JUMP JUMPDEST POP SWAP2 POP POP JUMPDEST SWAP2 SWAP1 POP JUMP JUMPDEST PUSH1 0x1 PUSH1 0x1 PUSH1 0xA0 SHL SUB DUP2 AND PUSH1 0x0 SWAP1 DUP2 MSTORE PUSH1 0x3 PUSH1 0x20 SWAP1 DUP2 MSTORE PUSH1 0x40 DUP1 DUP4 KECCAK256 DUP6 DUP5 MSTORE DUP3 MSTORE DUP1 DUP4 KECCAK256 DUP1 SLOAD DUP3 MLOAD DUP2 DUP6 MUL DUP2 ADD DUP6 ADD SWAP1 SWAP4 MSTORE DUP1 DUP4 MSTORE PUSH1 0x60 SWAP5 SWAP3 SWAP4 SWAP2 SWAP3 SWAP1 SWAP2 DUP5 ADD JUMPDEST DUP3 DUP3 LT ISZERO PUSH2 0xD6A JUMPI PUSH1 0x0 DUP5 DUP2 MSTORE PUSH1 0x20 SWAP1 DUP2 SWAP1 KECCAK256 PUSH1 0x40 DUP1 MLOAD PUSH1 0xC0 DUP2 ADD DUP3 MSTORE PUSH1 0x6 DUP7 MUL SWAP1 SWAP3 ADD DUP1 SLOAD DUP4 MSTORE PUSH1 0x1 DUP1 DUP3 ADD SLOAD DUP5 DUP7 ADD MSTORE PUSH1 0x2 DUP3 ADD SLOAD PUSH1 0x1 PUSH1 0x1 PUSH1 0xA0 SHL SUB SWAP1 DUP2 AND SWAP4 DUP6 ADD SWAP4 SWAP1 SWAP4 MSTORE PUSH1 0x3 DUP3 ADD SLOAD SWAP1 SWAP3 AND PUSH1 0x60 DUP5 ADD MSTORE PUSH1 0x4 DUP2 ADD SLOAD PUSH1 0x80 DUP5 ADD MSTORE PUSH1 0x5 ADD SLOAD PUSH1 0xFF AND ISZERO ISZERO PUSH1 0xA0 DUP4 ADD MSTORE SWAP1 DUP4 MSTORE SWAP1 SWAP3 ADD SWAP2 ADD PUSH2 0xCEF JUMP JUMPDEST POP POP POP POP SWAP1 POP SWAP3 SWAP2 POP POP JUMP JUMPDEST PUSH1 0x1 SLOAD PUSH1 0x40 MLOAD PUSH4 0x47064EC5 PUSH1 0xE0 SHL DUP2 MSTORE PUSH1 0x4 DUP2 ADD DUP6 SWAP1 MSTORE PUSH1 0x1 PUSH1 0x1 PUSH1 0xA0 SHL SUB DUP5 DUP2 AND PUSH1 0x24 DUP4 ADD MSTORE SWAP1 SWAP2 AND SWAP1 PUSH4 0x47064EC5 SWAP1 PUSH1 0x44 ADD PUSH1 0x20 PUSH1 0x40 MLOAD DUP1 DUP4 SUB DUP2 DUP7 DUP1 EXTCODESIZE ISZERO DUP1 ISZERO PUSH2 0xDC2 JUMPI PUSH1 0x0 DUP1 REVERT JUMPDEST POP GAS STATICCALL ISZERO DUP1 ISZERO PUSH2 0xDD6 JUMPI RETURNDATASIZE PUSH1 0x0 DUP1 RETURNDATACOPY RETURNDATASIZE PUSH1 0x0 REVERT JUMPDEST POP POP POP POP PUSH1 0x40 MLOAD RETURNDATASIZE PUSH1 0x1F NOT PUSH1 0x1F DUP3 ADD AND DUP3 ADD DUP1 PUSH1 0x40 MSTORE POP DUP2 ADD SWAP1 PUSH2 0xDFA SWAP2 SWAP1 PUSH2 0x1217 JUMP JUMPDEST ISZERO ISZERO PUSH1 0x1 EQ PUSH2 0xE1B JUMPI PUSH1 0x40 MLOAD PUSH3 0x461BCD PUSH1 0xE5 SHL DUP2 MSTORE PUSH1 0x4 ADD PUSH2 0x1D1 SWAP1 PUSH2 0x1628 JUMP JUMPDEST PUSH1 0x1 PUSH1 0x1 PUSH1 0xA0 SHL SUB DUP3 AND PUSH1 0x0 SWAP1 DUP2 MSTORE PUSH1 0x3 PUSH1 0x20 SWAP1 DUP2 MSTORE PUSH1 0x40 DUP1 DUP4 KECCAK256 DUP7 DUP5 MSTORE SWAP1 SWAP2 MSTORE SWAP1 KECCAK256 SLOAD PUSH2 0xE47 PUSH2 0x1124 JUMP JUMPDEST DUP2 DUP2 PUSH1 0x0 ADD DUP2 DUP2 MSTORE POP POP DUP5 DUP2 PUSH1 0x20 ADD DUP2 DUP2 MSTORE POP POP DUP4 DUP2 PUSH1 0x40 ADD SWAP1 PUSH1 0x1 PUSH1 0x1 PUSH1 0xA0 SHL SUB AND SWAP1 DUP2 PUSH1 0x1 PUSH1 0x1 PUSH1 0xA0 SHL SUB AND DUP2 MSTORE POP POP CALLER DUP2 PUSH1 0x60 ADD SWAP1 PUSH1 0x1 PUSH1 0x1 PUSH1 0xA0 SHL SUB AND SWAP1 DUP2 PUSH1 0x1 PUSH1 0x1 PUSH1 0xA0 SHL SUB AND DUP2 MSTORE POP POP DUP3 DUP2 PUSH1 0x80 ADD DUP2 DUP2 MSTORE POP POP PUSH1 0x0 DUP2 PUSH1 0xA0 ADD SWAP1 ISZERO ISZERO SWAP1 DUP2 ISZERO ISZERO DUP2 MSTORE POP POP PUSH1 0x3 PUSH1 0x0 DUP6 PUSH1 0x1 PUSH1 0x1 PUSH1 0xA0 SHL SUB AND PUSH1 0x1 PUSH1 0x1 PUSH1 0xA0 SHL SUB AND DUP2 MSTORE PUSH1 0x20 ADD SWAP1 DUP2 MSTORE PUSH1 0x20 ADD PUSH1 0x0 KECCAK256 PUSH1 0x0 DUP7 DUP2 MSTORE PUSH1 0x20 ADD SWAP1 DUP2 MSTORE PUSH1 0x20 ADD PUSH1 0x0 KECCAK256 DUP2 SWAP1 DUP1 PUSH1 0x1 DUP2 SLOAD ADD DUP1 DUP3 SSTORE DUP1 SWAP2 POP POP PUSH1 0x1 SWAP1 SUB SWAP1 PUSH1 0x0 MSTORE PUSH1 0x20 PUSH1 0x0 KECCAK256 SWAP1 PUSH1 0x6 MUL ADD PUSH1 0x0 SWAP1 SWAP2 SWAP1 SWAP2 SWAP1 SWAP2 POP PUSH1 0x0 DUP3 ADD MLOAD DUP2 PUSH1 0x0 ADD SSTORE PUSH1 0x20 DUP3 ADD MLOAD DUP2 PUSH1 0x1 ADD SSTORE PUSH1 0x40 DUP3 ADD MLOAD DUP2 PUSH1 0x2 ADD PUSH1 0x0 PUSH2 0x100 EXP DUP2 SLOAD DUP2 PUSH1 0x1 PUSH1 0x1 PUSH1 0xA0 SHL SUB MUL NOT AND SWAP1 DUP4 PUSH1 0x1 PUSH1 0x1 PUSH1 0xA0 SHL SUB AND MUL OR SWAP1 SSTORE POP PUSH1 0x60 DUP3 ADD MLOAD DUP2 PUSH1 0x3 ADD PUSH1 0x0 PUSH2 0x100 EXP DUP2 SLOAD DUP2 PUSH1 0x1 PUSH1 0x1 PUSH1 0xA0 SHL SUB MUL NOT AND SWAP1 DUP4 PUSH1 0x1 PUSH1 0x1 PUSH1 0xA0 SHL SUB AND MUL OR SWAP1 SSTORE POP PUSH1 0x80 DUP3 ADD MLOAD DUP2 PUSH1 0x4 ADD SSTORE PUSH1 0xA0 DUP3 ADD MLOAD DUP2 PUSH1 0x5 ADD PUSH1 0x0 PUSH2 0x100 EXP DUP2 SLOAD DUP2 PUSH1 0xFF MUL NOT AND SWAP1 DUP4 ISZERO ISZERO MUL OR SWAP1 SSTORE POP POP POP PUSH1 0x4 PUSH1 0x0 CALLER PUSH1 0x1 PUSH1 0x1 PUSH1 0xA0 SHL SUB AND PUSH1 0x1 PUSH1 0x1 PUSH1 0xA0 SHL SUB AND DUP2 MSTORE PUSH1 0x20 ADD SWAP1 DUP2 MSTORE PUSH1 0x20 ADD PUSH1 0x0 KECCAK256 DUP2 SWAP1 DUP1 PUSH1 0x1 DUP2 SLOAD ADD DUP1 DUP3 SSTORE DUP1 SWAP2 POP POP PUSH1 0x1 SWAP1 SUB SWAP1 PUSH1 0x0 MSTORE PUSH1 0x20 PUSH1 0x0 KECCAK256 SWAP1 PUSH1 0x6 MUL ADD PUSH1 0x0 SWAP1 SWAP2 SWAP1 SWAP2 SWAP1 SWAP2 POP PUSH1 0x0 DUP3 ADD MLOAD DUP2 PUSH1 0x0 ADD SSTORE PUSH1 0x20 DUP3 ADD MLOAD DUP2 PUSH1 0x1 ADD SSTORE PUSH1 0x40 DUP3 ADD MLOAD DUP2 PUSH1 0x2 ADD PUSH1 0x0 PUSH2 0x100 EXP DUP2 SLOAD DUP2 PUSH1 0x1 PUSH1 0x1 PUSH1 0xA0 SHL SUB MUL NOT AND SWAP1 DUP4 PUSH1 0x1 PUSH1 0x1 PUSH1 0xA0 SHL SUB AND MUL OR SWAP1 SSTORE POP PUSH1 0x60 DUP3 ADD MLOAD DUP2 PUSH1 0x3 ADD PUSH1 0x0 PUSH2 0x100 EXP DUP2 SLOAD DUP2 PUSH1 0x1 PUSH1 0x1 PUSH1 0xA0 SHL SUB MUL NOT AND SWAP1 DUP4 PUSH1 0x1 PUSH1 0x1 PUSH1 0xA0 SHL SUB AND MUL OR SWAP1 SSTORE POP PUSH1 0x80 DUP3 ADD MLOAD DUP2 PUSH1 0x4 ADD SSTORE PUSH1 0xA0 DUP3 ADD MLOAD DUP2 PUSH1 0x5 ADD PUSH1 0x0 PUSH2 0x100 EXP DUP2 SLOAD DUP2 PUSH1 0xFF MUL NOT AND SWAP1 DUP4 ISZERO ISZERO MUL OR SWAP1 SSTORE POP POP POP POP POP POP POP POP JUMP JUMPDEST PUSH1 0x40 MLOAD DUP1 PUSH1 0x40 ADD PUSH1 0x40 MSTORE DUP1 PUSH2 0x10AF PUSH2 0x1124 JUMP JUMPDEST DUP2 MSTORE PUSH1 0x20 ADD PUSH2 0x111F PUSH1 0x40 MLOAD DUP1 PUSH2 0x140 ADD PUSH1 0x40 MSTORE DUP1 PUSH1 0x0 DUP2 MSTORE PUSH1 0x20 ADD PUSH1 0x0 PUSH1 0x1 PUSH1 0x1 PUSH1 0xA0 SHL SUB AND DUP2 MSTORE PUSH1 0x20 ADD PUSH1 0x0 PUSH1 0x1 PUSH1 0x1 PUSH1 0xA0 SHL SUB AND DUP2 MSTORE PUSH1 0x20 ADD PUSH1 0x60 DUP2 MSTORE PUSH1 0x20 ADD PUSH1 0x0 PUSH1 0xFF AND DUP2 MSTORE PUSH1 0x20 ADD PUSH1 0x60 DUP2 MSTORE PUSH1 0x20 ADD PUSH1 0x60 DUP2 MSTORE PUSH1 0x20 ADD PUSH1 0x0 DUP2 MSTORE PUSH1 0x20 ADD PUSH1 0x0 DUP2 MSTORE PUSH1 0x20 ADD PUSH1 0x0 DUP2 MSTORE POP SWAP1 JUMP JUMPDEST SWAP1 MSTORE SWAP1 JUMP JUMPDEST PUSH1 0x40 MLOAD DUP1 PUSH1 0xC0 ADD PUSH1 0x40 MSTORE DUP1 PUSH1 0x0 DUP2 MSTORE PUSH1 0x20 ADD PUSH1 0x0 DUP2 MSTORE PUSH1 0x20 ADD PUSH1 0x0 PUSH1 0x1 PUSH1 0x1 PUSH1 0xA0 SHL SUB AND DUP2 MSTORE PUSH1 0x20 ADD PUSH1 0x0 PUSH1 0x1 PUSH1 0x1 PUSH1 0xA0 SHL SUB AND DUP2 MSTORE PUSH1 0x20 ADD PUSH1 0x0 DUP2 MSTORE PUSH1 0x20 ADD PUSH1 0x0 ISZERO ISZERO DUP2 MSTORE POP SWAP1 JUMP JUMPDEST DUP1 MLOAD PUSH2 0xCAA DUP2 PUSH2 0x176B JUMP JUMPDEST PUSH1 0x0 DUP3 PUSH1 0x1F DUP4 ADD SLT PUSH2 0x1189 JUMPI DUP1 DUP2 REVERT JUMPDEST DUP2 MLOAD PUSH8 0xFFFFFFFFFFFFFFFF DUP2 GT ISZERO PUSH2 0x11A3 JUMPI PUSH2 0x11A3 PUSH2 0x1755 JUMP JUMPDEST PUSH2 0x11B6 PUSH1 0x1F DUP3 ADD PUSH1 0x1F NOT AND PUSH1 0x20 ADD PUSH2 0x16D1 JUMP JUMPDEST DUP2 DUP2 MSTORE DUP5 PUSH1 0x20 DUP4 DUP7 ADD ADD GT ISZERO PUSH2 0x11CA JUMPI DUP3 DUP4 REVERT JUMPDEST PUSH2 0x11DB DUP3 PUSH1 0x20 DUP4 ADD PUSH1 0x20 DUP8 ADD PUSH2 0x1702 JUMP JUMPDEST SWAP5 SWAP4 POP POP POP POP JUMP JUMPDEST DUP1 MLOAD PUSH1 0xFF DUP2 AND DUP2 EQ PUSH2 0xCAA JUMPI PUSH1 0x0 DUP1 REVERT JUMPDEST PUSH1 0x0 PUSH1 0x20 DUP3 DUP5 SUB SLT ISZERO PUSH2 0x1205 JUMPI DUP1 DUP2 REVERT JUMPDEST DUP2 CALLDATALOAD PUSH2 0x1210 DUP2 PUSH2 0x176B JUMP JUMPDEST SWAP4 SWAP3 POP POP POP JUMP JUMPDEST PUSH1 0x0 PUSH1 0x20 DUP3 DUP5 SUB SLT ISZERO PUSH2 0x1228 JUMPI DUP1 DUP2 REVERT JUMPDEST DUP2 MLOAD DUP1 ISZERO ISZERO DUP2 EQ PUSH2 0x1210 JUMPI DUP2 DUP3 REVERT JUMPDEST PUSH1 0x0 PUSH1 0x20 DUP3 DUP5 SUB SLT ISZERO PUSH2 0x1248 JUMPI DUP1 DUP2 REVERT JUMPDEST DUP2 MLOAD PUSH8 0xFFFFFFFFFFFFFFFF DUP1 DUP3 GT ISZERO PUSH2 0x125F JUMPI DUP3 DUP4 REVERT JUMPDEST DUP2 DUP5 ADD SWAP2 POP PUSH2 0x140 DUP1 DUP4 DUP8 SUB SLT ISZERO PUSH2 0x1275 JUMPI DUP4 DUP5 REVERT JUMPDEST PUSH2 0x127E DUP2 PUSH2 0x16D1 JUMP JUMPDEST SWAP1 POP DUP3 MLOAD DUP2 MSTORE PUSH2 0x1290 PUSH1 0x20 DUP5 ADD PUSH2 0x116E JUMP JUMPDEST PUSH1 0x20 DUP3 ADD MSTORE PUSH2 0x12A1 PUSH1 0x40 DUP5 ADD PUSH2 0x116E JUMP JUMPDEST PUSH1 0x40 DUP3 ADD MSTORE PUSH1 0x60 DUP4 ADD MLOAD DUP3 DUP2 GT ISZERO PUSH2 0x12B7 JUMPI DUP5 DUP6 REVERT JUMPDEST PUSH2 0x12C3 DUP8 DUP3 DUP7 ADD PUSH2 0x1179 JUMP JUMPDEST PUSH1 0x60 DUP4 ADD MSTORE POP PUSH2 0x12D5 PUSH1 0x80 DUP5 ADD PUSH2 0x11E3 JUMP JUMPDEST PUSH1 0x80 DUP3 ADD MSTORE PUSH1 0xA0 DUP4 ADD MLOAD DUP3 DUP2 GT ISZERO PUSH2 0x12EB JUMPI DUP5 DUP6 REVERT JUMPDEST PUSH2 0x12F7 DUP8 DUP3 DUP7 ADD PUSH2 0x1179 JUMP JUMPDEST PUSH1 0xA0 DUP4 ADD MSTORE POP PUSH1 0xC0 DUP4 ADD MLOAD DUP3 DUP2 GT ISZERO PUSH2 0x130E JUMPI DUP5 DUP6 REVERT JUMPDEST PUSH2 0x131A DUP8 DUP3 DUP7 ADD PUSH2 0x1179 JUMP JUMPDEST PUSH1 0xC0 DUP4 ADD MSTORE POP PUSH1 0xE0 DUP4 DUP2 ADD MLOAD SWAP1 DUP3 ADD MSTORE PUSH2 0x100 DUP1 DUP5 ADD MLOAD SWAP1 DUP3 ADD MSTORE PUSH2 0x120 SWAP3 DUP4 ADD MLOAD SWAP3 DUP2 ADD SWAP3 SWAP1 SWAP3 MSTORE POP SWAP4 SWAP3 POP POP POP JUMP JUMPDEST PUSH1 0x0 DUP1 PUSH1 0x40 DUP4 DUP6 SUB SLT ISZERO PUSH2 0x135D JUMPI DUP1 DUP2 REVERT JUMPDEST DUP3 CALLDATALOAD SWAP2 POP PUSH1 0x20 DUP4 ADD CALLDATALOAD PUSH2 0x136F DUP2 PUSH2 0x176B JUMP JUMPDEST DUP1 SWAP2 POP POP SWAP3 POP SWAP3 SWAP1 POP JUMP JUMPDEST PUSH1 0x0 DUP1 PUSH1 0x0 PUSH1 0x60 DUP5 DUP7 SUB SLT ISZERO PUSH2 0x138E JUMPI DUP1 DUP2 REVERT JUMPDEST DUP4 CALLDATALOAD SWAP3 POP PUSH1 0x20 DUP5 ADD CALLDATALOAD PUSH2 0x13A0 DUP2 PUSH2 0x176B JUMP JUMPDEST SWAP3 SWAP6 SWAP3 SWAP5 POP POP POP PUSH1 0x40 SWAP2 SWAP1 SWAP2 ADD CALLDATALOAD SWAP1 JUMP JUMPDEST PUSH1 0x0 DUP2 MLOAD DUP1 DUP5 MSTORE PUSH2 0x13C9 DUP2 PUSH1 0x20 DUP7 ADD PUSH1 0x20 DUP7 ADD PUSH2 0x1702 JUMP JUMPDEST PUSH1 0x1F ADD PUSH1 0x1F NOT AND SWAP3 SWAP1 SWAP3 ADD PUSH1 0x20 ADD SWAP3 SWAP2 POP POP JUMP JUMPDEST DUP1 MLOAD DUP3 MSTORE PUSH1 0x20 DUP2 ADD MLOAD PUSH1 0x20 DUP4 ADD MSTORE PUSH1 0x40 DUP2 ADD MLOAD PUSH1 0x1 DUP1 PUSH1 0xA0 SHL SUB DUP1 DUP3 AND PUSH1 0x40 DUP6 ADD MSTORE DUP1 PUSH1 0x60 DUP5 ADD MLOAD AND PUSH1 0x60 DUP6 ADD MSTORE POP POP PUSH1 0x80 DUP2 ADD MLOAD PUSH1 0x80 DUP4 ADD MSTORE PUSH1 0xA0 DUP2 ADD MLOAD ISZERO ISZERO PUSH1 0xA0 DUP4 ADD MSTORE POP POP JUMP JUMPDEST PUSH1 0x20 DUP1 DUP3 MSTORE DUP3 MLOAD DUP3 DUP3 ADD DUP2 SWAP1 MSTORE PUSH1 0x0 SWAP2 SWAP1 DUP5 DUP3 ADD SWAP1 PUSH1 0x40 DUP6 ADD SWAP1 DUP5 JUMPDEST DUP2 DUP2 LT ISZERO PUSH2 0x1468 JUMPI DUP4 MLOAD PUSH1 0x1 PUSH1 0x1 PUSH1 0xA0 SHL SUB AND DUP4 MSTORE SWAP3 DUP5 ADD SWAP3 SWAP2 DUP5 ADD SWAP2 PUSH1 0x1 ADD PUSH2 0x1443 JUMP JUMPDEST POP SWAP1 SWAP7 SWAP6 POP POP POP POP POP POP JUMP JUMPDEST PUSH1 0x20 DUP1 DUP3 MSTORE DUP3 MLOAD DUP3 DUP3 ADD DUP2 SWAP1 MSTORE PUSH1 0x0 SWAP2 SWAP1 PUSH1 0x40 SWAP1 DUP2 DUP6 ADD SWAP1 DUP1 DUP5 MUL DUP7 ADD DUP4 ADD DUP8 DUP6 ADD DUP7 JUMPDEST DUP4 DUP2 LT ISZERO PUSH2 0x15A8 JUMPI PUSH1 0x3F NOT DUP10 DUP5 SUB ADD DUP6 MSTORE DUP2 MLOAD PUSH1 0xE0 PUSH2 0x14B8 DUP6 DUP4 MLOAD PUSH2 0x13DD JUMP JUMPDEST DUP9 DUP3 ADD MLOAD SWAP2 POP PUSH1 0xC0 DUP2 DUP2 DUP8 ADD MSTORE DUP3 MLOAD DUP3 DUP8 ADD MSTORE DUP10 DUP4 ADD MLOAD PUSH2 0x100 PUSH2 0x14E6 DUP2 DUP10 ADD DUP4 PUSH1 0x1 PUSH1 0x1 PUSH1 0xA0 SHL SUB AND SWAP1 MSTORE JUMP JUMPDEST DUP11 DUP6 ADD MLOAD SWAP2 POP PUSH2 0x120 PUSH2 0x1503 DUP2 DUP11 ADD DUP5 PUSH1 0x1 PUSH1 0x1 PUSH1 0xA0 SHL SUB AND SWAP1 MSTORE JUMP JUMPDEST PUSH1 0x60 DUP7 ADD MLOAD PUSH2 0x140 DUP11 DUP2 ADD MSTORE SWAP3 POP PUSH2 0x151F PUSH2 0x220 DUP11 ADD DUP5 PUSH2 0x13B1 JUMP JUMPDEST SWAP3 POP PUSH1 0x80 DUP7 ADD MLOAD PUSH2 0x1536 PUSH2 0x160 DUP12 ADD DUP3 PUSH1 0xFF AND SWAP1 MSTORE JUMP JUMPDEST POP PUSH1 0xA0 DUP7 ADD MLOAD PUSH1 0xDF NOT DUP1 DUP12 DUP7 SUB ADD PUSH2 0x180 DUP13 ADD MSTORE PUSH2 0x1554 DUP6 DUP4 PUSH2 0x13B1 JUMP JUMPDEST SWAP5 POP DUP6 DUP9 ADD MLOAD SWAP6 POP DUP1 DUP12 DUP7 SUB ADD PUSH2 0x1A0 DUP13 ADD MSTORE POP POP PUSH2 0x1573 DUP4 DUP6 PUSH2 0x13B1 JUMP JUMPDEST SWAP5 DUP7 ADD MLOAD PUSH2 0x1C0 DUP11 ADD MSTORE SWAP1 DUP6 ADD MLOAD PUSH2 0x1E0 DUP10 ADD MSTORE SWAP1 SWAP4 ADD MLOAD PUSH2 0x200 SWAP1 SWAP7 ADD SWAP6 SWAP1 SWAP6 MSTORE SWAP6 DUP9 ADD SWAP6 SWAP4 POP POP SWAP1 DUP7 ADD SWAP1 PUSH1 0x1 ADD PUSH2 0x1498 JUMP JUMPDEST POP SWAP1 SWAP9 SWAP8 POP POP POP POP POP POP POP POP JUMP JUMPDEST PUSH1 0x20 DUP1 DUP3 MSTORE DUP3 MLOAD DUP3 DUP3 ADD DUP2 SWAP1 MSTORE PUSH1 0x0 SWAP2 SWAP1 DUP5 DUP3 ADD SWAP1 PUSH1 0x40 DUP6 ADD SWAP1 DUP5 JUMPDEST DUP2 DUP2 LT ISZERO PUSH2 0x1468 JUMPI PUSH2 0x15E5 DUP4 DUP6 MLOAD PUSH2 0x13DD JUMP JUMPDEST SWAP3 DUP5 ADD SWAP3 PUSH1 0xC0 SWAP3 SWAP1 SWAP3 ADD SWAP2 PUSH1 0x1 ADD PUSH2 0x15D2 JUMP JUMPDEST PUSH1 0x20 DUP1 DUP3 MSTORE PUSH1 0x16 SWAP1 DUP3 ADD MSTORE PUSH22 0xD09DD0B5D18220D0B4D0BED181D182D183D0BFD0B021 PUSH1 0x50 SHL PUSH1 0x40 DUP3 ADD MSTORE PUSH1 0x60 ADD SWAP1 JUMP JUMPDEST PUSH1 0x20 DUP1 DUP3 MSTORE PUSH1 0x78 SWAP1 DUP3 ADD MSTORE PUSH32 0xD09FD180D0BED0B2D0B5D180D18CD182D0B52C20D181D183D189D0B5D181D182 PUSH1 0x40 DUP3 ADD MSTORE PUSH32 0xD0B2D183D0B5D18220D0BBD0B820D0BFD180D0BED0B5D0BAD18220D0B820D0BE PUSH1 0x60 DUP3 ADD MSTORE PUSH32 0xD182D0BAD180D18BD18220D0BBD0B820D0BED0BD20D0B4D0BBD18F20D0B8D0BD PUSH1 0x80 DUP3 ADD MSTORE PUSH32 0xD0B2D0B5D181D182D0B8D180D0BED0B2D0B0D0BDD0B8D18F0000000000000000 PUSH1 0xA0 DUP3 ADD MSTORE PUSH1 0xC0 ADD SWAP1 JUMP JUMPDEST PUSH1 0x40 MLOAD PUSH1 0x1F DUP3 ADD PUSH1 0x1F NOT AND DUP2 ADD PUSH8 0xFFFFFFFFFFFFFFFF DUP2 GT DUP3 DUP3 LT OR ISZERO PUSH2 0x16FA JUMPI PUSH2 0x16FA PUSH2 0x1755 JUMP JUMPDEST PUSH1 0x40 MSTORE SWAP2 SWAP1 POP JUMP JUMPDEST PUSH1 0x0 JUMPDEST DUP4 DUP2 LT ISZERO PUSH2 0x171D JUMPI DUP2 DUP2 ADD MLOAD DUP4 DUP3 ADD MSTORE PUSH1 0x20 ADD PUSH2 0x1705 JUMP JUMPDEST DUP4 DUP2 GT ISZERO PUSH2 0xA67 JUMPI POP POP PUSH1 0x0 SWAP2 ADD MSTORE JUMP JUMPDEST PUSH1 0x0 PUSH1 0x0 NOT DUP3 EQ ISZERO PUSH2 0x174E JUMPI PUSH4 0x4E487B71 PUSH1 0xE0 SHL DUP2 MSTORE PUSH1 0x11 PUSH1 0x4 MSTORE PUSH1 0x24 DUP2 REVERT JUMPDEST POP PUSH1 0x1 ADD SWAP1 JUMP JUMPDEST PUSH4 0x4E487B71 PUSH1 0xE0 SHL PUSH1 0x0 MSTORE PUSH1 0x41 PUSH1 0x4 MSTORE PUSH1 0x24 PUSH1 0x0 REVERT JUMPDEST PUSH1 0x1 PUSH1 0x1 PUSH1 0xA0 SHL SUB DUP2 AND DUP2 EQ PUSH2 0x1780 JUMPI PUSH1 0x0 DUP1 REVERT JUMPDEST POP JUMP INVALID LOG2 PUSH5 0x6970667358 0x22 SLT KECCAK256 0xB9 0xAA 0xBD SAR 0xC5 0xC 0xC3 0xBF 0xD3 0xD0 0xE8 PUSH26 0x50FE41E555158C769B19E01EBDE84C4E7C650BAA64736F6C6343 STOP ADDMOD MUL STOP CALLER ",
  "sha1": "52c4d368641e7143a2d6e4e7721e0994c2141a03",
  "source": "// SPDX-License-Identifier: GPL-3.0\n\npragma solidity >=0.8.2 <0.9.0;\n\n/**\n * @title InvestEATProject\n * @dev Store & retrieve value in a variable\n * @custom:dev-run-script ./scripts/deploy_with_ethers.ts\n */\n\nimport \"interfaces/IInvestContract.sol\";\nimport \"interfaces/IProjectContract.sol\";\n\n\ncontract InvestContract is IInvestContract {\n\n    modifier onlyOwner() { // модификатор доступа только для владельца\n        require(msg.sender == owner, unicode\"Нет доступа!\");\n        _;\n    }\n\n    modifier onlyProject() { // модификатор доступа только для смарт-контракта \"Проект\"\n        require(msg.sender == addrProjectContract, unicode\"Нет доступа!\");\n        _;\n    }\n\n    modifier onlyPay() { // модификатор доступа только для смарт-контракта \"Выплата\"\n        require(msg.sender == addrPayContract, unicode\"Нет доступа!\");\n        _;\n    }\n\n    struct Invest {\n        uint256 investNumber; // уникальный номер инвестиции\n        uint256 projectNumber; // номер проекта\n        address author; // адрес автора проекта\n        address investor; // адрес инвестора\n        uint256 investAmount; // сумма инвестиции\n        bool moneyAcceptFlg; // флаг принятия денежных средств\n    }\n\n    struct GetInvest {\n        Invest invest;\n        IProjectContract.Project project;\n    }\n\n    address public addrProjectContract; // адрес смарт-контракта \"Проект\"\n    IProjectContract projectContract; // смарт-контракт \"Проект\"\n    address public addrPayContract; // адрес смарт-контракта \"Выплата\"\n\n    // Адрес автора проекта => (номер проекта => Инвестиции)\n    mapping(address => mapping(uint256 => Invest[])) investsProjects; // все инвестиции в проекты \n\n    // адрес инвестора => Инвестиции\n    mapping(address => Invest[]) investsInvestor; // все инвестиции инвестора\n\n    // Адрес автора проекта => (номер проекта => массив инвесторов)\n    mapping(address => mapping(uint256 => address[])) projectInvestors;\n\n    address owner; // владелец контракта (некоторые функции доступны только владельцу)\n    \n    constructor() {\n        owner = msg.sender; // назначение владельца контракта\n    }\n\n    // функция смены адреса смарт-контракта \"Проект\"\n    function changeProjectContract(address _addrProjectContract) external onlyOwner { \n        addrProjectContract = _addrProjectContract;\n        projectContract = IProjectContract(_addrProjectContract);\n    }\n\n    // функция смены адреса смарт-контракта \"Выплата\"\n    function changePayContract(address _addrPayContract) external onlyOwner { \n        addrPayContract = _addrPayContract;\n    }  \n\n    // Инвестирование\n    function invest(uint256 projectNumber, address author, uint256 investAmount) public { // Функция создания инвестиции при создании проекта\n        // Проверяем, что проект существует и открыт\n        require(projectContract.checkProjectExistsAndOpen(projectNumber, author) == true, unicode\"Проверьте, существует ли проект и открыт ли он для инвестирования\");\n        \n        // Получаем номер инвестиции\n        uint256 investNumber = investsProjects[author][projectNumber].length;\n\n        // Создаем инвестицию\n        Invest memory inv;\n        inv.investNumber = investNumber; // Номер инвестиции\n        inv.projectNumber = projectNumber; // Номер проекта\n        inv.author = author; // Адрес автора проекта\n        inv.investor = msg.sender; // Адрес инвестора\n        inv.investAmount = investAmount; // Сумма инвестиций\n        inv.moneyAcceptFlg = false; // Флаг принятия денежных средств\n\n        // Добавляем инвестицию\n        investsProjects[author][projectNumber].push(inv);\n        investsInvestor[msg.sender].push(inv);\n    }\n\n    // Получение всех инвестиций в проект\n    function getAllInvestsIntoProject(uint256 projectNumber, address author) external view returns(Invest[] memory) {\n        return investsProjects[author][projectNumber];\n    }\n\n    // Получение всех инвестиций инвестора\n    function getAllInvestorInvests(address investor) external view returns(GetInvest[] memory) {\n        Invest[] memory _investsInvestor = investsInvestor[investor];\n        GetInvest[] memory returnedValue = new GetInvest[](_investsInvestor.length);\n        \n        for (uint256 i = 0; i < _investsInvestor.length; i++) {\n            GetInvest memory getInvest;\n            getInvest.invest = _investsInvestor[i];\n            getInvest.project = projectContract.getProject(getInvest.invest.projectNumber, getInvest.invest.author);\n            returnedValue[i] = getInvest;\n        }\n\n        return returnedValue;\n    }\n\n    // Подтверждение приема денежных средств\n    function assignGetMoney(uint256 projectNumber, address author, uint256 investNumber) external onlyOwner {\n        // Проверяем, что проект сущетсвует и открыт\n        require(projectContract.checkProjectExistsAndOpen(projectNumber, author) == true, unicode\"Проверьте, существует ли проект и открыт ли он для инвестирования\");\n        \n        // Проверяем, что денежные средства еще не принимались\n        require(investsProjects[author][projectNumber][investNumber].moneyAcceptFlg == false, unicode\"Прием денежных средств уже подтвержден\");\n\n        // Меняем статус в инвестициях\n        investsProjects[author][projectNumber][investNumber].moneyAcceptFlg = true;\n\n        // Меняем статус в инвестициях инвестора\n        address investor = investsProjects[author][projectNumber][investNumber].investor;\n        Invest[] memory _investsInvestor = investsInvestor[investor];\n\n        for (uint256 i = 0; i < _investsInvestor.length; i++) {\n            if (_investsInvestor[i].projectNumber == projectNumber && _investsInvestor[i].author == author &&\n                _investsInvestor[i].investNumber == investNumber) {\n                    investsInvestor[investor][i].moneyAcceptFlg = true;\n                    break;\n                }\n        }\n        \n        // Изменяем сумму инвестиций в проекте\n        projectContract.changeInvestAmount(projectNumber, author, investsProjects[author][projectNumber][investNumber].investAmount);\n    }\n\n    // Отбираем всех инвесторов проекта\n    function summaryProjectInvestors(uint256 projectNumber, address author) external onlyProject override{\n        // Получаем все инвестиции в проект\n        Invest[] memory invests = investsProjects[author][projectNumber];\n\n        // Проходимся по всем инвестициям и добавляем инвесторов\n        for (uint256 i = 0; i < invests.length; i++) {\n            address investor = invests[i].investor;\n            if (invests[i].moneyAcceptFlg) {\n                bool flg = true;\n                for (uint256 j = 0; j < projectInvestors[author][projectNumber].length; j++) {\n                    if (projectInvestors[author][projectNumber][j] == investor) {\n                        flg = false;\n                        break;\n                    }\n                }\n                if (flg) {\n                    projectInvestors[author][projectNumber].push(investor);\n                }\n            }\n        }\n    }\n\n    // Получение всех инвесторов проекта\n    function getProjectInvestors(uint256 projectNumber, address author) external view override returns(address[] memory){\n        return projectInvestors[author][projectNumber];\n    }\n    \n}",
  "sourcePath": "contracts/InvestContract.sol",
  "type": "contract"
}