{
  "abi": [
    {
      "inputs": [],
      "stateMutability": "nonpayable",
      "type": "constructor"
    },
    {
      "inputs": [],
      "name": "addrInvestContract",
      "outputs": [
        {
          "internalType": "address",
          "name": "",
          "type": "address"
        }
      ],
      "stateMutability": "view",
      "type": "function"
    },
    {
      "inputs": [],
      "name": "addrProjectContract",
      "outputs": [
        {
          "internalType": "address",
          "name": "",
          "type": "address"
        }
      ],
      "stateMutability": "view",
      "type": "function"
    },
    {
      "inputs": [
        {
          "internalType": "address",
          "name": "_addrInvestContract",
          "type": "address"
        }
      ],
      "name": "changeInvestContract",
      "outputs": [],
      "stateMutability": "nonpayable",
      "type": "function"
    },
    {
      "inputs": [
        {
          "internalType": "address",
          "name": "_addrProjectContract",
          "type": "address"
        }
      ],
      "name": "changeProjectContract",
      "outputs": [],
      "stateMutability": "nonpayable",
      "type": "function"
    },
    {
      "inputs": [
        {
          "internalType": "uint256",
          "name": "projectNumber",
          "type": "uint256"
        },
        {
          "internalType": "address",
          "name": "author",
          "type": "address"
        },
        {
          "internalType": "uint256",
          "name": "payNumber",
          "type": "uint256"
        }
      ],
      "name": "closeVote",
      "outputs": [],
      "stateMutability": "nonpayable",
      "type": "function"
    },
    {
      "inputs": [],
      "name": "getAddressProjectContract",
      "outputs": [
        {
          "internalType": "address",
          "name": "",
          "type": "address"
        }
      ],
      "stateMutability": "view",
      "type": "function"
    },
    {
      "inputs": [
        {
          "internalType": "uint256",
          "name": "projectNumber",
          "type": "uint256"
        },
        {
          "internalType": "address",
          "name": "author",
          "type": "address"
        }
      ],
      "name": "getAllPaysProject",
      "outputs": [
        {
          "components": [
            {
              "internalType": "uint256",
              "name": "payNumber",
              "type": "uint256"
            },
            {
              "internalType": "uint256",
              "name": "projectNumber",
              "type": "uint256"
            },
            {
              "internalType": "address",
              "name": "author",
              "type": "address"
            },
            {
              "internalType": "uint256",
              "name": "amountPay",
              "type": "uint256"
            },
            {
              "internalType": "string",
              "name": "message",
              "type": "string"
            },
            {
              "internalType": "uint8",
              "name": "status",
              "type": "uint8"
            }
          ],
          "internalType": "struct PayContract.Pay[]",
          "name": "",
          "type": "tuple[]"
        }
      ],
      "stateMutability": "view",
      "type": "function"
    },
    {
      "inputs": [
        {
          "internalType": "uint256",
          "name": "projectNumber",
          "type": "uint256"
        },
        {
          "internalType": "address",
          "name": "author",
          "type": "address"
        },
        {
          "internalType": "uint256",
          "name": "payNumber",
          "type": "uint256"
        }
      ],
      "name": "getPayVote",
      "outputs": [
        {
          "components": [
            {
              "internalType": "uint256",
              "name": "payNumber",
              "type": "uint256"
            },
            {
              "internalType": "uint256",
              "name": "projectNumber",
              "type": "uint256"
            },
            {
              "internalType": "address",
              "name": "author",
              "type": "address"
            },
            {
              "internalType": "bool",
              "name": "flg",
              "type": "bool"
            },
            {
              "internalType": "address[]",
              "name": "requireInvestors",
              "type": "address[]"
            },
            {
              "internalType": "address[]",
              "name": "yesInvestors",
              "type": "address[]"
            },
            {
              "internalType": "address[]",
              "name": "noInvestors",
              "type": "address[]"
            },
            {
              "internalType": "address[]",
              "name": "voteInvestors",
              "type": "address[]"
            }
          ],
          "internalType": "struct PayContract.Vote",
          "name": "",
          "type": "tuple"
        }
      ],
      "stateMutability": "view",
      "type": "function"
    },
    {
      "inputs": [
        {
          "internalType": "uint256",
          "name": "projectNumber",
          "type": "uint256"
        },
        {
          "internalType": "address",
          "name": "author",
          "type": "address"
        },
        {
          "internalType": "uint256",
          "name": "payNumber",
          "type": "uint256"
        }
      ],
      "name": "pay",
      "outputs": [],
      "stateMutability": "nonpayable",
      "type": "function"
    },
    {
      "inputs": [
        {
          "internalType": "address",
          "name": "",
          "type": "address"
        },
        {
          "internalType": "uint256",
          "name": "",
          "type": "uint256"
        },
        {
          "internalType": "uint256",
          "name": "",
          "type": "uint256"
        }
      ],
      "name": "payments",
      "outputs": [
        {
          "internalType": "uint256",
          "name": "payNumber",
          "type": "uint256"
        },
        {
          "internalType": "uint256",
          "name": "projectNumber",
          "type": "uint256"
        },
        {
          "internalType": "address",
          "name": "author",
          "type": "address"
        },
        {
          "internalType": "uint256",
          "name": "amountPay",
          "type": "uint256"
        },
        {
          "internalType": "string",
          "name": "message",
          "type": "string"
        },
        {
          "internalType": "uint8",
          "name": "status",
          "type": "uint8"
        }
      ],
      "stateMutability": "view",
      "type": "function"
    },
    {
      "inputs": [
        {
          "internalType": "uint256",
          "name": "projectNumber",
          "type": "uint256"
        },
        {
          "internalType": "uint256",
          "name": "amountPay",
          "type": "uint256"
        },
        {
          "internalType": "string",
          "name": "message",
          "type": "string"
        }
      ],
      "name": "requestPay",
      "outputs": [],
      "stateMutability": "nonpayable",
      "type": "function"
    },
    {
      "inputs": [
        {
          "internalType": "uint256",
          "name": "projectNumber",
          "type": "uint256"
        },
        {
          "internalType": "address",
          "name": "author",
          "type": "address"
        },
        {
          "internalType": "uint256",
          "name": "payNumber",
          "type": "uint256"
        },
        {
          "internalType": "bool",
          "name": "flg",
          "type": "bool"
        }
      ],
      "name": "vote",
      "outputs": [],
      "stateMutability": "nonpayable",
      "type": "function"
    },
    {
      "inputs": [
        {
          "internalType": "address",
          "name": "",
          "type": "address"
        },
        {
          "internalType": "uint256",
          "name": "",
          "type": "uint256"
        },
        {
          "internalType": "uint256",
          "name": "",
          "type": "uint256"
        }
      ],
      "name": "votes",
      "outputs": [
        {
          "internalType": "uint256",
          "name": "payNumber",
          "type": "uint256"
        },
        {
          "internalType": "uint256",
          "name": "projectNumber",
          "type": "uint256"
        },
        {
          "internalType": "address",
          "name": "author",
          "type": "address"
        },
        {
          "internalType": "bool",
          "name": "flg",
          "type": "bool"
        }
      ],
      "stateMutability": "view",
      "type": "function"
    }
  ],
  "bytecode": "608060405234801561001057600080fd5b50600080546001600160a01b031916331790556121aa806100326000396000f3fe608060405234801561001057600080fd5b50600436106100cf5760003560e01c8063741f2aaa1161008c57806393461bcf1161006657806393461bcf146101c1578063aa4bbb23146101e1578063b925cecd146101f2578063c57cb8fd14610275576100cf565b8063741f2aaa14610188578063800fd0181461019b5780638227260c146101ae576100cf565b8063012afdcb146100d45780630313766f146100e9578063201174cd146100fc5780632c7c7bdd1461012a57806348228474146101555780635957ee2b14610168575b600080fd5b6100e76100e2366004611d57565b610288565b005b6100e76100f7366004611cd7565b610706565b61010f61010a366004611ba5565b61092b565b60405161012196959493929190612023565b60405180910390f35b60055461013d906001600160a01b031681565b6040516001600160a01b039091168152602001610121565b6100e7610163366004611b82565b610a24565b61017b610176366004611cd7565b610a7a565b6040516101219190611f65565b6100e7610196366004611cd7565b610c72565b60035461013d906001600160a01b031681565b6100e76101bc366004611b82565b6110b9565b6101d46101cf366004611ca8565b61110f565b6040516101219190611e88565b6003546001600160a01b031661013d565b610244610200366004611ba5565b60026020818152600094855260408086208252938552838520905290835291208054600182015491909201546001600160a01b03811690600160a01b900460ff1684565b604051610121949392919093845260208401929092526001600160a01b031660408301521515606082015260800190565b6100e7610283366004611d0e565b611264565b600480546040516303ba683b60e51b81529182018590523360248301819052916001600160a01b039091169063774d07609060440160206040518083038186803b1580156102d557600080fd5b505afa1580156102e9573d6000803e3d6000fd5b505050506040513d601f19601f8201168201806040525081019061030d9190611c8c565b15156001146103af5760405162461bcd60e51b815260206004820152605c60248201527fd09fd180d0bed0b2d0b5d180d18cd182d0b52c20d181d183d189d0b5d181d18260448201527fd0b2d183d0b5d18220d0bbd0b820d0bfd180d0bed0b5d0bad18220d0b820d0b360648201527fd0bed182d0bed0b220d0ba20d0b2d18bd0bfd0bbd0b0d182d0b0d0bc00000000608482015260a4015b60405180910390fd5b60048054604051630cd3a51f60e01b81529182018690526001600160a01b038381166024840152604483018690521690630cd3a51f9060640160206040518083038186803b15801561040057600080fd5b505afa158015610414573d6000803e3d6000fd5b505050506040513d601f19601f820116820180604052508101906104389190611c8c565b15156001146104995760405162461bcd60e51b815260206004820152602760248201527fd09dd0b5d0b4d0bed181d182d0b0d182d0bed187d0bdd0be20d181d180d0b5d06044820152665a68c0e8c1685960c91b60648201526084016103a6565b6001600160a01b0381811660008181526001602081815260408084208a85528083528185208054835160c0810185528181528086018e8152948101988952606081018d8152608082018d815260a083018a905294875282880184559288529685902087516006830290910190815593519584019590955595516002830180546001600160a01b03191691909816179096559351600385015593518051919492938493909261054d9260048501920190611a44565b5060a091909101516005909101805460ff191660ff909216919091179055610573611ac8565b828152602081018790526001600160a01b0384811660408084018290526000606085015260065490516354bd1fc360e11b8152600481018b905260248101929092529091169063a97a3f869060440160006040518083038186803b1580156105da57600080fd5b505afa1580156105ee573d6000803e3d6000fd5b505050506040513d6000823e601f3d908101601f191682016040526106169190810190611bd9565b608082019081526001600160a01b0380861660009081526002602081815260408084208d855282528084208985528252928390208651815581870151600182015592860151918301805460608801511515600160a01b0260ff60a01b19949096166001600160a01b03199091161792909216939093179055915180518493926106a6926003850192910190611b18565b5060a082015180516106c2916004840191602090910190611b18565b5060c082015180516106de916005840191602090910190611b18565b5060e082015180516106fa916006840191602090910190611b18565b50505050505050505050565b6000546001600160a01b031633146107305760405162461bcd60e51b81526004016103a690611f35565b6001600160a01b0382166000908152600160209081526040808320868452909152902080548290811061077357634e487b7160e01b600052603260045260246000fd5b600091825260209091206005600690920201015460ff166001146107e55760405162461bcd60e51b8152602060048201526024808201527fd092d18bd0bfd0bbd0b0d182d0b020d0bdd0b520d0bed0b4d0bed0b1d180d0b56044820152630d0bdd0b60e41b60648201526084016103a6565b6004546001600160a01b03838116600090815260016020908152604080832088845290915290208054919092169163e960b19d91869186918690811061083b57634e487b7160e01b600052603260045260246000fd5b9060005260206000209060060201600301546040518463ffffffff1660e01b8152600401610885939291909283526001600160a01b03919091166020830152604082015260600190565b600060405180830381600087803b15801561089f57600080fd5b505af11580156108b3573d6000803e3d6000fd5b5050506001600160a01b03831660009081526001602090815260408083208784529091529020805460039250839081106108fd57634e487b7160e01b600052603260045260246000fd5b906000526020600020906006020160050160006101000a81548160ff021916908360ff160217905550505050565b6001602052826000526040600020602052816000526040600020818154811061095357600080fd5b6000918252602090912060069091020180546001820154600283015460038401546004850180549498509296506001600160a01b0390911694509291610998906120cc565b80601f01602080910402602001604051908101604052809291908181526020018280546109c4906120cc565b8015610a115780601f106109e657610100808354040283529160200191610a11565b820191906000526020600020905b8154815290600101906020018083116109f457829003601f168201915b5050506005909301549192505060ff1686565b6000546001600160a01b03163314610a4e5760405162461bcd60e51b81526004016103a690611f35565b600380546001600160a01b039092166001600160a01b0319928316811790915560048054909216179055565b610a82611ac8565b6001600160a01b0383811660009081526002602081815260408084208985528252808420878552825292839020835161010081018552815481526001820154818401529281015494851683850152600160a01b90940460ff161515606083015260038401805484518184028101840190955280855292949360808601939092830182828015610b3a57602002820191906000526020600020905b81546001600160a01b03168152600190910190602001808311610b1c575b5050505050815260200160048201805480602002602001604051908101604052809291908181526020018280548015610b9c57602002820191906000526020600020905b81546001600160a01b03168152600190910190602001808311610b7e575b5050505050815260200160058201805480602002602001604051908101604052809291908181526020018280548015610bfe57602002820191906000526020600020905b81546001600160a01b03168152600190910190602001808311610be0575b5050505050815260200160068201805480602002602001604051908101604052809291908181526020018280548015610c6057602002820191906000526020600020905b81546001600160a01b03168152600190910190602001808311610c42575b50505050508152505090509392505050565b6000546001600160a01b03163314610c9c5760405162461bcd60e51b81526004016103a690611f35565b6001600160a01b03821660009081526001602090815260408083208684529091529020805482908110610cdf57634e487b7160e01b600052603260045260246000fd5b600091825260209091206005600690920201015460ff1615610d555760405162461bcd60e51b815260206004820152602960248201527fd093d0bed0bbd0bed181d0bed0b2d0b0d0bdd0b8d0b520d0b7d0b0d0b2d0b5d16044820152684068c4685ae85ee85f60b91b60648201526084016103a6565b6001600160a01b03828116600090815260026020818152604080842088855282528084208685528252808420815161010081018352815481526001820154818501529381015495861684830152600160a01b90950460ff1615156060840152600385018054825181850281018501909352808352949593946080860193830182828015610e0b57602002820191906000526020600020905b81546001600160a01b03168152600190910190602001808311610ded575b5050505050815260200160048201805480602002602001604051908101604052809291908181526020018280548015610e6d57602002820191906000526020600020905b81546001600160a01b03168152600190910190602001808311610e4f575b5050505050815260200160058201805480602002602001604051908101604052809291908181526020018280548015610ecf57602002820191906000526020600020905b81546001600160a01b03168152600190910190602001808311610eb1575b5050505050815260200160068201805480602002602001604051908101604052809291908181526020018280548015610f3157602002820191906000526020600020905b81546001600160a01b03168152600190910190602001808311610f13575b5050509190925250505060808101515160e08201515160a08301515160c08401515193945091929091906000610f6784866120b5565b905081610f74828561209d565b111561101a576001600160a01b03881660008181526002602081815260408084208e855282528084208c85528252808420909201805460ff60a01b1916600160a01b17905592825260018084528183208d84529093529020805489908110610fec57634e487b7160e01b600052603260045260246000fd5b906000526020600020906006020160050160006101000a81548160ff021916908360ff1602179055506110ae565b6001600160a01b03881660008181526002602081815260408084208e855282528084208c855282528084208301805460ff60a01b19169055938352600181528383208d8452905291902080548990811061108457634e487b7160e01b600052603260045260246000fd5b906000526020600020906006020160050160006101000a81548160ff021916908360ff1602179055505b505050505050505050565b6000546001600160a01b031633146110e35760405162461bcd60e51b81526004016103a690611f35565b600580546001600160a01b039092166001600160a01b0319928316811790915560068054909216179055565b6001600160a01b03811660009081526001602090815260408083208584528252808320805482518185028101850190935280835260609492939192909184015b828210156112585760008481526020908190206040805160c081018252600686029092018054835260018101549383019390935260028301546001600160a01b031690820152600382015460608201526004820180549192916080840191906111b7906120cc565b80601f01602080910402602001604051908101604052809291908181526020018280546111e3906120cc565b80156112305780601f1061120557610100808354040283529160200191611230565b820191906000526020600020905b81548152906001019060200180831161121357829003601f168201915b50505091835250506005919091015460ff16602091820152908252600192909201910161114f565b50505050905092915050565b6001600160a01b038316600090815260016020908152604080832087845290915290208054839081106112a757634e487b7160e01b600052603260045260246000fd5b600091825260209091206005600690920201015460ff161561131b5760405162461bcd60e51b815260206004820152602760248201527fd093d0bed0bbd0bed181d0b2d0b0d0bdd0b8d0b520d0b7d0b0d0b2d0b5d180d160448201526644685ae85ee85f60c91b60648201526084016103a6565b6001600160a01b03838116600090815260026020818152604080842089855282528084208785528252808420815161010081018352815481526001820154818501529381015495861684830152600160a01b90950460ff161515606084015260038501805482518185028101850190935280835233969360808601939291908301828280156113d357602002820191906000526020600020905b81546001600160a01b031681526001909101906020018083116113b5575b505050505081526020016004820180548060200260200160405190810160405280929190818152602001828054801561143557602002820191906000526020600020905b81546001600160a01b03168152600190910190602001808311611417575b505050505081526020016005820180548060200260200160405190810160405280929190818152602001828054801561149757602002820191906000526020600020905b81546001600160a01b03168152600190910190602001808311611479575b50505050508152602001600682018054806020026020016040519081016040528092919081815260200182805480156114f957602002820191906000526020600020905b81546001600160a01b031681526001909101906020018083116114db575b5050509190925250505060808101519091506000805b825181101561157057846001600160a01b031683828151811061154257634e487b7160e01b600052603260045260246000fd5b60200260200101516001600160a01b0316141561155e57600191505b8061156881612107565b91505061150f565b506001905060005b8360e001515181101561162457846001600160a01b03168460e0015182815181106115b357634e487b7160e01b600052603260045260246000fd5b60200260200101516001600160a01b031614156116125760405162461bcd60e51b815260206004820181905260248201527fd092d18b20d183d0b6d0b520d0b3d0bed0bbd0bed181d0bed0b2d0b0d0bbd0b860448201526064016103a6565b8061161c81612107565b915050611578565b506001600160a01b0387811660009081526002602090815260408083208c845282528083208a845282528220600601805460018082018355918452919092200180546001600160a01b0319169287169290921790915585151514156116d9576001600160a01b0387811660009081526002602090815260408083208c845282528083208a845282528220600401805460018101825590835291200180546001600160a01b03191691861691909117905561172b565b6001600160a01b0387811660009081526002602090815260408083208c845282528083208a845282528220600501805460018101825590835291200180546001600160a01b0319169186169190911790555b6001600160a01b0387811660009081526002602081815260408084208d855282528084208b8552825292839020835161010081018552815481526001820154818401529281015494851683850152600160a01b90940460ff1615156060830152600384018054845181840281018401909552808552929493608086019390928301828280156117e357602002820191906000526020600020905b81546001600160a01b031681526001909101906020018083116117c5575b505050505081526020016004820180548060200260200160405190810160405280929190818152602001828054801561184557602002820191906000526020600020905b81546001600160a01b03168152600190910190602001808311611827575b50505050508152602001600582018054806020026020016040519081016040528092919081815260200182805480156118a757602002820191906000526020600020905b81546001600160a01b03168152600190910190602001808311611889575b505050505081526020016006820180548060200260200160405190810160405280929190818152602001828054801561190957602002820191906000526020600020905b81546001600160a01b031681526001909101906020018083116118eb575b5050509190925250505060808101515160e08201515160a08301515160c0840151519396509192909190600061193f84866120b5565b905061194b818361209d565b831115611a35576001600260008e6001600160a01b03166001600160a01b0316815260200190815260200160002060008f815260200190815260200160002060008d815260200190815260200160002060020160146101000a81548160ff02191690831515021790555060018060008e6001600160a01b03166001600160a01b0316815260200190815260200160002060008f81526020019081526020016000208c81548110611a0b57634e487b7160e01b600052603260045260246000fd5b906000526020600020906006020160050160006101000a81548160ff021916908360ff1602179055505b50505050505050505050505050565b828054611a50906120cc565b90600052602060002090601f016020900481019282611a725760008555611ab8565b82601f10611a8b57805160ff1916838001178555611ab8565b82800160010185558215611ab8579182015b82811115611ab8578251825591602001919060010190611a9d565b50611ac4929150611b6d565b5090565b604051806101000160405280600081526020016000815260200160006001600160a01b03168152602001600015158152602001606081526020016060815260200160608152602001606081525090565b828054828255906000526020600020908101928215611ab8579160200282015b82811115611ab857825182546001600160a01b0319166001600160a01b03909116178255602090920191600190910190611b38565b5b80821115611ac45760008155600101611b6e565b600060208284031215611b93578081fd5b8135611b9e8161214e565b9392505050565b600080600060608486031215611bb9578182fd5b8335611bc48161214e565b95602085013595506040909401359392505050565b60006020808385031215611beb578182fd5b825167ffffffffffffffff80821115611c02578384fd5b818501915085601f830112611c15578384fd5b815181811115611c2757611c27612138565b8381029150611c3784830161206c565b8181528481019084860184860187018a1015611c51578788fd5b8795505b83861015611c7f5780519450611c6a8561214e565b84835260019590950194918601918601611c55565b5098975050505050505050565b600060208284031215611c9d578081fd5b8151611b9e81612166565b60008060408385031215611cba578182fd5b823591506020830135611ccc8161214e565b809150509250929050565b600080600060608486031215611ceb578283fd5b833592506020840135611cfd8161214e565b929592945050506040919091013590565b60008060008060808587031215611d23578081fd5b843593506020850135611d358161214e565b9250604085013591506060850135611d4c81612166565b939692955090935050565b600080600060608486031215611d6b578283fd5b833592506020808501359250604085013567ffffffffffffffff80821115611d91578384fd5b818701915087601f830112611da4578384fd5b813581811115611db657611db6612138565b611dc8601f8201601f1916850161206c565b91508082528884828501011115611ddd578485fd5b808484018584013784848284010152508093505050509250925092565b6000815180845260208085019450808401835b83811015611e325781516001600160a01b031687529582019590820190600101611e0d565b509495945050505050565b60008151808452815b81811015611e6257602081850181015186830182015201611e46565b81811115611e735782602083870101525b50601f01601f19169290920160200192915050565b60208082528251828201819052600091906040908185019080840286018301878501865b83811015611f2757888303603f190185528151805184528781015188850152868101516001600160a01b0316878501526060808201519085015260808082015160c08287018190529190611f0283880182611e3d565b60a09485015160ff169790940196909652505094870194925090860190600101611eac565b509098975050505050505050565b602080825260169082015275d09dd0b5d18220d0b4d0bed181d182d183d0bfd0b02160501b604082015260600190565b60006020825282516020830152602083015160408301526040830151611f9660608401826001600160a01b03169052565b50606083015180151560808401525060808301516101008060a0850152611fc1610120850183611dfa565b915060a0850151601f19808685030160c0870152611fdf8483611dfa565b935060c08701519150808685030160e0870152611ffc8483611dfa565b935060e08701519150808685030183870152506120198382611dfa565b9695505050505050565b600087825286602083015260018060a01b038616604083015284606083015260c0608083015261205660c0830185611e3d565b905060ff831660a0830152979650505050505050565b604051601f8201601f1916810167ffffffffffffffff8111828210171561209557612095612138565b604052919050565b600082198211156120b0576120b0612122565b500190565b6000828210156120c7576120c7612122565b500390565b6002810460018216806120e057607f821691505b6020821081141561210157634e487b7160e01b600052602260045260246000fd5b50919050565b600060001982141561211b5761211b612122565b5060010190565b634e487b7160e01b600052601160045260246000fd5b634e487b7160e01b600052604160045260246000fd5b6001600160a01b038116811461216357600080fd5b50565b801515811461216357600080fdfea26469706673582212208f626c98b925e4e5b26f79ca638fa9e98ada514792cc710460e142a9d9172d6864736f6c63430008020033",
  "bytecodeSha1": "83837f43119a1a1e9b7bd855d82ae2816e955104",
  "compiler": {
    "evm_version": "istanbul",
    "optimizer": {
      "enabled": true,
      "runs": 200
    },
    "version": "0.8.2+commit.661d1103"
  },
  "contractName": "PayContract",
  "language": "Solidity",
  "natspec": {
    "kind": "dev",
    "methods": {},
    "version": 1
  },
  "opcodes": "PUSH1 0x80 PUSH1 0x40 MSTORE CALLVALUE DUP1 ISZERO PUSH2 0x10 JUMPI PUSH1 0x0 DUP1 REVERT JUMPDEST POP PUSH1 0x4 CALLDATASIZE LT PUSH2 0xCF JUMPI PUSH1 0x0 CALLDATALOAD PUSH1 0xE0 SHR DUP1 PUSH4 0x741F2AAA GT PUSH2 0x8C JUMPI DUP1 PUSH4 0x93461BCF GT PUSH2 0x66 JUMPI DUP1 PUSH4 0x93461BCF EQ PUSH2 0x1C1 JUMPI DUP1 PUSH4 0xAA4BBB23 EQ PUSH2 0x1E1 JUMPI DUP1 PUSH4 0xB925CECD EQ PUSH2 0x1F2 JUMPI DUP1 PUSH4 0xC57CB8FD EQ PUSH2 0x275 JUMPI PUSH2 0xCF JUMP JUMPDEST DUP1 PUSH4 0x741F2AAA EQ PUSH2 0x188 JUMPI DUP1 PUSH4 0x800FD018 EQ PUSH2 0x19B JUMPI DUP1 PUSH4 0x8227260C EQ PUSH2 0x1AE JUMPI PUSH2 0xCF JUMP JUMPDEST DUP1 PUSH4 0x12AFDCB EQ PUSH2 0xD4 JUMPI DUP1 PUSH4 0x313766F EQ PUSH2 0xE9 JUMPI DUP1 PUSH4 0x201174CD EQ PUSH2 0xFC JUMPI DUP1 PUSH4 0x2C7C7BDD EQ PUSH2 0x12A JUMPI DUP1 PUSH4 0x48228474 EQ PUSH2 0x155 JUMPI DUP1 PUSH4 0x5957EE2B EQ PUSH2 0x168 JUMPI JUMPDEST PUSH1 0x0 DUP1 REVERT JUMPDEST PUSH2 0xE7 PUSH2 0xE2 CALLDATASIZE PUSH1 0x4 PUSH2 0x1D57 JUMP JUMPDEST PUSH2 0x288 JUMP JUMPDEST STOP JUMPDEST PUSH2 0xE7 PUSH2 0xF7 CALLDATASIZE PUSH1 0x4 PUSH2 0x1CD7 JUMP JUMPDEST PUSH2 0x706 JUMP JUMPDEST PUSH2 0x10F PUSH2 0x10A CALLDATASIZE PUSH1 0x4 PUSH2 0x1BA5 JUMP JUMPDEST PUSH2 0x92B JUMP JUMPDEST PUSH1 0x40 MLOAD PUSH2 0x121 SWAP7 SWAP6 SWAP5 SWAP4 SWAP3 SWAP2 SWAP1 PUSH2 0x2023 JUMP JUMPDEST PUSH1 0x40 MLOAD DUP1 SWAP2 SUB SWAP1 RETURN JUMPDEST PUSH1 0x5 SLOAD PUSH2 0x13D SWAP1 PUSH1 0x1 PUSH1 0x1 PUSH1 0xA0 SHL SUB AND DUP2 JUMP JUMPDEST PUSH1 0x40 MLOAD PUSH1 0x1 PUSH1 0x1 PUSH1 0xA0 SHL SUB SWAP1 SWAP2 AND DUP2 MSTORE PUSH1 0x20 ADD PUSH2 0x121 JUMP JUMPDEST PUSH2 0xE7 PUSH2 0x163 CALLDATASIZE PUSH1 0x4 PUSH2 0x1B82 JUMP JUMPDEST PUSH2 0xA24 JUMP JUMPDEST PUSH2 0x17B PUSH2 0x176 CALLDATASIZE PUSH1 0x4 PUSH2 0x1CD7 JUMP JUMPDEST PUSH2 0xA7A JUMP JUMPDEST PUSH1 0x40 MLOAD PUSH2 0x121 SWAP2 SWAP1 PUSH2 0x1F65 JUMP JUMPDEST PUSH2 0xE7 PUSH2 0x196 CALLDATASIZE PUSH1 0x4 PUSH2 0x1CD7 JUMP JUMPDEST PUSH2 0xC72 JUMP JUMPDEST PUSH1 0x3 SLOAD PUSH2 0x13D SWAP1 PUSH1 0x1 PUSH1 0x1 PUSH1 0xA0 SHL SUB AND DUP2 JUMP JUMPDEST PUSH2 0xE7 PUSH2 0x1BC CALLDATASIZE PUSH1 0x4 PUSH2 0x1B82 JUMP JUMPDEST PUSH2 0x10B9 JUMP JUMPDEST PUSH2 0x1D4 PUSH2 0x1CF CALLDATASIZE PUSH1 0x4 PUSH2 0x1CA8 JUMP JUMPDEST PUSH2 0x110F JUMP JUMPDEST PUSH1 0x40 MLOAD PUSH2 0x121 SWAP2 SWAP1 PUSH2 0x1E88 JUMP JUMPDEST PUSH1 0x3 SLOAD PUSH1 0x1 PUSH1 0x1 PUSH1 0xA0 SHL SUB AND PUSH2 0x13D JUMP JUMPDEST PUSH2 0x244 PUSH2 0x200 CALLDATASIZE PUSH1 0x4 PUSH2 0x1BA5 JUMP JUMPDEST PUSH1 0x2 PUSH1 0x20 DUP2 DUP2 MSTORE PUSH1 0x0 SWAP5 DUP6 MSTORE PUSH1 0x40 DUP1 DUP7 KECCAK256 DUP3 MSTORE SWAP4 DUP6 MSTORE DUP4 DUP6 KECCAK256 SWAP1 MSTORE SWAP1 DUP4 MSTORE SWAP2 KECCAK256 DUP1 SLOAD PUSH1 0x1 DUP3 ADD SLOAD SWAP2 SWAP1 SWAP3 ADD SLOAD PUSH1 0x1 PUSH1 0x1 PUSH1 0xA0 SHL SUB DUP2 AND SWAP1 PUSH1 0x1 PUSH1 0xA0 SHL SWAP1 DIV PUSH1 0xFF AND DUP5 JUMP JUMPDEST PUSH1 0x40 MLOAD PUSH2 0x121 SWAP5 SWAP4 SWAP3 SWAP2 SWAP1 SWAP4 DUP5 MSTORE PUSH1 0x20 DUP5 ADD SWAP3 SWAP1 SWAP3 MSTORE PUSH1 0x1 PUSH1 0x1 PUSH1 0xA0 SHL SUB AND PUSH1 0x40 DUP4 ADD MSTORE ISZERO ISZERO PUSH1 0x60 DUP3 ADD MSTORE PUSH1 0x80 ADD SWAP1 JUMP JUMPDEST PUSH2 0xE7 PUSH2 0x283 CALLDATASIZE PUSH1 0x4 PUSH2 0x1D0E JUMP JUMPDEST PUSH2 0x1264 JUMP JUMPDEST PUSH1 0x4 DUP1 SLOAD PUSH1 0x40 MLOAD PUSH4 0x3BA683B PUSH1 0xE5 SHL DUP2 MSTORE SWAP2 DUP3 ADD DUP6 SWAP1 MSTORE CALLER PUSH1 0x24 DUP4 ADD DUP2 SWAP1 MSTORE SWAP2 PUSH1 0x1 PUSH1 0x1 PUSH1 0xA0 SHL SUB SWAP1 SWAP2 AND SWAP1 PUSH4 0x774D0760 SWAP1 PUSH1 0x44 ADD PUSH1 0x20 PUSH1 0x40 MLOAD DUP1 DUP4 SUB DUP2 DUP7 DUP1 EXTCODESIZE ISZERO DUP1 ISZERO PUSH2 0x2D5 JUMPI PUSH1 0x0 DUP1 REVERT JUMPDEST POP GAS STATICCALL ISZERO DUP1 ISZERO PUSH2 0x2E9 JUMPI RETURNDATASIZE PUSH1 0x0 DUP1 RETURNDATACOPY RETURNDATASIZE PUSH1 0x0 REVERT JUMPDEST POP POP POP POP PUSH1 0x40 MLOAD RETURNDATASIZE PUSH1 0x1F NOT PUSH1 0x1F DUP3 ADD AND DUP3 ADD DUP1 PUSH1 0x40 MSTORE POP DUP2 ADD SWAP1 PUSH2 0x30D SWAP2 SWAP1 PUSH2 0x1C8C JUMP JUMPDEST ISZERO ISZERO PUSH1 0x1 EQ PUSH2 0x3AF JUMPI PUSH1 0x40 MLOAD PUSH3 0x461BCD PUSH1 0xE5 SHL DUP2 MSTORE PUSH1 0x20 PUSH1 0x4 DUP3 ADD MSTORE PUSH1 0x5C PUSH1 0x24 DUP3 ADD MSTORE PUSH32 0xD09FD180D0BED0B2D0B5D180D18CD182D0B52C20D181D183D189D0B5D181D182 PUSH1 0x44 DUP3 ADD MSTORE PUSH32 0xD0B2D183D0B5D18220D0BBD0B820D0BFD180D0BED0B5D0BAD18220D0B820D0B3 PUSH1 0x64 DUP3 ADD MSTORE PUSH32 0xD0BED182D0BED0B220D0BA20D0B2D18BD0BFD0BBD0B0D182D0B0D0BC00000000 PUSH1 0x84 DUP3 ADD MSTORE PUSH1 0xA4 ADD JUMPDEST PUSH1 0x40 MLOAD DUP1 SWAP2 SUB SWAP1 REVERT JUMPDEST PUSH1 0x4 DUP1 SLOAD PUSH1 0x40 MLOAD PUSH4 0xCD3A51F PUSH1 0xE0 SHL DUP2 MSTORE SWAP2 DUP3 ADD DUP7 SWAP1 MSTORE PUSH1 0x1 PUSH1 0x1 PUSH1 0xA0 SHL SUB DUP4 DUP2 AND PUSH1 0x24 DUP5 ADD MSTORE PUSH1 0x44 DUP4 ADD DUP7 SWAP1 MSTORE AND SWAP1 PUSH4 0xCD3A51F SWAP1 PUSH1 0x64 ADD PUSH1 0x20 PUSH1 0x40 MLOAD DUP1 DUP4 SUB DUP2 DUP7 DUP1 EXTCODESIZE ISZERO DUP1 ISZERO PUSH2 0x400 JUMPI PUSH1 0x0 DUP1 REVERT JUMPDEST POP GAS STATICCALL ISZERO DUP1 ISZERO PUSH2 0x414 JUMPI RETURNDATASIZE PUSH1 0x0 DUP1 RETURNDATACOPY RETURNDATASIZE PUSH1 0x0 REVERT JUMPDEST POP POP POP POP PUSH1 0x40 MLOAD RETURNDATASIZE PUSH1 0x1F NOT PUSH1 0x1F DUP3 ADD AND DUP3 ADD DUP1 PUSH1 0x40 MSTORE POP DUP2 ADD SWAP1 PUSH2 0x438 SWAP2 SWAP1 PUSH2 0x1C8C JUMP JUMPDEST ISZERO ISZERO PUSH1 0x1 EQ PUSH2 0x499 JUMPI PUSH1 0x40 MLOAD PUSH3 0x461BCD PUSH1 0xE5 SHL DUP2 MSTORE PUSH1 0x20 PUSH1 0x4 DUP3 ADD MSTORE PUSH1 0x27 PUSH1 0x24 DUP3 ADD MSTORE PUSH32 0xD09DD0B5D0B4D0BED181D182D0B0D182D0BED187D0BDD0BE20D181D180D0B5D0 PUSH1 0x44 DUP3 ADD MSTORE PUSH7 0x5A68C0E8C16859 PUSH1 0xC9 SHL PUSH1 0x64 DUP3 ADD MSTORE PUSH1 0x84 ADD PUSH2 0x3A6 JUMP JUMPDEST PUSH1 0x1 PUSH1 0x1 PUSH1 0xA0 SHL SUB DUP2 DUP2 AND PUSH1 0x0 DUP2 DUP2 MSTORE PUSH1 0x1 PUSH1 0x20 DUP2 DUP2 MSTORE PUSH1 0x40 DUP1 DUP5 KECCAK256 DUP11 DUP6 MSTORE DUP1 DUP4 MSTORE DUP2 DUP6 KECCAK256 DUP1 SLOAD DUP4 MLOAD PUSH1 0xC0 DUP2 ADD DUP6 MSTORE DUP2 DUP2 MSTORE DUP1 DUP7 ADD DUP15 DUP2 MSTORE SWAP5 DUP2 ADD SWAP9 DUP10 MSTORE PUSH1 0x60 DUP2 ADD DUP14 DUP2 MSTORE PUSH1 0x80 DUP3 ADD DUP14 DUP2 MSTORE PUSH1 0xA0 DUP4 ADD DUP11 SWAP1 MSTORE SWAP5 DUP8 MSTORE DUP3 DUP9 ADD DUP5 SSTORE SWAP3 DUP9 MSTORE SWAP7 DUP6 SWAP1 KECCAK256 DUP8 MLOAD PUSH1 0x6 DUP4 MUL SWAP1 SWAP2 ADD SWAP1 DUP2 SSTORE SWAP4 MLOAD SWAP6 DUP5 ADD SWAP6 SWAP1 SWAP6 SSTORE SWAP6 MLOAD PUSH1 0x2 DUP4 ADD DUP1 SLOAD PUSH1 0x1 PUSH1 0x1 PUSH1 0xA0 SHL SUB NOT AND SWAP2 SWAP1 SWAP9 AND OR SWAP1 SWAP7 SSTORE SWAP4 MLOAD PUSH1 0x3 DUP6 ADD SSTORE SWAP4 MLOAD DUP1 MLOAD SWAP2 SWAP5 SWAP3 SWAP4 DUP5 SWAP4 SWAP1 SWAP3 PUSH2 0x54D SWAP3 PUSH1 0x4 DUP6 ADD SWAP3 ADD SWAP1 PUSH2 0x1A44 JUMP JUMPDEST POP PUSH1 0xA0 SWAP2 SWAP1 SWAP2 ADD MLOAD PUSH1 0x5 SWAP1 SWAP2 ADD DUP1 SLOAD PUSH1 0xFF NOT AND PUSH1 0xFF SWAP1 SWAP3 AND SWAP2 SWAP1 SWAP2 OR SWAP1 SSTORE PUSH2 0x573 PUSH2 0x1AC8 JUMP JUMPDEST DUP3 DUP2 MSTORE PUSH1 0x20 DUP2 ADD DUP8 SWAP1 MSTORE PUSH1 0x1 PUSH1 0x1 PUSH1 0xA0 SHL SUB DUP5 DUP2 AND PUSH1 0x40 DUP1 DUP5 ADD DUP3 SWAP1 MSTORE PUSH1 0x0 PUSH1 0x60 DUP6 ADD MSTORE PUSH1 0x6 SLOAD SWAP1 MLOAD PUSH4 0x54BD1FC3 PUSH1 0xE1 SHL DUP2 MSTORE PUSH1 0x4 DUP2 ADD DUP12 SWAP1 MSTORE PUSH1 0x24 DUP2 ADD SWAP3 SWAP1 SWAP3 MSTORE SWAP1 SWAP2 AND SWAP1 PUSH4 0xA97A3F86 SWAP1 PUSH1 0x44 ADD PUSH1 0x0 PUSH1 0x40 MLOAD DUP1 DUP4 SUB DUP2 DUP7 DUP1 EXTCODESIZE ISZERO DUP1 ISZERO PUSH2 0x5DA JUMPI PUSH1 0x0 DUP1 REVERT JUMPDEST POP GAS STATICCALL ISZERO DUP1 ISZERO PUSH2 0x5EE JUMPI RETURNDATASIZE PUSH1 0x0 DUP1 RETURNDATACOPY RETURNDATASIZE PUSH1 0x0 REVERT JUMPDEST POP POP POP POP PUSH1 0x40 MLOAD RETURNDATASIZE PUSH1 0x0 DUP3 RETURNDATACOPY PUSH1 0x1F RETURNDATASIZE SWAP1 DUP2 ADD PUSH1 0x1F NOT AND DUP3 ADD PUSH1 0x40 MSTORE PUSH2 0x616 SWAP2 SWAP1 DUP2 ADD SWAP1 PUSH2 0x1BD9 JUMP JUMPDEST PUSH1 0x80 DUP3 ADD SWAP1 DUP2 MSTORE PUSH1 0x1 PUSH1 0x1 PUSH1 0xA0 SHL SUB DUP1 DUP7 AND PUSH1 0x0 SWAP1 DUP2 MSTORE PUSH1 0x2 PUSH1 0x20 DUP2 DUP2 MSTORE PUSH1 0x40 DUP1 DUP5 KECCAK256 DUP14 DUP6 MSTORE DUP3 MSTORE DUP1 DUP5 KECCAK256 DUP10 DUP6 MSTORE DUP3 MSTORE SWAP3 DUP4 SWAP1 KECCAK256 DUP7 MLOAD DUP2 SSTORE DUP2 DUP8 ADD MLOAD PUSH1 0x1 DUP3 ADD SSTORE SWAP3 DUP7 ADD MLOAD SWAP2 DUP4 ADD DUP1 SLOAD PUSH1 0x60 DUP9 ADD MLOAD ISZERO ISZERO PUSH1 0x1 PUSH1 0xA0 SHL MUL PUSH1 0xFF PUSH1 0xA0 SHL NOT SWAP5 SWAP1 SWAP7 AND PUSH1 0x1 PUSH1 0x1 PUSH1 0xA0 SHL SUB NOT SWAP1 SWAP2 AND OR SWAP3 SWAP1 SWAP3 AND SWAP4 SWAP1 SWAP4 OR SWAP1 SSTORE SWAP2 MLOAD DUP1 MLOAD DUP5 SWAP4 SWAP3 PUSH2 0x6A6 SWAP3 PUSH1 0x3 DUP6 ADD SWAP3 SWAP2 ADD SWAP1 PUSH2 0x1B18 JUMP JUMPDEST POP PUSH1 0xA0 DUP3 ADD MLOAD DUP1 MLOAD PUSH2 0x6C2 SWAP2 PUSH1 0x4 DUP5 ADD SWAP2 PUSH1 0x20 SWAP1 SWAP2 ADD SWAP1 PUSH2 0x1B18 JUMP JUMPDEST POP PUSH1 0xC0 DUP3 ADD MLOAD DUP1 MLOAD PUSH2 0x6DE SWAP2 PUSH1 0x5 DUP5 ADD SWAP2 PUSH1 0x20 SWAP1 SWAP2 ADD SWAP1 PUSH2 0x1B18 JUMP JUMPDEST POP PUSH1 0xE0 DUP3 ADD MLOAD DUP1 MLOAD PUSH2 0x6FA SWAP2 PUSH1 0x6 DUP5 ADD SWAP2 PUSH1 0x20 SWAP1 SWAP2 ADD SWAP1 PUSH2 0x1B18 JUMP JUMPDEST POP POP POP POP POP POP POP POP POP POP JUMP JUMPDEST PUSH1 0x0 SLOAD PUSH1 0x1 PUSH1 0x1 PUSH1 0xA0 SHL SUB AND CALLER EQ PUSH2 0x730 JUMPI PUSH1 0x40 MLOAD PUSH3 0x461BCD PUSH1 0xE5 SHL DUP2 MSTORE PUSH1 0x4 ADD PUSH2 0x3A6 SWAP1 PUSH2 0x1F35 JUMP JUMPDEST PUSH1 0x1 PUSH1 0x1 PUSH1 0xA0 SHL SUB DUP3 AND PUSH1 0x0 SWAP1 DUP2 MSTORE PUSH1 0x1 PUSH1 0x20 SWAP1 DUP2 MSTORE PUSH1 0x40 DUP1 DUP4 KECCAK256 DUP7 DUP5 MSTORE SWAP1 SWAP2 MSTORE SWAP1 KECCAK256 DUP1 SLOAD DUP3 SWAP1 DUP2 LT PUSH2 0x773 JUMPI PUSH4 0x4E487B71 PUSH1 0xE0 SHL PUSH1 0x0 MSTORE PUSH1 0x32 PUSH1 0x4 MSTORE PUSH1 0x24 PUSH1 0x0 REVERT JUMPDEST PUSH1 0x0 SWAP2 DUP3 MSTORE PUSH1 0x20 SWAP1 SWAP2 KECCAK256 PUSH1 0x5 PUSH1 0x6 SWAP1 SWAP3 MUL ADD ADD SLOAD PUSH1 0xFF AND PUSH1 0x1 EQ PUSH2 0x7E5 JUMPI PUSH1 0x40 MLOAD PUSH3 0x461BCD PUSH1 0xE5 SHL DUP2 MSTORE PUSH1 0x20 PUSH1 0x4 DUP3 ADD MSTORE PUSH1 0x24 DUP1 DUP3 ADD MSTORE PUSH32 0xD092D18BD0BFD0BBD0B0D182D0B020D0BDD0B520D0BED0B4D0BED0B1D180D0B5 PUSH1 0x44 DUP3 ADD MSTORE PUSH4 0xD0BDD0B PUSH1 0xE4 SHL PUSH1 0x64 DUP3 ADD MSTORE PUSH1 0x84 ADD PUSH2 0x3A6 JUMP JUMPDEST PUSH1 0x4 SLOAD PUSH1 0x1 PUSH1 0x1 PUSH1 0xA0 SHL SUB DUP4 DUP2 AND PUSH1 0x0 SWAP1 DUP2 MSTORE PUSH1 0x1 PUSH1 0x20 SWAP1 DUP2 MSTORE PUSH1 0x40 DUP1 DUP4 KECCAK256 DUP9 DUP5 MSTORE SWAP1 SWAP2 MSTORE SWAP1 KECCAK256 DUP1 SLOAD SWAP2 SWAP1 SWAP3 AND SWAP2 PUSH4 0xE960B19D SWAP2 DUP7 SWAP2 DUP7 SWAP2 DUP7 SWAP1 DUP2 LT PUSH2 0x83B JUMPI PUSH4 0x4E487B71 PUSH1 0xE0 SHL PUSH1 0x0 MSTORE PUSH1 0x32 PUSH1 0x4 MSTORE PUSH1 0x24 PUSH1 0x0 REVERT JUMPDEST SWAP1 PUSH1 0x0 MSTORE PUSH1 0x20 PUSH1 0x0 KECCAK256 SWAP1 PUSH1 0x6 MUL ADD PUSH1 0x3 ADD SLOAD PUSH1 0x40 MLOAD DUP5 PUSH4 0xFFFFFFFF AND PUSH1 0xE0 SHL DUP2 MSTORE PUSH1 0x4 ADD PUSH2 0x885 SWAP4 SWAP3 SWAP2 SWAP1 SWAP3 DUP4 MSTORE PUSH1 0x1 PUSH1 0x1 PUSH1 0xA0 SHL SUB SWAP2 SWAP1 SWAP2 AND PUSH1 0x20 DUP4 ADD MSTORE PUSH1 0x40 DUP3 ADD MSTORE PUSH1 0x60 ADD SWAP1 JUMP JUMPDEST PUSH1 0x0 PUSH1 0x40 MLOAD DUP1 DUP4 SUB DUP2 PUSH1 0x0 DUP8 DUP1 EXTCODESIZE ISZERO DUP1 ISZERO PUSH2 0x89F JUMPI PUSH1 0x0 DUP1 REVERT JUMPDEST POP GAS CALL ISZERO DUP1 ISZERO PUSH2 0x8B3 JUMPI RETURNDATASIZE PUSH1 0x0 DUP1 RETURNDATACOPY RETURNDATASIZE PUSH1 0x0 REVERT JUMPDEST POP POP POP PUSH1 0x1 PUSH1 0x1 PUSH1 0xA0 SHL SUB DUP4 AND PUSH1 0x0 SWAP1 DUP2 MSTORE PUSH1 0x1 PUSH1 0x20 SWAP1 DUP2 MSTORE PUSH1 0x40 DUP1 DUP4 KECCAK256 DUP8 DUP5 MSTORE SWAP1 SWAP2 MSTORE SWAP1 KECCAK256 DUP1 SLOAD PUSH1 0x3 SWAP3 POP DUP4 SWAP1 DUP2 LT PUSH2 0x8FD JUMPI PUSH4 0x4E487B71 PUSH1 0xE0 SHL PUSH1 0x0 MSTORE PUSH1 0x32 PUSH1 0x4 MSTORE PUSH1 0x24 PUSH1 0x0 REVERT JUMPDEST SWAP1 PUSH1 0x0 MSTORE PUSH1 0x20 PUSH1 0x0 KECCAK256 SWAP1 PUSH1 0x6 MUL ADD PUSH1 0x5 ADD PUSH1 0x0 PUSH2 0x100 EXP DUP2 SLOAD DUP2 PUSH1 0xFF MUL NOT AND SWAP1 DUP4 PUSH1 0xFF AND MUL OR SWAP1 SSTORE POP POP POP POP JUMP JUMPDEST PUSH1 0x1 PUSH1 0x20 MSTORE DUP3 PUSH1 0x0 MSTORE PUSH1 0x40 PUSH1 0x0 KECCAK256 PUSH1 0x20 MSTORE DUP2 PUSH1 0x0 MSTORE PUSH1 0x40 PUSH1 0x0 KECCAK256 DUP2 DUP2 SLOAD DUP2 LT PUSH2 0x953 JUMPI PUSH1 0x0 DUP1 REVERT JUMPDEST PUSH1 0x0 SWAP2 DUP3 MSTORE PUSH1 0x20 SWAP1 SWAP2 KECCAK256 PUSH1 0x6 SWAP1 SWAP2 MUL ADD DUP1 SLOAD PUSH1 0x1 DUP3 ADD SLOAD PUSH1 0x2 DUP4 ADD SLOAD PUSH1 0x3 DUP5 ADD SLOAD PUSH1 0x4 DUP6 ADD DUP1 SLOAD SWAP5 SWAP9 POP SWAP3 SWAP7 POP PUSH1 0x1 PUSH1 0x1 PUSH1 0xA0 SHL SUB SWAP1 SWAP2 AND SWAP5 POP SWAP3 SWAP2 PUSH2 0x998 SWAP1 PUSH2 0x20CC JUMP JUMPDEST DUP1 PUSH1 0x1F ADD PUSH1 0x20 DUP1 SWAP2 DIV MUL PUSH1 0x20 ADD PUSH1 0x40 MLOAD SWAP1 DUP2 ADD PUSH1 0x40 MSTORE DUP1 SWAP3 SWAP2 SWAP1 DUP2 DUP2 MSTORE PUSH1 0x20 ADD DUP3 DUP1 SLOAD PUSH2 0x9C4 SWAP1 PUSH2 0x20CC JUMP JUMPDEST DUP1 ISZERO PUSH2 0xA11 JUMPI DUP1 PUSH1 0x1F LT PUSH2 0x9E6 JUMPI PUSH2 0x100 DUP1 DUP4 SLOAD DIV MUL DUP4 MSTORE SWAP2 PUSH1 0x20 ADD SWAP2 PUSH2 0xA11 JUMP JUMPDEST DUP3 ADD SWAP2 SWAP1 PUSH1 0x0 MSTORE PUSH1 0x20 PUSH1 0x0 KECCAK256 SWAP1 JUMPDEST DUP2 SLOAD DUP2 MSTORE SWAP1 PUSH1 0x1 ADD SWAP1 PUSH1 0x20 ADD DUP1 DUP4 GT PUSH2 0x9F4 JUMPI DUP3 SWAP1 SUB PUSH1 0x1F AND DUP3 ADD SWAP2 JUMPDEST POP POP POP PUSH1 0x5 SWAP1 SWAP4 ADD SLOAD SWAP2 SWAP3 POP POP PUSH1 0xFF AND DUP7 JUMP JUMPDEST PUSH1 0x0 SLOAD PUSH1 0x1 PUSH1 0x1 PUSH1 0xA0 SHL SUB AND CALLER EQ PUSH2 0xA4E JUMPI PUSH1 0x40 MLOAD PUSH3 0x461BCD PUSH1 0xE5 SHL DUP2 MSTORE PUSH1 0x4 ADD PUSH2 0x3A6 SWAP1 PUSH2 0x1F35 JUMP JUMPDEST PUSH1 0x3 DUP1 SLOAD PUSH1 0x1 PUSH1 0x1 PUSH1 0xA0 SHL SUB SWAP1 SWAP3 AND PUSH1 0x1 PUSH1 0x1 PUSH1 0xA0 SHL SUB NOT SWAP3 DUP4 AND DUP2 OR SWAP1 SWAP2 SSTORE PUSH1 0x4 DUP1 SLOAD SWAP1 SWAP3 AND OR SWAP1 SSTORE JUMP JUMPDEST PUSH2 0xA82 PUSH2 0x1AC8 JUMP JUMPDEST PUSH1 0x1 PUSH1 0x1 PUSH1 0xA0 SHL SUB DUP4 DUP2 AND PUSH1 0x0 SWAP1 DUP2 MSTORE PUSH1 0x2 PUSH1 0x20 DUP2 DUP2 MSTORE PUSH1 0x40 DUP1 DUP5 KECCAK256 DUP10 DUP6 MSTORE DUP3 MSTORE DUP1 DUP5 KECCAK256 DUP8 DUP6 MSTORE DUP3 MSTORE SWAP3 DUP4 SWAP1 KECCAK256 DUP4 MLOAD PUSH2 0x100 DUP2 ADD DUP6 MSTORE DUP2 SLOAD DUP2 MSTORE PUSH1 0x1 DUP3 ADD SLOAD DUP2 DUP5 ADD MSTORE SWAP3 DUP2 ADD SLOAD SWAP5 DUP6 AND DUP4 DUP6 ADD MSTORE PUSH1 0x1 PUSH1 0xA0 SHL SWAP1 SWAP5 DIV PUSH1 0xFF AND ISZERO ISZERO PUSH1 0x60 DUP4 ADD MSTORE PUSH1 0x3 DUP5 ADD DUP1 SLOAD DUP5 MLOAD DUP2 DUP5 MUL DUP2 ADD DUP5 ADD SWAP1 SWAP6 MSTORE DUP1 DUP6 MSTORE SWAP3 SWAP5 SWAP4 PUSH1 0x80 DUP7 ADD SWAP4 SWAP1 SWAP3 DUP4 ADD DUP3 DUP3 DUP1 ISZERO PUSH2 0xB3A JUMPI PUSH1 0x20 MUL DUP3 ADD SWAP2 SWAP1 PUSH1 0x0 MSTORE PUSH1 0x20 PUSH1 0x0 KECCAK256 SWAP1 JUMPDEST DUP2 SLOAD PUSH1 0x1 PUSH1 0x1 PUSH1 0xA0 SHL SUB AND DUP2 MSTORE PUSH1 0x1 SWAP1 SWAP2 ADD SWAP1 PUSH1 0x20 ADD DUP1 DUP4 GT PUSH2 0xB1C JUMPI JUMPDEST POP POP POP POP POP DUP2 MSTORE PUSH1 0x20 ADD PUSH1 0x4 DUP3 ADD DUP1 SLOAD DUP1 PUSH1 0x20 MUL PUSH1 0x20 ADD PUSH1 0x40 MLOAD SWAP1 DUP2 ADD PUSH1 0x40 MSTORE DUP1 SWAP3 SWAP2 SWAP1 DUP2 DUP2 MSTORE PUSH1 0x20 ADD DUP3 DUP1 SLOAD DUP1 ISZERO PUSH2 0xB9C JUMPI PUSH1 0x20 MUL DUP3 ADD SWAP2 SWAP1 PUSH1 0x0 MSTORE PUSH1 0x20 PUSH1 0x0 KECCAK256 SWAP1 JUMPDEST DUP2 SLOAD PUSH1 0x1 PUSH1 0x1 PUSH1 0xA0 SHL SUB AND DUP2 MSTORE PUSH1 0x1 SWAP1 SWAP2 ADD SWAP1 PUSH1 0x20 ADD DUP1 DUP4 GT PUSH2 0xB7E JUMPI JUMPDEST POP POP POP POP POP DUP2 MSTORE PUSH1 0x20 ADD PUSH1 0x5 DUP3 ADD DUP1 SLOAD DUP1 PUSH1 0x20 MUL PUSH1 0x20 ADD PUSH1 0x40 MLOAD SWAP1 DUP2 ADD PUSH1 0x40 MSTORE DUP1 SWAP3 SWAP2 SWAP1 DUP2 DUP2 MSTORE PUSH1 0x20 ADD DUP3 DUP1 SLOAD DUP1 ISZERO PUSH2 0xBFE JUMPI PUSH1 0x20 MUL DUP3 ADD SWAP2 SWAP1 PUSH1 0x0 MSTORE PUSH1 0x20 PUSH1 0x0 KECCAK256 SWAP1 JUMPDEST DUP2 SLOAD PUSH1 0x1 PUSH1 0x1 PUSH1 0xA0 SHL SUB AND DUP2 MSTORE PUSH1 0x1 SWAP1 SWAP2 ADD SWAP1 PUSH1 0x20 ADD DUP1 DUP4 GT PUSH2 0xBE0 JUMPI JUMPDEST POP POP POP POP POP DUP2 MSTORE PUSH1 0x20 ADD PUSH1 0x6 DUP3 ADD DUP1 SLOAD DUP1 PUSH1 0x20 MUL PUSH1 0x20 ADD PUSH1 0x40 MLOAD SWAP1 DUP2 ADD PUSH1 0x40 MSTORE DUP1 SWAP3 SWAP2 SWAP1 DUP2 DUP2 MSTORE PUSH1 0x20 ADD DUP3 DUP1 SLOAD DUP1 ISZERO PUSH2 0xC60 JUMPI PUSH1 0x20 MUL DUP3 ADD SWAP2 SWAP1 PUSH1 0x0 MSTORE PUSH1 0x20 PUSH1 0x0 KECCAK256 SWAP1 JUMPDEST DUP2 SLOAD PUSH1 0x1 PUSH1 0x1 PUSH1 0xA0 SHL SUB AND DUP2 MSTORE PUSH1 0x1 SWAP1 SWAP2 ADD SWAP1 PUSH1 0x20 ADD DUP1 DUP4 GT PUSH2 0xC42 JUMPI JUMPDEST POP POP POP POP POP DUP2 MSTORE POP POP SWAP1 POP SWAP4 SWAP3 POP POP POP JUMP JUMPDEST PUSH1 0x0 SLOAD PUSH1 0x1 PUSH1 0x1 PUSH1 0xA0 SHL SUB AND CALLER EQ PUSH2 0xC9C JUMPI PUSH1 0x40 MLOAD PUSH3 0x461BCD PUSH1 0xE5 SHL DUP2 MSTORE PUSH1 0x4 ADD PUSH2 0x3A6 SWAP1 PUSH2 0x1F35 JUMP JUMPDEST PUSH1 0x1 PUSH1 0x1 PUSH1 0xA0 SHL SUB DUP3 AND PUSH1 0x0 SWAP1 DUP2 MSTORE PUSH1 0x1 PUSH1 0x20 SWAP1 DUP2 MSTORE PUSH1 0x40 DUP1 DUP4 KECCAK256 DUP7 DUP5 MSTORE SWAP1 SWAP2 MSTORE SWAP1 KECCAK256 DUP1 SLOAD DUP3 SWAP1 DUP2 LT PUSH2 0xCDF JUMPI PUSH4 0x4E487B71 PUSH1 0xE0 SHL PUSH1 0x0 MSTORE PUSH1 0x32 PUSH1 0x4 MSTORE PUSH1 0x24 PUSH1 0x0 REVERT JUMPDEST PUSH1 0x0 SWAP2 DUP3 MSTORE PUSH1 0x20 SWAP1 SWAP2 KECCAK256 PUSH1 0x5 PUSH1 0x6 SWAP1 SWAP3 MUL ADD ADD SLOAD PUSH1 0xFF AND ISZERO PUSH2 0xD55 JUMPI PUSH1 0x40 MLOAD PUSH3 0x461BCD PUSH1 0xE5 SHL DUP2 MSTORE PUSH1 0x20 PUSH1 0x4 DUP3 ADD MSTORE PUSH1 0x29 PUSH1 0x24 DUP3 ADD MSTORE PUSH32 0xD093D0BED0BBD0BED181D0BED0B2D0B0D0BDD0B8D0B520D0B7D0B0D0B2D0B5D1 PUSH1 0x44 DUP3 ADD MSTORE PUSH9 0x4068C4685AE85EE85F PUSH1 0xB9 SHL PUSH1 0x64 DUP3 ADD MSTORE PUSH1 0x84 ADD PUSH2 0x3A6 JUMP JUMPDEST PUSH1 0x1 PUSH1 0x1 PUSH1 0xA0 SHL SUB DUP3 DUP2 AND PUSH1 0x0 SWAP1 DUP2 MSTORE PUSH1 0x2 PUSH1 0x20 DUP2 DUP2 MSTORE PUSH1 0x40 DUP1 DUP5 KECCAK256 DUP9 DUP6 MSTORE DUP3 MSTORE DUP1 DUP5 KECCAK256 DUP7 DUP6 MSTORE DUP3 MSTORE DUP1 DUP5 KECCAK256 DUP2 MLOAD PUSH2 0x100 DUP2 ADD DUP4 MSTORE DUP2 SLOAD DUP2 MSTORE PUSH1 0x1 DUP3 ADD SLOAD DUP2 DUP6 ADD MSTORE SWAP4 DUP2 ADD SLOAD SWAP6 DUP7 AND DUP5 DUP4 ADD MSTORE PUSH1 0x1 PUSH1 0xA0 SHL SWAP1 SWAP6 DIV PUSH1 0xFF AND ISZERO ISZERO PUSH1 0x60 DUP5 ADD MSTORE PUSH1 0x3 DUP6 ADD DUP1 SLOAD DUP3 MLOAD DUP2 DUP6 MUL DUP2 ADD DUP6 ADD SWAP1 SWAP4 MSTORE DUP1 DUP4 MSTORE SWAP5 SWAP6 SWAP4 SWAP5 PUSH1 0x80 DUP7 ADD SWAP4 DUP4 ADD DUP3 DUP3 DUP1 ISZERO PUSH2 0xE0B JUMPI PUSH1 0x20 MUL DUP3 ADD SWAP2 SWAP1 PUSH1 0x0 MSTORE PUSH1 0x20 PUSH1 0x0 KECCAK256 SWAP1 JUMPDEST DUP2 SLOAD PUSH1 0x1 PUSH1 0x1 PUSH1 0xA0 SHL SUB AND DUP2 MSTORE PUSH1 0x1 SWAP1 SWAP2 ADD SWAP1 PUSH1 0x20 ADD DUP1 DUP4 GT PUSH2 0xDED JUMPI JUMPDEST POP POP POP POP POP DUP2 MSTORE PUSH1 0x20 ADD PUSH1 0x4 DUP3 ADD DUP1 SLOAD DUP1 PUSH1 0x20 MUL PUSH1 0x20 ADD PUSH1 0x40 MLOAD SWAP1 DUP2 ADD PUSH1 0x40 MSTORE DUP1 SWAP3 SWAP2 SWAP1 DUP2 DUP2 MSTORE PUSH1 0x20 ADD DUP3 DUP1 SLOAD DUP1 ISZERO PUSH2 0xE6D JUMPI PUSH1 0x20 MUL DUP3 ADD SWAP2 SWAP1 PUSH1 0x0 MSTORE PUSH1 0x20 PUSH1 0x0 KECCAK256 SWAP1 JUMPDEST DUP2 SLOAD PUSH1 0x1 PUSH1 0x1 PUSH1 0xA0 SHL SUB AND DUP2 MSTORE PUSH1 0x1 SWAP1 SWAP2 ADD SWAP1 PUSH1 0x20 ADD DUP1 DUP4 GT PUSH2 0xE4F JUMPI JUMPDEST POP POP POP POP POP DUP2 MSTORE PUSH1 0x20 ADD PUSH1 0x5 DUP3 ADD DUP1 SLOAD DUP1 PUSH1 0x20 MUL PUSH1 0x20 ADD PUSH1 0x40 MLOAD SWAP1 DUP2 ADD PUSH1 0x40 MSTORE DUP1 SWAP3 SWAP2 SWAP1 DUP2 DUP2 MSTORE PUSH1 0x20 ADD DUP3 DUP1 SLOAD DUP1 ISZERO PUSH2 0xECF JUMPI PUSH1 0x20 MUL DUP3 ADD SWAP2 SWAP1 PUSH1 0x0 MSTORE PUSH1 0x20 PUSH1 0x0 KECCAK256 SWAP1 JUMPDEST DUP2 SLOAD PUSH1 0x1 PUSH1 0x1 PUSH1 0xA0 SHL SUB AND DUP2 MSTORE PUSH1 0x1 SWAP1 SWAP2 ADD SWAP1 PUSH1 0x20 ADD DUP1 DUP4 GT PUSH2 0xEB1 JUMPI JUMPDEST POP POP POP POP POP DUP2 MSTORE PUSH1 0x20 ADD PUSH1 0x6 DUP3 ADD DUP1 SLOAD DUP1 PUSH1 0x20 MUL PUSH1 0x20 ADD PUSH1 0x40 MLOAD SWAP1 DUP2 ADD PUSH1 0x40 MSTORE DUP1 SWAP3 SWAP2 SWAP1 DUP2 DUP2 MSTORE PUSH1 0x20 ADD DUP3 DUP1 SLOAD DUP1 ISZERO PUSH2 0xF31 JUMPI PUSH1 0x20 MUL DUP3 ADD SWAP2 SWAP1 PUSH1 0x0 MSTORE PUSH1 0x20 PUSH1 0x0 KECCAK256 SWAP1 JUMPDEST DUP2 SLOAD PUSH1 0x1 PUSH1 0x1 PUSH1 0xA0 SHL SUB AND DUP2 MSTORE PUSH1 0x1 SWAP1 SWAP2 ADD SWAP1 PUSH1 0x20 ADD DUP1 DUP4 GT PUSH2 0xF13 JUMPI JUMPDEST POP POP POP SWAP2 SWAP1 SWAP3 MSTORE POP POP POP PUSH1 0x80 DUP2 ADD MLOAD MLOAD PUSH1 0xE0 DUP3 ADD MLOAD MLOAD PUSH1 0xA0 DUP4 ADD MLOAD MLOAD PUSH1 0xC0 DUP5 ADD MLOAD MLOAD SWAP4 SWAP5 POP SWAP2 SWAP3 SWAP1 SWAP2 SWAP1 PUSH1 0x0 PUSH2 0xF67 DUP5 DUP7 PUSH2 0x20B5 JUMP JUMPDEST SWAP1 POP DUP2 PUSH2 0xF74 DUP3 DUP6 PUSH2 0x209D JUMP JUMPDEST GT ISZERO PUSH2 0x101A JUMPI PUSH1 0x1 PUSH1 0x1 PUSH1 0xA0 SHL SUB DUP9 AND PUSH1 0x0 DUP2 DUP2 MSTORE PUSH1 0x2 PUSH1 0x20 DUP2 DUP2 MSTORE PUSH1 0x40 DUP1 DUP5 KECCAK256 DUP15 DUP6 MSTORE DUP3 MSTORE DUP1 DUP5 KECCAK256 DUP13 DUP6 MSTORE DUP3 MSTORE DUP1 DUP5 KECCAK256 SWAP1 SWAP3 ADD DUP1 SLOAD PUSH1 0xFF PUSH1 0xA0 SHL NOT AND PUSH1 0x1 PUSH1 0xA0 SHL OR SWAP1 SSTORE SWAP3 DUP3 MSTORE PUSH1 0x1 DUP1 DUP5 MSTORE DUP2 DUP4 KECCAK256 DUP14 DUP5 MSTORE SWAP1 SWAP4 MSTORE SWAP1 KECCAK256 DUP1 SLOAD DUP10 SWAP1 DUP2 LT PUSH2 0xFEC JUMPI PUSH4 0x4E487B71 PUSH1 0xE0 SHL PUSH1 0x0 MSTORE PUSH1 0x32 PUSH1 0x4 MSTORE PUSH1 0x24 PUSH1 0x0 REVERT JUMPDEST SWAP1 PUSH1 0x0 MSTORE PUSH1 0x20 PUSH1 0x0 KECCAK256 SWAP1 PUSH1 0x6 MUL ADD PUSH1 0x5 ADD PUSH1 0x0 PUSH2 0x100 EXP DUP2 SLOAD DUP2 PUSH1 0xFF MUL NOT AND SWAP1 DUP4 PUSH1 0xFF AND MUL OR SWAP1 SSTORE POP PUSH2 0x10AE JUMP JUMPDEST PUSH1 0x1 PUSH1 0x1 PUSH1 0xA0 SHL SUB DUP9 AND PUSH1 0x0 DUP2 DUP2 MSTORE PUSH1 0x2 PUSH1 0x20 DUP2 DUP2 MSTORE PUSH1 0x40 DUP1 DUP5 KECCAK256 DUP15 DUP6 MSTORE DUP3 MSTORE DUP1 DUP5 KECCAK256 DUP13 DUP6 MSTORE DUP3 MSTORE DUP1 DUP5 KECCAK256 DUP4 ADD DUP1 SLOAD PUSH1 0xFF PUSH1 0xA0 SHL NOT AND SWAP1 SSTORE SWAP4 DUP4 MSTORE PUSH1 0x1 DUP2 MSTORE DUP4 DUP4 KECCAK256 DUP14 DUP5 MSTORE SWAP1 MSTORE SWAP2 SWAP1 KECCAK256 DUP1 SLOAD DUP10 SWAP1 DUP2 LT PUSH2 0x1084 JUMPI PUSH4 0x4E487B71 PUSH1 0xE0 SHL PUSH1 0x0 MSTORE PUSH1 0x32 PUSH1 0x4 MSTORE PUSH1 0x24 PUSH1 0x0 REVERT JUMPDEST SWAP1 PUSH1 0x0 MSTORE PUSH1 0x20 PUSH1 0x0 KECCAK256 SWAP1 PUSH1 0x6 MUL ADD PUSH1 0x5 ADD PUSH1 0x0 PUSH2 0x100 EXP DUP2 SLOAD DUP2 PUSH1 0xFF MUL NOT AND SWAP1 DUP4 PUSH1 0xFF AND MUL OR SWAP1 SSTORE POP JUMPDEST POP POP POP POP POP POP POP POP POP JUMP JUMPDEST PUSH1 0x0 SLOAD PUSH1 0x1 PUSH1 0x1 PUSH1 0xA0 SHL SUB AND CALLER EQ PUSH2 0x10E3 JUMPI PUSH1 0x40 MLOAD PUSH3 0x461BCD PUSH1 0xE5 SHL DUP2 MSTORE PUSH1 0x4 ADD PUSH2 0x3A6 SWAP1 PUSH2 0x1F35 JUMP JUMPDEST PUSH1 0x5 DUP1 SLOAD PUSH1 0x1 PUSH1 0x1 PUSH1 0xA0 SHL SUB SWAP1 SWAP3 AND PUSH1 0x1 PUSH1 0x1 PUSH1 0xA0 SHL SUB NOT SWAP3 DUP4 AND DUP2 OR SWAP1 SWAP2 SSTORE PUSH1 0x6 DUP1 SLOAD SWAP1 SWAP3 AND OR SWAP1 SSTORE JUMP JUMPDEST PUSH1 0x1 PUSH1 0x1 PUSH1 0xA0 SHL SUB DUP2 AND PUSH1 0x0 SWAP1 DUP2 MSTORE PUSH1 0x1 PUSH1 0x20 SWAP1 DUP2 MSTORE PUSH1 0x40 DUP1 DUP4 KECCAK256 DUP6 DUP5 MSTORE DUP3 MSTORE DUP1 DUP4 KECCAK256 DUP1 SLOAD DUP3 MLOAD DUP2 DUP6 MUL DUP2 ADD DUP6 ADD SWAP1 SWAP4 MSTORE DUP1 DUP4 MSTORE PUSH1 0x60 SWAP5 SWAP3 SWAP4 SWAP2 SWAP3 SWAP1 SWAP2 DUP5 ADD JUMPDEST DUP3 DUP3 LT ISZERO PUSH2 0x1258 JUMPI PUSH1 0x0 DUP5 DUP2 MSTORE PUSH1 0x20 SWAP1 DUP2 SWAP1 KECCAK256 PUSH1 0x40 DUP1 MLOAD PUSH1 0xC0 DUP2 ADD DUP3 MSTORE PUSH1 0x6 DUP7 MUL SWAP1 SWAP3 ADD DUP1 SLOAD DUP4 MSTORE PUSH1 0x1 DUP2 ADD SLOAD SWAP4 DUP4 ADD SWAP4 SWAP1 SWAP4 MSTORE PUSH1 0x2 DUP4 ADD SLOAD PUSH1 0x1 PUSH1 0x1 PUSH1 0xA0 SHL SUB AND SWAP1 DUP3 ADD MSTORE PUSH1 0x3 DUP3 ADD SLOAD PUSH1 0x60 DUP3 ADD MSTORE PUSH1 0x4 DUP3 ADD DUP1 SLOAD SWAP2 SWAP3 SWAP2 PUSH1 0x80 DUP5 ADD SWAP2 SWAP1 PUSH2 0x11B7 SWAP1 PUSH2 0x20CC JUMP JUMPDEST DUP1 PUSH1 0x1F ADD PUSH1 0x20 DUP1 SWAP2 DIV MUL PUSH1 0x20 ADD PUSH1 0x40 MLOAD SWAP1 DUP2 ADD PUSH1 0x40 MSTORE DUP1 SWAP3 SWAP2 SWAP1 DUP2 DUP2 MSTORE PUSH1 0x20 ADD DUP3 DUP1 SLOAD PUSH2 0x11E3 SWAP1 PUSH2 0x20CC JUMP JUMPDEST DUP1 ISZERO PUSH2 0x1230 JUMPI DUP1 PUSH1 0x1F LT PUSH2 0x1205 JUMPI PUSH2 0x100 DUP1 DUP4 SLOAD DIV MUL DUP4 MSTORE SWAP2 PUSH1 0x20 ADD SWAP2 PUSH2 0x1230 JUMP JUMPDEST DUP3 ADD SWAP2 SWAP1 PUSH1 0x0 MSTORE PUSH1 0x20 PUSH1 0x0 KECCAK256 SWAP1 JUMPDEST DUP2 SLOAD DUP2 MSTORE SWAP1 PUSH1 0x1 ADD SWAP1 PUSH1 0x20 ADD DUP1 DUP4 GT PUSH2 0x1213 JUMPI DUP3 SWAP1 SUB PUSH1 0x1F AND DUP3 ADD SWAP2 JUMPDEST POP POP POP SWAP2 DUP4 MSTORE POP POP PUSH1 0x5 SWAP2 SWAP1 SWAP2 ADD SLOAD PUSH1 0xFF AND PUSH1 0x20 SWAP2 DUP3 ADD MSTORE SWAP1 DUP3 MSTORE PUSH1 0x1 SWAP3 SWAP1 SWAP3 ADD SWAP2 ADD PUSH2 0x114F JUMP JUMPDEST POP POP POP POP SWAP1 POP SWAP3 SWAP2 POP POP JUMP JUMPDEST PUSH1 0x1 PUSH1 0x1 PUSH1 0xA0 SHL SUB DUP4 AND PUSH1 0x0 SWAP1 DUP2 MSTORE PUSH1 0x1 PUSH1 0x20 SWAP1 DUP2 MSTORE PUSH1 0x40 DUP1 DUP4 KECCAK256 DUP8 DUP5 MSTORE SWAP1 SWAP2 MSTORE SWAP1 KECCAK256 DUP1 SLOAD DUP4 SWAP1 DUP2 LT PUSH2 0x12A7 JUMPI PUSH4 0x4E487B71 PUSH1 0xE0 SHL PUSH1 0x0 MSTORE PUSH1 0x32 PUSH1 0x4 MSTORE PUSH1 0x24 PUSH1 0x0 REVERT JUMPDEST PUSH1 0x0 SWAP2 DUP3 MSTORE PUSH1 0x20 SWAP1 SWAP2 KECCAK256 PUSH1 0x5 PUSH1 0x6 SWAP1 SWAP3 MUL ADD ADD SLOAD PUSH1 0xFF AND ISZERO PUSH2 0x131B JUMPI PUSH1 0x40 MLOAD PUSH3 0x461BCD PUSH1 0xE5 SHL DUP2 MSTORE PUSH1 0x20 PUSH1 0x4 DUP3 ADD MSTORE PUSH1 0x27 PUSH1 0x24 DUP3 ADD MSTORE PUSH32 0xD093D0BED0BBD0BED181D0B2D0B0D0BDD0B8D0B520D0B7D0B0D0B2D0B5D180D1 PUSH1 0x44 DUP3 ADD MSTORE PUSH7 0x44685AE85EE85F PUSH1 0xC9 SHL PUSH1 0x64 DUP3 ADD MSTORE PUSH1 0x84 ADD PUSH2 0x3A6 JUMP JUMPDEST PUSH1 0x1 PUSH1 0x1 PUSH1 0xA0 SHL SUB DUP4 DUP2 AND PUSH1 0x0 SWAP1 DUP2 MSTORE PUSH1 0x2 PUSH1 0x20 DUP2 DUP2 MSTORE PUSH1 0x40 DUP1 DUP5 KECCAK256 DUP10 DUP6 MSTORE DUP3 MSTORE DUP1 DUP5 KECCAK256 DUP8 DUP6 MSTORE DUP3 MSTORE DUP1 DUP5 KECCAK256 DUP2 MLOAD PUSH2 0x100 DUP2 ADD DUP4 MSTORE DUP2 SLOAD DUP2 MSTORE PUSH1 0x1 DUP3 ADD SLOAD DUP2 DUP6 ADD MSTORE SWAP4 DUP2 ADD SLOAD SWAP6 DUP7 AND DUP5 DUP4 ADD MSTORE PUSH1 0x1 PUSH1 0xA0 SHL SWAP1 SWAP6 DIV PUSH1 0xFF AND ISZERO ISZERO PUSH1 0x60 DUP5 ADD MSTORE PUSH1 0x3 DUP6 ADD DUP1 SLOAD DUP3 MLOAD DUP2 DUP6 MUL DUP2 ADD DUP6 ADD SWAP1 SWAP4 MSTORE DUP1 DUP4 MSTORE CALLER SWAP7 SWAP4 PUSH1 0x80 DUP7 ADD SWAP4 SWAP3 SWAP2 SWAP1 DUP4 ADD DUP3 DUP3 DUP1 ISZERO PUSH2 0x13D3 JUMPI PUSH1 0x20 MUL DUP3 ADD SWAP2 SWAP1 PUSH1 0x0 MSTORE PUSH1 0x20 PUSH1 0x0 KECCAK256 SWAP1 JUMPDEST DUP2 SLOAD PUSH1 0x1 PUSH1 0x1 PUSH1 0xA0 SHL SUB AND DUP2 MSTORE PUSH1 0x1 SWAP1 SWAP2 ADD SWAP1 PUSH1 0x20 ADD DUP1 DUP4 GT PUSH2 0x13B5 JUMPI JUMPDEST POP POP POP POP POP DUP2 MSTORE PUSH1 0x20 ADD PUSH1 0x4 DUP3 ADD DUP1 SLOAD DUP1 PUSH1 0x20 MUL PUSH1 0x20 ADD PUSH1 0x40 MLOAD SWAP1 DUP2 ADD PUSH1 0x40 MSTORE DUP1 SWAP3 SWAP2 SWAP1 DUP2 DUP2 MSTORE PUSH1 0x20 ADD DUP3 DUP1 SLOAD DUP1 ISZERO PUSH2 0x1435 JUMPI PUSH1 0x20 MUL DUP3 ADD SWAP2 SWAP1 PUSH1 0x0 MSTORE PUSH1 0x20 PUSH1 0x0 KECCAK256 SWAP1 JUMPDEST DUP2 SLOAD PUSH1 0x1 PUSH1 0x1 PUSH1 0xA0 SHL SUB AND DUP2 MSTORE PUSH1 0x1 SWAP1 SWAP2 ADD SWAP1 PUSH1 0x20 ADD DUP1 DUP4 GT PUSH2 0x1417 JUMPI JUMPDEST POP POP POP POP POP DUP2 MSTORE PUSH1 0x20 ADD PUSH1 0x5 DUP3 ADD DUP1 SLOAD DUP1 PUSH1 0x20 MUL PUSH1 0x20 ADD PUSH1 0x40 MLOAD SWAP1 DUP2 ADD PUSH1 0x40 MSTORE DUP1 SWAP3 SWAP2 SWAP1 DUP2 DUP2 MSTORE PUSH1 0x20 ADD DUP3 DUP1 SLOAD DUP1 ISZERO PUSH2 0x1497 JUMPI PUSH1 0x20 MUL DUP3 ADD SWAP2 SWAP1 PUSH1 0x0 MSTORE PUSH1 0x20 PUSH1 0x0 KECCAK256 SWAP1 JUMPDEST DUP2 SLOAD PUSH1 0x1 PUSH1 0x1 PUSH1 0xA0 SHL SUB AND DUP2 MSTORE PUSH1 0x1 SWAP1 SWAP2 ADD SWAP1 PUSH1 0x20 ADD DUP1 DUP4 GT PUSH2 0x1479 JUMPI JUMPDEST POP POP POP POP POP DUP2 MSTORE PUSH1 0x20 ADD PUSH1 0x6 DUP3 ADD DUP1 SLOAD DUP1 PUSH1 0x20 MUL PUSH1 0x20 ADD PUSH1 0x40 MLOAD SWAP1 DUP2 ADD PUSH1 0x40 MSTORE DUP1 SWAP3 SWAP2 SWAP1 DUP2 DUP2 MSTORE PUSH1 0x20 ADD DUP3 DUP1 SLOAD DUP1 ISZERO PUSH2 0x14F9 JUMPI PUSH1 0x20 MUL DUP3 ADD SWAP2 SWAP1 PUSH1 0x0 MSTORE PUSH1 0x20 PUSH1 0x0 KECCAK256 SWAP1 JUMPDEST DUP2 SLOAD PUSH1 0x1 PUSH1 0x1 PUSH1 0xA0 SHL SUB AND DUP2 MSTORE PUSH1 0x1 SWAP1 SWAP2 ADD SWAP1 PUSH1 0x20 ADD DUP1 DUP4 GT PUSH2 0x14DB JUMPI JUMPDEST POP POP POP SWAP2 SWAP1 SWAP3 MSTORE POP POP POP PUSH1 0x80 DUP2 ADD MLOAD SWAP1 SWAP2 POP PUSH1 0x0 DUP1 JUMPDEST DUP3 MLOAD DUP2 LT ISZERO PUSH2 0x1570 JUMPI DUP5 PUSH1 0x1 PUSH1 0x1 PUSH1 0xA0 SHL SUB AND DUP4 DUP3 DUP2 MLOAD DUP2 LT PUSH2 0x1542 JUMPI PUSH4 0x4E487B71 PUSH1 0xE0 SHL PUSH1 0x0 MSTORE PUSH1 0x32 PUSH1 0x4 MSTORE PUSH1 0x24 PUSH1 0x0 REVERT JUMPDEST PUSH1 0x20 MUL PUSH1 0x20 ADD ADD MLOAD PUSH1 0x1 PUSH1 0x1 PUSH1 0xA0 SHL SUB AND EQ ISZERO PUSH2 0x155E JUMPI PUSH1 0x1 SWAP2 POP JUMPDEST DUP1 PUSH2 0x1568 DUP2 PUSH2 0x2107 JUMP JUMPDEST SWAP2 POP POP PUSH2 0x150F JUMP JUMPDEST POP PUSH1 0x1 SWAP1 POP PUSH1 0x0 JUMPDEST DUP4 PUSH1 0xE0 ADD MLOAD MLOAD DUP2 LT ISZERO PUSH2 0x1624 JUMPI DUP5 PUSH1 0x1 PUSH1 0x1 PUSH1 0xA0 SHL SUB AND DUP5 PUSH1 0xE0 ADD MLOAD DUP3 DUP2 MLOAD DUP2 LT PUSH2 0x15B3 JUMPI PUSH4 0x4E487B71 PUSH1 0xE0 SHL PUSH1 0x0 MSTORE PUSH1 0x32 PUSH1 0x4 MSTORE PUSH1 0x24 PUSH1 0x0 REVERT JUMPDEST PUSH1 0x20 MUL PUSH1 0x20 ADD ADD MLOAD PUSH1 0x1 PUSH1 0x1 PUSH1 0xA0 SHL SUB AND EQ ISZERO PUSH2 0x1612 JUMPI PUSH1 0x40 MLOAD PUSH3 0x461BCD PUSH1 0xE5 SHL DUP2 MSTORE PUSH1 0x20 PUSH1 0x4 DUP3 ADD DUP2 SWAP1 MSTORE PUSH1 0x24 DUP3 ADD MSTORE PUSH32 0xD092D18B20D183D0B6D0B520D0B3D0BED0BBD0BED181D0BED0B2D0B0D0BBD0B8 PUSH1 0x44 DUP3 ADD MSTORE PUSH1 0x64 ADD PUSH2 0x3A6 JUMP JUMPDEST DUP1 PUSH2 0x161C DUP2 PUSH2 0x2107 JUMP JUMPDEST SWAP2 POP POP PUSH2 0x1578 JUMP JUMPDEST POP PUSH1 0x1 PUSH1 0x1 PUSH1 0xA0 SHL SUB DUP8 DUP2 AND PUSH1 0x0 SWAP1 DUP2 MSTORE PUSH1 0x2 PUSH1 0x20 SWAP1 DUP2 MSTORE PUSH1 0x40 DUP1 DUP4 KECCAK256 DUP13 DUP5 MSTORE DUP3 MSTORE DUP1 DUP4 KECCAK256 DUP11 DUP5 MSTORE DUP3 MSTORE DUP3 KECCAK256 PUSH1 0x6 ADD DUP1 SLOAD PUSH1 0x1 DUP1 DUP3 ADD DUP4 SSTORE SWAP2 DUP5 MSTORE SWAP2 SWAP1 SWAP3 KECCAK256 ADD DUP1 SLOAD PUSH1 0x1 PUSH1 0x1 PUSH1 0xA0 SHL SUB NOT AND SWAP3 DUP8 AND SWAP3 SWAP1 SWAP3 OR SWAP1 SWAP2 SSTORE DUP6 ISZERO ISZERO EQ ISZERO PUSH2 0x16D9 JUMPI PUSH1 0x1 PUSH1 0x1 PUSH1 0xA0 SHL SUB DUP8 DUP2 AND PUSH1 0x0 SWAP1 DUP2 MSTORE PUSH1 0x2 PUSH1 0x20 SWAP1 DUP2 MSTORE PUSH1 0x40 DUP1 DUP4 KECCAK256 DUP13 DUP5 MSTORE DUP3 MSTORE DUP1 DUP4 KECCAK256 DUP11 DUP5 MSTORE DUP3 MSTORE DUP3 KECCAK256 PUSH1 0x4 ADD DUP1 SLOAD PUSH1 0x1 DUP2 ADD DUP3 SSTORE SWAP1 DUP4 MSTORE SWAP2 KECCAK256 ADD DUP1 SLOAD PUSH1 0x1 PUSH1 0x1 PUSH1 0xA0 SHL SUB NOT AND SWAP2 DUP7 AND SWAP2 SWAP1 SWAP2 OR SWAP1 SSTORE PUSH2 0x172B JUMP JUMPDEST PUSH1 0x1 PUSH1 0x1 PUSH1 0xA0 SHL SUB DUP8 DUP2 AND PUSH1 0x0 SWAP1 DUP2 MSTORE PUSH1 0x2 PUSH1 0x20 SWAP1 DUP2 MSTORE PUSH1 0x40 DUP1 DUP4 KECCAK256 DUP13 DUP5 MSTORE DUP3 MSTORE DUP1 DUP4 KECCAK256 DUP11 DUP5 MSTORE DUP3 MSTORE DUP3 KECCAK256 PUSH1 0x5 ADD DUP1 SLOAD PUSH1 0x1 DUP2 ADD DUP3 SSTORE SWAP1 DUP4 MSTORE SWAP2 KECCAK256 ADD DUP1 SLOAD PUSH1 0x1 PUSH1 0x1 PUSH1 0xA0 SHL SUB NOT AND SWAP2 DUP7 AND SWAP2 SWAP1 SWAP2 OR SWAP1 SSTORE JUMPDEST PUSH1 0x1 PUSH1 0x1 PUSH1 0xA0 SHL SUB DUP8 DUP2 AND PUSH1 0x0 SWAP1 DUP2 MSTORE PUSH1 0x2 PUSH1 0x20 DUP2 DUP2 MSTORE PUSH1 0x40 DUP1 DUP5 KECCAK256 DUP14 DUP6 MSTORE DUP3 MSTORE DUP1 DUP5 KECCAK256 DUP12 DUP6 MSTORE DUP3 MSTORE SWAP3 DUP4 SWAP1 KECCAK256 DUP4 MLOAD PUSH2 0x100 DUP2 ADD DUP6 MSTORE DUP2 SLOAD DUP2 MSTORE PUSH1 0x1 DUP3 ADD SLOAD DUP2 DUP5 ADD MSTORE SWAP3 DUP2 ADD SLOAD SWAP5 DUP6 AND DUP4 DUP6 ADD MSTORE PUSH1 0x1 PUSH1 0xA0 SHL SWAP1 SWAP5 DIV PUSH1 0xFF AND ISZERO ISZERO PUSH1 0x60 DUP4 ADD MSTORE PUSH1 0x3 DUP5 ADD DUP1 SLOAD DUP5 MLOAD DUP2 DUP5 MUL DUP2 ADD DUP5 ADD SWAP1 SWAP6 MSTORE DUP1 DUP6 MSTORE SWAP3 SWAP5 SWAP4 PUSH1 0x80 DUP7 ADD SWAP4 SWAP1 SWAP3 DUP4 ADD DUP3 DUP3 DUP1 ISZERO PUSH2 0x17E3 JUMPI PUSH1 0x20 MUL DUP3 ADD SWAP2 SWAP1 PUSH1 0x0 MSTORE PUSH1 0x20 PUSH1 0x0 KECCAK256 SWAP1 JUMPDEST DUP2 SLOAD PUSH1 0x1 PUSH1 0x1 PUSH1 0xA0 SHL SUB AND DUP2 MSTORE PUSH1 0x1 SWAP1 SWAP2 ADD SWAP1 PUSH1 0x20 ADD DUP1 DUP4 GT PUSH2 0x17C5 JUMPI JUMPDEST POP POP POP POP POP DUP2 MSTORE PUSH1 0x20 ADD PUSH1 0x4 DUP3 ADD DUP1 SLOAD DUP1 PUSH1 0x20 MUL PUSH1 0x20 ADD PUSH1 0x40 MLOAD SWAP1 DUP2 ADD PUSH1 0x40 MSTORE DUP1 SWAP3 SWAP2 SWAP1 DUP2 DUP2 MSTORE PUSH1 0x20 ADD DUP3 DUP1 SLOAD DUP1 ISZERO PUSH2 0x1845 JUMPI PUSH1 0x20 MUL DUP3 ADD SWAP2 SWAP1 PUSH1 0x0 MSTORE PUSH1 0x20 PUSH1 0x0 KECCAK256 SWAP1 JUMPDEST DUP2 SLOAD PUSH1 0x1 PUSH1 0x1 PUSH1 0xA0 SHL SUB AND DUP2 MSTORE PUSH1 0x1 SWAP1 SWAP2 ADD SWAP1 PUSH1 0x20 ADD DUP1 DUP4 GT PUSH2 0x1827 JUMPI JUMPDEST POP POP POP POP POP DUP2 MSTORE PUSH1 0x20 ADD PUSH1 0x5 DUP3 ADD DUP1 SLOAD DUP1 PUSH1 0x20 MUL PUSH1 0x20 ADD PUSH1 0x40 MLOAD SWAP1 DUP2 ADD PUSH1 0x40 MSTORE DUP1 SWAP3 SWAP2 SWAP1 DUP2 DUP2 MSTORE PUSH1 0x20 ADD DUP3 DUP1 SLOAD DUP1 ISZERO PUSH2 0x18A7 JUMPI PUSH1 0x20 MUL DUP3 ADD SWAP2 SWAP1 PUSH1 0x0 MSTORE PUSH1 0x20 PUSH1 0x0 KECCAK256 SWAP1 JUMPDEST DUP2 SLOAD PUSH1 0x1 PUSH1 0x1 PUSH1 0xA0 SHL SUB AND DUP2 MSTORE PUSH1 0x1 SWAP1 SWAP2 ADD SWAP1 PUSH1 0x20 ADD DUP1 DUP4 GT PUSH2 0x1889 JUMPI JUMPDEST POP POP POP POP POP DUP2 MSTORE PUSH1 0x20 ADD PUSH1 0x6 DUP3 ADD DUP1 SLOAD DUP1 PUSH1 0x20 MUL PUSH1 0x20 ADD PUSH1 0x40 MLOAD SWAP1 DUP2 ADD PUSH1 0x40 MSTORE DUP1 SWAP3 SWAP2 SWAP1 DUP2 DUP2 MSTORE PUSH1 0x20 ADD DUP3 DUP1 SLOAD DUP1 ISZERO PUSH2 0x1909 JUMPI PUSH1 0x20 MUL DUP3 ADD SWAP2 SWAP1 PUSH1 0x0 MSTORE PUSH1 0x20 PUSH1 0x0 KECCAK256 SWAP1 JUMPDEST DUP2 SLOAD PUSH1 0x1 PUSH1 0x1 PUSH1 0xA0 SHL SUB AND DUP2 MSTORE PUSH1 0x1 SWAP1 SWAP2 ADD SWAP1 PUSH1 0x20 ADD DUP1 DUP4 GT PUSH2 0x18EB JUMPI JUMPDEST POP POP POP SWAP2 SWAP1 SWAP3 MSTORE POP POP POP PUSH1 0x80 DUP2 ADD MLOAD MLOAD PUSH1 0xE0 DUP3 ADD MLOAD MLOAD PUSH1 0xA0 DUP4 ADD MLOAD MLOAD PUSH1 0xC0 DUP5 ADD MLOAD MLOAD SWAP4 SWAP7 POP SWAP2 SWAP3 SWAP1 SWAP2 SWAP1 PUSH1 0x0 PUSH2 0x193F DUP5 DUP7 PUSH2 0x20B5 JUMP JUMPDEST SWAP1 POP PUSH2 0x194B DUP2 DUP4 PUSH2 0x209D JUMP JUMPDEST DUP4 GT ISZERO PUSH2 0x1A35 JUMPI PUSH1 0x1 PUSH1 0x2 PUSH1 0x0 DUP15 PUSH1 0x1 PUSH1 0x1 PUSH1 0xA0 SHL SUB AND PUSH1 0x1 PUSH1 0x1 PUSH1 0xA0 SHL SUB AND DUP2 MSTORE PUSH1 0x20 ADD SWAP1 DUP2 MSTORE PUSH1 0x20 ADD PUSH1 0x0 KECCAK256 PUSH1 0x0 DUP16 DUP2 MSTORE PUSH1 0x20 ADD SWAP1 DUP2 MSTORE PUSH1 0x20 ADD PUSH1 0x0 KECCAK256 PUSH1 0x0 DUP14 DUP2 MSTORE PUSH1 0x20 ADD SWAP1 DUP2 MSTORE PUSH1 0x20 ADD PUSH1 0x0 KECCAK256 PUSH1 0x2 ADD PUSH1 0x14 PUSH2 0x100 EXP DUP2 SLOAD DUP2 PUSH1 0xFF MUL NOT AND SWAP1 DUP4 ISZERO ISZERO MUL OR SWAP1 SSTORE POP PUSH1 0x1 DUP1 PUSH1 0x0 DUP15 PUSH1 0x1 PUSH1 0x1 PUSH1 0xA0 SHL SUB AND PUSH1 0x1 PUSH1 0x1 PUSH1 0xA0 SHL SUB AND DUP2 MSTORE PUSH1 0x20 ADD SWAP1 DUP2 MSTORE PUSH1 0x20 ADD PUSH1 0x0 KECCAK256 PUSH1 0x0 DUP16 DUP2 MSTORE PUSH1 0x20 ADD SWAP1 DUP2 MSTORE PUSH1 0x20 ADD PUSH1 0x0 KECCAK256 DUP13 DUP2 SLOAD DUP2 LT PUSH2 0x1A0B JUMPI PUSH4 0x4E487B71 PUSH1 0xE0 SHL PUSH1 0x0 MSTORE PUSH1 0x32 PUSH1 0x4 MSTORE PUSH1 0x24 PUSH1 0x0 REVERT JUMPDEST SWAP1 PUSH1 0x0 MSTORE PUSH1 0x20 PUSH1 0x0 KECCAK256 SWAP1 PUSH1 0x6 MUL ADD PUSH1 0x5 ADD PUSH1 0x0 PUSH2 0x100 EXP DUP2 SLOAD DUP2 PUSH1 0xFF MUL NOT AND SWAP1 DUP4 PUSH1 0xFF AND MUL OR SWAP1 SSTORE POP JUMPDEST POP POP POP POP POP POP POP POP POP POP POP POP POP JUMP JUMPDEST DUP3 DUP1 SLOAD PUSH2 0x1A50 SWAP1 PUSH2 0x20CC JUMP JUMPDEST SWAP1 PUSH1 0x0 MSTORE PUSH1 0x20 PUSH1 0x0 KECCAK256 SWAP1 PUSH1 0x1F ADD PUSH1 0x20 SWAP1 DIV DUP2 ADD SWAP3 DUP3 PUSH2 0x1A72 JUMPI PUSH1 0x0 DUP6 SSTORE PUSH2 0x1AB8 JUMP JUMPDEST DUP3 PUSH1 0x1F LT PUSH2 0x1A8B JUMPI DUP1 MLOAD PUSH1 0xFF NOT AND DUP4 DUP1 ADD OR DUP6 SSTORE PUSH2 0x1AB8 JUMP JUMPDEST DUP3 DUP1 ADD PUSH1 0x1 ADD DUP6 SSTORE DUP3 ISZERO PUSH2 0x1AB8 JUMPI SWAP2 DUP3 ADD JUMPDEST DUP3 DUP2 GT ISZERO PUSH2 0x1AB8 JUMPI DUP3 MLOAD DUP3 SSTORE SWAP2 PUSH1 0x20 ADD SWAP2 SWAP1 PUSH1 0x1 ADD SWAP1 PUSH2 0x1A9D JUMP JUMPDEST POP PUSH2 0x1AC4 SWAP3 SWAP2 POP PUSH2 0x1B6D JUMP JUMPDEST POP SWAP1 JUMP JUMPDEST PUSH1 0x40 MLOAD DUP1 PUSH2 0x100 ADD PUSH1 0x40 MSTORE DUP1 PUSH1 0x0 DUP2 MSTORE PUSH1 0x20 ADD PUSH1 0x0 DUP2 MSTORE PUSH1 0x20 ADD PUSH1 0x0 PUSH1 0x1 PUSH1 0x1 PUSH1 0xA0 SHL SUB AND DUP2 MSTORE PUSH1 0x20 ADD PUSH1 0x0 ISZERO ISZERO DUP2 MSTORE PUSH1 0x20 ADD PUSH1 0x60 DUP2 MSTORE PUSH1 0x20 ADD PUSH1 0x60 DUP2 MSTORE PUSH1 0x20 ADD PUSH1 0x60 DUP2 MSTORE PUSH1 0x20 ADD PUSH1 0x60 DUP2 MSTORE POP SWAP1 JUMP JUMPDEST DUP3 DUP1 SLOAD DUP3 DUP3 SSTORE SWAP1 PUSH1 0x0 MSTORE PUSH1 0x20 PUSH1 0x0 KECCAK256 SWAP1 DUP2 ADD SWAP3 DUP3 ISZERO PUSH2 0x1AB8 JUMPI SWAP2 PUSH1 0x20 MUL DUP3 ADD JUMPDEST DUP3 DUP2 GT ISZERO PUSH2 0x1AB8 JUMPI DUP3 MLOAD DUP3 SLOAD PUSH1 0x1 PUSH1 0x1 PUSH1 0xA0 SHL SUB NOT AND PUSH1 0x1 PUSH1 0x1 PUSH1 0xA0 SHL SUB SWAP1 SWAP2 AND OR DUP3 SSTORE PUSH1 0x20 SWAP1 SWAP3 ADD SWAP2 PUSH1 0x1 SWAP1 SWAP2 ADD SWAP1 PUSH2 0x1B38 JUMP JUMPDEST JUMPDEST DUP1 DUP3 GT ISZERO PUSH2 0x1AC4 JUMPI PUSH1 0x0 DUP2 SSTORE PUSH1 0x1 ADD PUSH2 0x1B6E JUMP JUMPDEST PUSH1 0x0 PUSH1 0x20 DUP3 DUP5 SUB SLT ISZERO PUSH2 0x1B93 JUMPI DUP1 DUP2 REVERT JUMPDEST DUP2 CALLDATALOAD PUSH2 0x1B9E DUP2 PUSH2 0x214E JUMP JUMPDEST SWAP4 SWAP3 POP POP POP JUMP JUMPDEST PUSH1 0x0 DUP1 PUSH1 0x0 PUSH1 0x60 DUP5 DUP7 SUB SLT ISZERO PUSH2 0x1BB9 JUMPI DUP2 DUP3 REVERT JUMPDEST DUP4 CALLDATALOAD PUSH2 0x1BC4 DUP2 PUSH2 0x214E JUMP JUMPDEST SWAP6 PUSH1 0x20 DUP6 ADD CALLDATALOAD SWAP6 POP PUSH1 0x40 SWAP1 SWAP5 ADD CALLDATALOAD SWAP4 SWAP3 POP POP POP JUMP JUMPDEST PUSH1 0x0 PUSH1 0x20 DUP1 DUP4 DUP6 SUB SLT ISZERO PUSH2 0x1BEB JUMPI DUP2 DUP3 REVERT JUMPDEST DUP3 MLOAD PUSH8 0xFFFFFFFFFFFFFFFF DUP1 DUP3 GT ISZERO PUSH2 0x1C02 JUMPI DUP4 DUP5 REVERT JUMPDEST DUP2 DUP6 ADD SWAP2 POP DUP6 PUSH1 0x1F DUP4 ADD SLT PUSH2 0x1C15 JUMPI DUP4 DUP5 REVERT JUMPDEST DUP2 MLOAD DUP2 DUP2 GT ISZERO PUSH2 0x1C27 JUMPI PUSH2 0x1C27 PUSH2 0x2138 JUMP JUMPDEST DUP4 DUP2 MUL SWAP2 POP PUSH2 0x1C37 DUP5 DUP4 ADD PUSH2 0x206C JUMP JUMPDEST DUP2 DUP2 MSTORE DUP5 DUP2 ADD SWAP1 DUP5 DUP7 ADD DUP5 DUP7 ADD DUP8 ADD DUP11 LT ISZERO PUSH2 0x1C51 JUMPI DUP8 DUP9 REVERT JUMPDEST DUP8 SWAP6 POP JUMPDEST DUP4 DUP7 LT ISZERO PUSH2 0x1C7F JUMPI DUP1 MLOAD SWAP5 POP PUSH2 0x1C6A DUP6 PUSH2 0x214E JUMP JUMPDEST DUP5 DUP4 MSTORE PUSH1 0x1 SWAP6 SWAP1 SWAP6 ADD SWAP5 SWAP2 DUP7 ADD SWAP2 DUP7 ADD PUSH2 0x1C55 JUMP JUMPDEST POP SWAP9 SWAP8 POP POP POP POP POP POP POP POP JUMP JUMPDEST PUSH1 0x0 PUSH1 0x20 DUP3 DUP5 SUB SLT ISZERO PUSH2 0x1C9D JUMPI DUP1 DUP2 REVERT JUMPDEST DUP2 MLOAD PUSH2 0x1B9E DUP2 PUSH2 0x2166 JUMP JUMPDEST PUSH1 0x0 DUP1 PUSH1 0x40 DUP4 DUP6 SUB SLT ISZERO PUSH2 0x1CBA JUMPI DUP2 DUP3 REVERT JUMPDEST DUP3 CALLDATALOAD SWAP2 POP PUSH1 0x20 DUP4 ADD CALLDATALOAD PUSH2 0x1CCC DUP2 PUSH2 0x214E JUMP JUMPDEST DUP1 SWAP2 POP POP SWAP3 POP SWAP3 SWAP1 POP JUMP JUMPDEST PUSH1 0x0 DUP1 PUSH1 0x0 PUSH1 0x60 DUP5 DUP7 SUB SLT ISZERO PUSH2 0x1CEB JUMPI DUP3 DUP4 REVERT JUMPDEST DUP4 CALLDATALOAD SWAP3 POP PUSH1 0x20 DUP5 ADD CALLDATALOAD PUSH2 0x1CFD DUP2 PUSH2 0x214E JUMP JUMPDEST SWAP3 SWAP6 SWAP3 SWAP5 POP POP POP PUSH1 0x40 SWAP2 SWAP1 SWAP2 ADD CALLDATALOAD SWAP1 JUMP JUMPDEST PUSH1 0x0 DUP1 PUSH1 0x0 DUP1 PUSH1 0x80 DUP6 DUP8 SUB SLT ISZERO PUSH2 0x1D23 JUMPI DUP1 DUP2 REVERT JUMPDEST DUP5 CALLDATALOAD SWAP4 POP PUSH1 0x20 DUP6 ADD CALLDATALOAD PUSH2 0x1D35 DUP2 PUSH2 0x214E JUMP JUMPDEST SWAP3 POP PUSH1 0x40 DUP6 ADD CALLDATALOAD SWAP2 POP PUSH1 0x60 DUP6 ADD CALLDATALOAD PUSH2 0x1D4C DUP2 PUSH2 0x2166 JUMP JUMPDEST SWAP4 SWAP7 SWAP3 SWAP6 POP SWAP1 SWAP4 POP POP JUMP JUMPDEST PUSH1 0x0 DUP1 PUSH1 0x0 PUSH1 0x60 DUP5 DUP7 SUB SLT ISZERO PUSH2 0x1D6B JUMPI DUP3 DUP4 REVERT JUMPDEST DUP4 CALLDATALOAD SWAP3 POP PUSH1 0x20 DUP1 DUP6 ADD CALLDATALOAD SWAP3 POP PUSH1 0x40 DUP6 ADD CALLDATALOAD PUSH8 0xFFFFFFFFFFFFFFFF DUP1 DUP3 GT ISZERO PUSH2 0x1D91 JUMPI DUP4 DUP5 REVERT JUMPDEST DUP2 DUP8 ADD SWAP2 POP DUP8 PUSH1 0x1F DUP4 ADD SLT PUSH2 0x1DA4 JUMPI DUP4 DUP5 REVERT JUMPDEST DUP2 CALLDATALOAD DUP2 DUP2 GT ISZERO PUSH2 0x1DB6 JUMPI PUSH2 0x1DB6 PUSH2 0x2138 JUMP JUMPDEST PUSH2 0x1DC8 PUSH1 0x1F DUP3 ADD PUSH1 0x1F NOT AND DUP6 ADD PUSH2 0x206C JUMP JUMPDEST SWAP2 POP DUP1 DUP3 MSTORE DUP9 DUP5 DUP3 DUP6 ADD ADD GT ISZERO PUSH2 0x1DDD JUMPI DUP5 DUP6 REVERT JUMPDEST DUP1 DUP5 DUP5 ADD DUP6 DUP5 ADD CALLDATACOPY DUP5 DUP5 DUP3 DUP5 ADD ADD MSTORE POP DUP1 SWAP4 POP POP POP POP SWAP3 POP SWAP3 POP SWAP3 JUMP JUMPDEST PUSH1 0x0 DUP2 MLOAD DUP1 DUP5 MSTORE PUSH1 0x20 DUP1 DUP6 ADD SWAP5 POP DUP1 DUP5 ADD DUP4 JUMPDEST DUP4 DUP2 LT ISZERO PUSH2 0x1E32 JUMPI DUP2 MLOAD PUSH1 0x1 PUSH1 0x1 PUSH1 0xA0 SHL SUB AND DUP8 MSTORE SWAP6 DUP3 ADD SWAP6 SWAP1 DUP3 ADD SWAP1 PUSH1 0x1 ADD PUSH2 0x1E0D JUMP JUMPDEST POP SWAP5 SWAP6 SWAP5 POP POP POP POP POP JUMP JUMPDEST PUSH1 0x0 DUP2 MLOAD DUP1 DUP5 MSTORE DUP2 JUMPDEST DUP2 DUP2 LT ISZERO PUSH2 0x1E62 JUMPI PUSH1 0x20 DUP2 DUP6 ADD DUP2 ADD MLOAD DUP7 DUP4 ADD DUP3 ADD MSTORE ADD PUSH2 0x1E46 JUMP JUMPDEST DUP2 DUP2 GT ISZERO PUSH2 0x1E73 JUMPI DUP3 PUSH1 0x20 DUP4 DUP8 ADD ADD MSTORE JUMPDEST POP PUSH1 0x1F ADD PUSH1 0x1F NOT AND SWAP3 SWAP1 SWAP3 ADD PUSH1 0x20 ADD SWAP3 SWAP2 POP POP JUMP JUMPDEST PUSH1 0x20 DUP1 DUP3 MSTORE DUP3 MLOAD DUP3 DUP3 ADD DUP2 SWAP1 MSTORE PUSH1 0x0 SWAP2 SWAP1 PUSH1 0x40 SWAP1 DUP2 DUP6 ADD SWAP1 DUP1 DUP5 MUL DUP7 ADD DUP4 ADD DUP8 DUP6 ADD DUP7 JUMPDEST DUP4 DUP2 LT ISZERO PUSH2 0x1F27 JUMPI DUP9 DUP4 SUB PUSH1 0x3F NOT ADD DUP6 MSTORE DUP2 MLOAD DUP1 MLOAD DUP5 MSTORE DUP8 DUP2 ADD MLOAD DUP9 DUP6 ADD MSTORE DUP7 DUP2 ADD MLOAD PUSH1 0x1 PUSH1 0x1 PUSH1 0xA0 SHL SUB AND DUP8 DUP6 ADD MSTORE PUSH1 0x60 DUP1 DUP3 ADD MLOAD SWAP1 DUP6 ADD MSTORE PUSH1 0x80 DUP1 DUP3 ADD MLOAD PUSH1 0xC0 DUP3 DUP8 ADD DUP2 SWAP1 MSTORE SWAP2 SWAP1 PUSH2 0x1F02 DUP4 DUP9 ADD DUP3 PUSH2 0x1E3D JUMP JUMPDEST PUSH1 0xA0 SWAP5 DUP6 ADD MLOAD PUSH1 0xFF AND SWAP8 SWAP1 SWAP5 ADD SWAP7 SWAP1 SWAP7 MSTORE POP POP SWAP5 DUP8 ADD SWAP5 SWAP3 POP SWAP1 DUP7 ADD SWAP1 PUSH1 0x1 ADD PUSH2 0x1EAC JUMP JUMPDEST POP SWAP1 SWAP9 SWAP8 POP POP POP POP POP POP POP POP JUMP JUMPDEST PUSH1 0x20 DUP1 DUP3 MSTORE PUSH1 0x16 SWAP1 DUP3 ADD MSTORE PUSH22 0xD09DD0B5D18220D0B4D0BED181D182D183D0BFD0B021 PUSH1 0x50 SHL PUSH1 0x40 DUP3 ADD MSTORE PUSH1 0x60 ADD SWAP1 JUMP JUMPDEST PUSH1 0x0 PUSH1 0x20 DUP3 MSTORE DUP3 MLOAD PUSH1 0x20 DUP4 ADD MSTORE PUSH1 0x20 DUP4 ADD MLOAD PUSH1 0x40 DUP4 ADD MSTORE PUSH1 0x40 DUP4 ADD MLOAD PUSH2 0x1F96 PUSH1 0x60 DUP5 ADD DUP3 PUSH1 0x1 PUSH1 0x1 PUSH1 0xA0 SHL SUB AND SWAP1 MSTORE JUMP JUMPDEST POP PUSH1 0x60 DUP4 ADD MLOAD DUP1 ISZERO ISZERO PUSH1 0x80 DUP5 ADD MSTORE POP PUSH1 0x80 DUP4 ADD MLOAD PUSH2 0x100 DUP1 PUSH1 0xA0 DUP6 ADD MSTORE PUSH2 0x1FC1 PUSH2 0x120 DUP6 ADD DUP4 PUSH2 0x1DFA JUMP JUMPDEST SWAP2 POP PUSH1 0xA0 DUP6 ADD MLOAD PUSH1 0x1F NOT DUP1 DUP7 DUP6 SUB ADD PUSH1 0xC0 DUP8 ADD MSTORE PUSH2 0x1FDF DUP5 DUP4 PUSH2 0x1DFA JUMP JUMPDEST SWAP4 POP PUSH1 0xC0 DUP8 ADD MLOAD SWAP2 POP DUP1 DUP7 DUP6 SUB ADD PUSH1 0xE0 DUP8 ADD MSTORE PUSH2 0x1FFC DUP5 DUP4 PUSH2 0x1DFA JUMP JUMPDEST SWAP4 POP PUSH1 0xE0 DUP8 ADD MLOAD SWAP2 POP DUP1 DUP7 DUP6 SUB ADD DUP4 DUP8 ADD MSTORE POP PUSH2 0x2019 DUP4 DUP3 PUSH2 0x1DFA JUMP JUMPDEST SWAP7 SWAP6 POP POP POP POP POP POP JUMP JUMPDEST PUSH1 0x0 DUP8 DUP3 MSTORE DUP7 PUSH1 0x20 DUP4 ADD MSTORE PUSH1 0x1 DUP1 PUSH1 0xA0 SHL SUB DUP7 AND PUSH1 0x40 DUP4 ADD MSTORE DUP5 PUSH1 0x60 DUP4 ADD MSTORE PUSH1 0xC0 PUSH1 0x80 DUP4 ADD MSTORE PUSH2 0x2056 PUSH1 0xC0 DUP4 ADD DUP6 PUSH2 0x1E3D JUMP JUMPDEST SWAP1 POP PUSH1 0xFF DUP4 AND PUSH1 0xA0 DUP4 ADD MSTORE SWAP8 SWAP7 POP POP POP POP POP POP POP JUMP JUMPDEST PUSH1 0x40 MLOAD PUSH1 0x1F DUP3 ADD PUSH1 0x1F NOT AND DUP2 ADD PUSH8 0xFFFFFFFFFFFFFFFF DUP2 GT DUP3 DUP3 LT OR ISZERO PUSH2 0x2095 JUMPI PUSH2 0x2095 PUSH2 0x2138 JUMP JUMPDEST PUSH1 0x40 MSTORE SWAP2 SWAP1 POP JUMP JUMPDEST PUSH1 0x0 DUP3 NOT DUP3 GT ISZERO PUSH2 0x20B0 JUMPI PUSH2 0x20B0 PUSH2 0x2122 JUMP JUMPDEST POP ADD SWAP1 JUMP JUMPDEST PUSH1 0x0 DUP3 DUP3 LT ISZERO PUSH2 0x20C7 JUMPI PUSH2 0x20C7 PUSH2 0x2122 JUMP JUMPDEST POP SUB SWAP1 JUMP JUMPDEST PUSH1 0x2 DUP2 DIV PUSH1 0x1 DUP3 AND DUP1 PUSH2 0x20E0 JUMPI PUSH1 0x7F DUP3 AND SWAP2 POP JUMPDEST PUSH1 0x20 DUP3 LT DUP2 EQ ISZERO PUSH2 0x2101 JUMPI PUSH4 0x4E487B71 PUSH1 0xE0 SHL PUSH1 0x0 MSTORE PUSH1 0x22 PUSH1 0x4 MSTORE PUSH1 0x24 PUSH1 0x0 REVERT JUMPDEST POP SWAP2 SWAP1 POP JUMP JUMPDEST PUSH1 0x0 PUSH1 0x0 NOT DUP3 EQ ISZERO PUSH2 0x211B JUMPI PUSH2 0x211B PUSH2 0x2122 JUMP JUMPDEST POP PUSH1 0x1 ADD SWAP1 JUMP JUMPDEST PUSH4 0x4E487B71 PUSH1 0xE0 SHL PUSH1 0x0 MSTORE PUSH1 0x11 PUSH1 0x4 MSTORE PUSH1 0x24 PUSH1 0x0 REVERT JUMPDEST PUSH4 0x4E487B71 PUSH1 0xE0 SHL PUSH1 0x0 MSTORE PUSH1 0x41 PUSH1 0x4 MSTORE PUSH1 0x24 PUSH1 0x0 REVERT JUMPDEST PUSH1 0x1 PUSH1 0x1 PUSH1 0xA0 SHL SUB DUP2 AND DUP2 EQ PUSH2 0x2163 JUMPI PUSH1 0x0 DUP1 REVERT JUMPDEST POP JUMP JUMPDEST DUP1 ISZERO ISZERO DUP2 EQ PUSH2 0x2163 JUMPI PUSH1 0x0 DUP1 REVERT INVALID LOG2 PUSH5 0x6970667358 0x22 SLT KECCAK256 DUP16 PUSH3 0x6C98B9 0x25 0xE4 0xE5 0xB2 PUSH16 0x79CA638FA9E98ADA514792CC710460E1 TIMESTAMP 0xA9 0xD9 OR 0x2D PUSH9 0x64736F6C6343000802 STOP CALLER ",
  "sha1": "fb66eeba4e1e42e8b32c1fe6311cc5eb0ab8812d",
  "source": "// SPDX-License-Identifier: GPL-3.0\n\npragma solidity >=0.8.2 <0.9.0;\n\n/**\n * @title PayContract\n * @dev Store & retrieve value in a variable\n * @custom:dev-run-script ./scripts/deploy_with_ethers.ts\n */\n/*\n    На одобрение/отклонение выплаты дается 7 дней, если в течение этого времени инвестор не проголосует, то выплата автоматически одобряется\n*/\n\nimport \"interfaces/IProjectContract.sol\";\nimport \"interfaces/IInvestContract.sol\";\nimport \"interfaces/IPayContract.sol\";\n\ncontract PayContract is IPayContract{\n    modifier onlyOwner() { // модификатор доступа только для владельца\n        require(msg.sender == owner, unicode\"Нет доступа!\");\n        _;\n    }\n    \n    struct Pay {\n        uint256 payNumber; // номер выплаты\n        uint256 projectNumber; // номер проекта\n        address author; // автор проекта\n        uint256 amountPay; // требуемая выплата\n        string message; // описание назначения выплаты\n        uint8 status; // статус выплаты: 0 - выплата зарегистрирована, 1 - выплата одобрена, 2 - выплата отклонена, 3 - выплачено\n    }\n\n    struct Vote {\n        uint256 payNumber; // номер выплаты\n        uint256 projectNumber; // номер проекта\n        address author; // автор проекта\n        bool flg; // true - принята, false - отклонена/еще идет голосование\n        address[] requireInvestors; // все инвесторы, которые должны проголосовать\n        address[] yesInvestors; // одобрившие выплату инвесторы\n        address[] noInvestors; // отклонившие выплату инвесторы\n        address[] voteInvestors; // Проголосовавшие инвесторы\n    }\n\n    address owner; // Адрес владельца смарт-контракта\n\n    // Адрес автора проекта => (номер проекта => Массив выплат)\n    mapping(address => mapping(uint256 => Pay[])) public payments; // Все выплаты\n\n    // Адрес автора проекта => (номер проекта => (номер выплаты => голосование))\n    mapping(address => mapping(uint256 => mapping(uint256 => Vote))) public votes; // голосования\n\n    address public addrProjectContract; // адрес смарт-контракта \"Проект\"\n    IProjectContract projectContract; // смарт-контракт \"Проект\"\n\n    address public addrInvestContract; // адрес смарт-контракта \"Инвестиция\"\n    IInvestContract investContract; // смарт-контракт \"Инвестиция\"\n\n    constructor() {\n        owner = msg.sender; // назначение владельца контракта\n    }\n\n    // функция смены адреса смарт-контракта \"Проект\"\n    function changeProjectContract(address _addrProjectContract) external onlyOwner { \n        addrProjectContract = _addrProjectContract;\n        projectContract = IProjectContract(_addrProjectContract);\n    }\n\n    // Получение адреса смарт-контракта \"Проект\"\n    function getAddressProjectContract() external view returns(address) {\n        return addrProjectContract;\n    }\n\n    // функция смены адреса смарт-контракта \"Инвестиция\"\n    function changeInvestContract(address _addrInvestContract) external onlyOwner { \n        addrInvestContract = _addrInvestContract;\n        investContract = IInvestContract(_addrInvestContract);\n    }\n\n    // Получение всех выплат проекта\n    function getAllPaysProject(uint256 projectNumber, address author) external view returns (Pay[] memory) {\n        return payments[author][projectNumber];\n    }\n\n    // Получение голосования\n    function getPayVote(uint256 projectNumber, address author, uint256 payNumber) external view returns(Vote memory) {\n        return votes[author][projectNumber][payNumber];\n    }\n\n    // Запрос на выплату\n    function requestPay(uint256 projectNumber, uint256 amountPay, string memory message) external {\n        address author = msg.sender;\n        // Проверить, что проект существует, готов к выплатам, и сразу же проверить, что автор является отправителем запроса\n        require(projectContract.checkProjectExistsAndReadyToPayments(projectNumber, author) == true, unicode\"Проверьте, существует ли проект и готов к выплатам\");\n\n        // Проверить, что есть запрашиваемые средства\n        require(projectContract.checkNecessaryMoney(projectNumber, author, amountPay) == true, unicode\"Недостаточно средств\");\n\n        // Добавить запрос о выплате в хранилище\n        uint256 payNumber = payments[author][projectNumber].length;\n        Pay memory pay = Pay(\n            payNumber,\n            projectNumber,\n            author,\n            amountPay,\n            message,\n            0\n        );\n\n        payments[author][projectNumber].push(pay);\n\n        // Назначить голосование\n        Vote memory vote;\n        vote.payNumber = payNumber;\n        vote.projectNumber = projectNumber;\n        vote.author = author;\n        vote.flg = false;\n        vote.requireInvestors = investContract.getProjectInvestors(projectNumber, author);\n\n        votes[author][projectNumber][payNumber] = vote;\n    }\n\n    // Голосование. flg = true - за, flg = false - против\n    function vote(uint256 projectNumber, address author, uint256 payNumber, bool flg) external {\n        // Проверяем, что голосование еще не завершено\n        require(payments[author][projectNumber][payNumber].status == 0, unicode'Голосвание завершено');\n\n        address investor = msg.sender;\n        Vote memory vote = votes[author][projectNumber][payNumber];\n        address[] memory investors = vote.requireInvestors;\n\n        // Проверяем, что инвестора есть в списке инвесторов\n        bool existsFlg = false;\n        for (uint256 i = 0; i < investors.length; i++) {\n            if (investors[i] == investor) {\n                existsFlg = true;\n            }\n        }\n        require(existsFlg = true, unicode'Такого инвестора нет в списке');\n\n        // Проверяем, что инвестор еще не голосовал    \n        for (uint256 i = 0; i < vote.voteInvestors.length; i++) {\n            require(vote.voteInvestors[i] != investor, unicode'Вы уже голосовали');\n        }\n\n        // Добавляем инвестора в список голосвавших и распределяем его в список за/против\n        votes[author][projectNumber][payNumber].voteInvestors.push(investor);\n        if (flg == true) {\n            votes[author][projectNumber][payNumber].yesInvestors.push(investor);\n        } else {\n            votes[author][projectNumber][payNumber].noInvestors.push(investor);\n        }\n\n        vote = votes[author][projectNumber][payNumber];\n\n        // Смотрим, что голосование еще не завершилось\n        // Если кол-во инвесторов за > кол-во против + нейтральные, то считаем голосование завершенным\n        uint256 allLen = vote.requireInvestors.length;\n        uint256 voteLen = vote.voteInvestors.length;\n        uint256 yesLen = vote.yesInvestors.length;\n        uint256 noLen = vote.noInvestors.length;\n        uint256 neutralLen = allLen - voteLen;\n        \n        if (yesLen > noLen + neutralLen) {\n            // Считаем голосование завершенным\n            votes[author][projectNumber][payNumber].flg = true; // одобрено\n            payments[author][projectNumber][payNumber].status = 1;\n        }\n    }\n\n    // Закрытие голосования по истечению времени\n    function closeVote(uint256 projectNumber, address author, uint256 payNumber) external onlyOwner {\n        // Проверяем, что голосование еще не завершено\n        require(payments[author][projectNumber][payNumber].status == 0, unicode'Голосование завершено');\n        \n        Vote memory vote = votes[author][projectNumber][payNumber];\n        // Если кол-во инвесторов за + нейтральные > кол-во против, то считаем голосование завершенным и выплату одобренной\n        // Все воздержавшиеся инвесторы автоматически одобряют выплату\n        uint256 allLen = vote.requireInvestors.length;\n        uint256 voteLen = vote.voteInvestors.length;\n        uint256 yesLen = vote.yesInvestors.length;\n        uint256 noLen = vote.noInvestors.length;\n        uint256 neutralLen = allLen - voteLen;\n\n        if (yesLen + neutralLen > noLen) {\n            // Считаем голосование завершенным\n            votes[author][projectNumber][payNumber].flg = true; // одобрено\n            payments[author][projectNumber][payNumber].status = 1;\n        } else {\n            votes[author][projectNumber][payNumber].flg = false; // одобрено\n            payments[author][projectNumber][payNumber].status = 2;\n        }\n    }\n\n    // Выплата денег пользователю\n    function pay(uint256 projectNumber, address author, uint256 payNumber) external onlyOwner {\n        // Проверяем, что требуется выплатить средства\n        require(payments[author][projectNumber][payNumber].status == 1, unicode'Выплата не одобрена');\n\n        projectContract.changePayAmount(projectNumber, author, payments[author][projectNumber][payNumber].amountPay);\n        payments[author][projectNumber][payNumber].status = 3;\n\n\n    } \n\n}",
  "sourcePath": "contracts/PayContract.sol",
  "type": "contract"
}